:100000000C94FA040C9441050C9441050C944105A0
:100010000C9441050C9441050C9441050C94410548
:100020000C9441050C9441050C9493250C94652681
:100030000C949A1C0C9441050C9441050C944105B8
:100040000C9441050C9441050C9441050C94410518
:100050000C9441050C940E1D0C9441050C94410523
:100060000C9441050C9441050C9441050C944105F8
:100070000C9441050C9441050C9441050C944105E8
:100080000C9441050C9441050C9441050C944105D8
:100090000C9441050C9441050C9441050C944105C8
:1000A0000C9441050C9441050C94410547064A0601
:1000B0004D065006530656065906A212A212D41235
:1000C000D4121A135714571457143A13D713E813AA
:1000D000E8134714571457145014D514D514E714C3
:1000E000E714DE14E714E714E714D514D514E31469
:1000F000E714E714E314D226F926EB27F926EB27B9
:1001000045276827EB27BE27CD270A002530313643
:1001100062003A200025303258000A722F632030E6
:100120003132333435363738394142434445460A53
:10013000006C656674207369646520617474616322
:100140006865640A006C6566742073696465206E76
:100150006F7420726573706F6E64696E670A0074E5
:100160007279696E6720746F207265736574206D93
:10017000637032333031380A007374617274696E9F
:100180006720696E6974000000000000000000171D
:10019000000A0005002A001500090019002C0008BB
:1001A000000700066827411A0016001B6426421447
:1001B0000004001D6100002B003500E1000000007C
:1001C000000000000000001C000B001100290018B6
:1001D000000D00100028000C000E0036782D411292
:1001E000000F0037742E42130033003871000031C5
:1001F0000034002D0000000000000000000000227C
:10020000000000000000002100300230000000204B
:10021000002F022F0000001F000000000000001E41
:1002200000000000000000000000000000000000CE
:100230000000000000000023005000000000002427
:1002400000510000000000250052000000000026C0
:10025000004F000000000027000000000000000028
:10026000000000000000000000000000000000226C
:100270000200000000000021020000000000002039
:10028000020000000030021F02000000002F021ECA
:10029000020000000000000000000000000000005C
:1002A0000000000000000023020000000000002405
:1002B00002000000000000250200000000000026EF
:1002C0000200000000000027020000000000000003
:1002D0000000000000000044454255473A20646990
:1002E0007361626C65642E0A0044454255473A20AA
:1002F000656E61626C65642E0A000A002530325812
:1003000020006B6579626F6172645F7265706F72F5
:10031000743A20000A0025303258006B6579626F0C
:100320006172645F7365745F6C65643A20003F00BE
:10033000433E20004C25640A0074696D65725F724B
:10034000656164333228293A202530346C580A001C
:100350006B6579626F6172645F69646C653A2025D0
:10036000580A006B6579626F6172645F70726F74B6
:100370006F636F6C3A2025580A00686F73745F6B67
:100380006579626F6172645F6C65647328293A20D5
:1003900025580A000A092D20537461747573202DA5
:1003A0000A004743433A20342E392E322041565218
:1003B0002D4C4942433A20312E382E3073766E2030
:1003C0004156525F415243483A20617672350A00E5
:1003D0004F5054494F4E533A204C554641204558B2
:1003E0005452414B455920434F4E534F4C452043A7
:1003F0004F4D4D414E4420343039360A0042554964
:100400004C443A2022302E372E32372D32332D678E
:100410003066376265382D6469727479222028301D
:10042000353A34373A303120536570203237203234
:10043000303139290A005649443A2030784645453A
:1004400044286720486561767920496E6475737425
:100450007269657329205049443A2030783133302D
:100460003728476572676F29205645523A20307801
:10047000303030310A00444553433A20514D4B202F
:100480006B6579626F617264206669726D77617203
:100490006520666F7220476572676F0A000A092D32
:1004A0002056657273696F6E202D0A000A092D208F
:1004B000436F6E736F6C65202D0A4553432F713A5D
:1004C00009717569740A000A092D204D6167696315
:1004D000202D0A443A094465627567204D6573739F
:1004E00061676520546F67676C650A583A094D610A
:1004F00074726978204465627567204D6F64652069
:10050000546F67676C65202D2053686F77206B658B
:10051000797072657373657320696E206D61747292
:10052000697820677269640A4B3A094B6579626F92
:1005300061726420446562756720546F67676C65FB
:10054000202D2053686F77206B6579707265737307
:10055000207265706F72740A4D3A0944656275675E
:10056000204D6F75736520546F67676C650A563A46
:100570000956657273696F6E0A533A095374617450
:1005800075730A433A09416374697661746520435F
:100590006F6E736F6C65204D6F64650A46312D4632
:1005A00031303A0953776974636820746F204C6165
:1005B00079657220302D392028463130203D204C7D
:1005C00030290A302D393A095377697463682074E9
:1005D0006F204C6179657220302D390A475241569F
:1005E000453A0953776974636820746F204C6179C8
:1005F000657220302028616C7465726E61746529A3
:100600000A423A094A756D7020746F20426F6F7408
:100610006C6F616465720A4553433A094A756D709F
:1006200020746F20426F6F746C6F61646572202854
:10063000616C7465726E617465290A453A0950727D
:10064000696E7420454550524F4D2053657474694E
:100650006E67730A4253504143453A09436C6561E2
:100660007220454550524F4D0A000A002575002E54
:100670006E6B726F3A20000A002575002E73776149
:10068000705F6261636B736C6173685F6261636BFF
:1006900073706163653A20000A002575002E737738
:1006A00061705F67726176655F6573633A20000A07
:1006B000002575002E6E6F5F6775693A20000A008D
:1006C0002575002E737761705F72616C745F72675D
:1006D00075693A20000A002575002E737761705FF6
:1006E0006C616C745F6C6775693A20000A0025754F
:1006F000002E737761705F7263746C5F72677569E7
:100700003A20000A002575002E737761705F6C63D4
:10071000746C5F6C6775693A20000A002575002EBD
:10072000636170736C6F636B5F746F5F636F6E7424
:10073000726F6C3A20000A002575002E7377617085
:100740005F636F6E74726F6C5F636170736C6F6305
:100750006B3A20000A0025303258006B65796D61D4
:10076000705F636F6E6669672E7261773A20000A68
:10077000002575002E6D6F7573653A20000A0025FF
:1007800075002E6B6579626F6172643A20000A0011
:100790002575002E6D61747269783A20000A002573
:1007A00075002E656E61626C653A20000A00253086
:1007B00032580064656275675F636F6E6669672EA5
:1007C0007261773A20000A002575006465666175DC
:1007D0006C745F6C617965723A20003F000A6D6F3E
:1007E0007573653A206F66660A000A6D6F757365EA
:1007F0003A206F6E0A000A6B6579626F6172643A23
:10080000206F66660A000A6B6579626F6172643AEE
:10081000206F6E0A000A6D61747269783A206F6603
:10082000660A000A6D61747269783A206F6E0A0078
:100830000A64656275673A206F66660A000A646535
:100840006275673A206F6E0A000A0A4A756D706910
:100850006E6720746F20626F6F746C6F6164657275
:100860002E2E2E2000433E2000436C656172696E7F
:100870006720454550524F4D0A006565636F6E66AF
:1008800069673A0A005B735D004B6579626F61725C
:10089000642073746172742E0A005B575D005B53B1
:1008A0005D005B525D005B445D005B435D000403E3
:1008B000300000000C0347006500720067006F0005
:1008C00000002603670020004800650061007600F4
:1008D0007900200049006E00640075007300740008
:1008E0007200690065007300000004030904090236
:1008F0005B00030100A0FA090400000103010100EC
:100900000921110100012240000705810308000AA6
:100910000904010001030000000921110100012266
:1009200036000705820320000A09040200020300C2
:100930000000092111010001222200070583032084
:10094000000107050303200001120110010000004F
:1009500008EDFE07130100010203010631FF0974CF
:10096000A1010975150026FF00952075088102096F
:1009700076150026FF00952075089102C005010933
:1009800080A10185031A81002A8300160100260335
:1009900000950175108100C0050C0901A1018504B5
:1009A0001A01002A9C02160100269C02950175106E
:1009B0008100C005010906A101050719E029E71515
:1009C00000250195087501810295017508810105D1
:1009D00007190029FF150026FF00950675088100FC
:1009E0000508190129059505750191029501750301
:1009F0009101C00011241FBECFEFDAE0DEBFCDBFF2
:100A000004B603FE27C08091FA019091FB01A091EA
:100A1000FC01B091FD018730904BA740B04BD1F461
:100A20001092FA011092FB011092FC011092FD014C
:100A300014BE84B7877F84BF0FB6F894A8958091C1
:100A40006000886180936000109260000FBEE0E05B
:100A5000F8E3099511E0A0E0B1E0EAE6F3E502C0B1
:100A600005900D92A432B107D9F721E0A4E2B1E0DC
:100A700001C01D92AA3FB207E1F70E94AE220C947A
:100A8000B3290C940000FF93EF93E0912401F091BF
:100A90002501309709F00995EF91FF910895FC0128
:100AA0008591803011F0EFDFFBCF0895FF27E0E262
:100AB00030E247FF0CC0419597FF09C0EDE2609519
:100AC000709580959095611D711D811D911D27FF69
:100AD00002C0219530E350E2AA27660F771F881FD6
:100AE000991FAA1FA41710F0A41B63955A95A9F784
:100AF000AA3008F0A95FA05DAF93F3956115710569
:100B00008105910541F7ED3211F4EF93F395F2175A
:100B100018F43F93F395FBCF8F91B5DFFA95E1F78A
:100B20000895E991F9918591803021F0853219F08D
:100B3000AADFF9CF089520E0E89455915532C1F32A
:100B4000503311F4689455915A3348F4505390F34C
:100B5000220F022E220F220F200D250FF4CF0EF4AC
:100B6000219589919991533619F3533729F15335CA
:100B700059F1BC0188279927E8945C3621F48991C2
:100B8000999168945591543639F446EF7EF077FF89
:100B90000DC08FEF9FEF0AC055374AE039F0583546
:100BA00040E121F0523642E009F00895FF93EF93BF
:100BB0007DDFEF91FF91B7CFFF93EF93FC01819120
:100BC0008030B9F360DFFBCFFF93EF9368DFF1CFA5
:100BD000DF93CF93CDB7DEB72596A3DFCF91DF911B
:100BE000089580B38D7880BB81B3826781BB0895FF
:100BF00084B114B885B1807F85B93E9846988AB192
:100C0000837F8AB98BB1837F8BB985B1806F85B9BA
:100C10000895CF93E82F873080F580910601909159
:100C20000701892B09F047C0CE2F68EE73E080E4FE
:100C30000E946B0E9093070180930601892BD1F4DB
:100C400068EE73E082E10E94C20E909307018093E8
:100C50000601892B79F481E090E001C0880FCA95E4
:100C6000EAF768EE73E080950E94C20E9093070148
:100C700080930601CF910C94170F90E0FC013797F9
:100C8000E730F105C0F4EA5AFF4F0C943E28209A51
:100C9000289811C0219A29980EC0229A2A980BC030
:100CA000239A2B9808C0529A5A9805C0539A5B9879
:100CB00002C03E9A4698CF910895CF93873008F0AE
:100CC0003FC08091060190910701892B09F043C034
:100CD00068EE73E080E40E946B0E909307018093AE
:100CE0000601892B11F0C0E027C068EE73E083E1B4
:100CF0000E94C20E9093070180930601892B99F7F9
:100D000068EE73E081E40E946B0E9093070180937C
:100D10000601892B41F788EE93E00E94F20E97FFBF
:100D200005C09093070180930601DDCFC82FC095C1
:100D300010920701109206010E94170F8C2F0CC011
:100D40009FB18FB18077869586958695969591709F
:100D5000892B809501C080E0CF9108950895089572
:100D60000C94AF060E94A80790E09093070180932F
:100D700006010E94F8050E94F105A7E2B1E0E5E353
:100D8000F1E08EE08E0F11921D928E13FCCF8EE05B
:100D90000E94000D0C9475080E94A80790E09093A3
:100DA0000701809306010E94F8050E94F105E5E322
:100DB000F1E08EE08E0F11928E13FDCF0895CF9249
:100DC000DF92EF92FF920F931F93CF93DF93809167
:100DD000060190910701892BD9F0809126018F5F40
:100DE00080932601811114C08FE591E00E944F0588
:100DF0000E94A80790E09093070180930601892B39
:100E000019F085E491E002C081E391E00E944F0572
:100E100097E2E92E91E0F92E0EE211E0C0E0D12C2C
:100E200087E0C82ECC0E8C2F0E9409068C2D0E94C4
:100E300009068C2F0E945D06F7019081981719F022
:100E40008083D1E001C0D0E08C2D0E945D06F801C6
:100E50009081981719F0808381E001C080E0D82B41
:100E6000DD2A0E94F805CF5FFFEFEF1AFF0A0F5F40
:100E70001F4FC730A9F62D2D4EE065E371E087E2E4
:100E800091E00E94720D0E947F0881E0DF91CF9176
:100E90001F910F91FF90EF90DF90CF900895E82F72
:100EA000F0E0EB5CFE4F80810895CF92DF92EF92ED
:100EB000FF920F931F93CF93DF938AE191E00E94FB
:100EC0004F0585E3E82E81E0F82EC0E0D0E095E103
:100ED000C92E91E0D92E0CE011E0DF93CF93DF9281
:100EE000CF920E94E80582E191E00E944F05F70150
:100EF00081917F0190E00E94431B9F938F931F93EA
:100F00000F930E94E8058AE091E00E944F05219628
:100F10008DB79EB708960FB6F8949EBF0FBE8DBFD3
:100F2000CE30D105D1F6DF91CF911F910F91FF9077
:100F3000EF90DF90CF9008953F988AB18F708AB973
:100F40006E98479A8BB1806F8BB9769A0C94AE06E7
:100F500089E791E00E944F0580E290E090930701BD
:100F6000809306018091430181110EC00E94650E9D
:100F700081E0809343012FEF83ED90E32150804087
:100F80009040E1F700C0000068EE73E080E40E944A
:100F90006B0E9093070180930601892B09F04EC0D8
:100FA00068EE73E080E00E94C20E90930701809388
:100FB0000601892B09F042C068EE73E080E80E94C8
:100FC000C20E9093070180930601892BB9F568EE54
:100FD00073E08FEF0E94C20E909307018093060189
:100FE000892B61F50E94170F68EE73E080E40E9480
:100FF0006B0E9093070180930601892BF9F468EE3C
:1010000073E08CE00E94C20E90930701809306016A
:10101000892BA1F468EE73E080E80E94C20E9093E1
:10102000070180930601892B49F468EE73E08FEF86
:101030000E94C20E90930701809306010E94170F31
:1010400080910601089581E0089581E008950C944F
:1010500025081F93CF93DF9300D000D01F92CDB708
:10106000DEB749835A832091610189819A812111D8
:1010700012C0662349F00E94F819182F682F898141
:101080009A810E949F1903C00E94CD19182F69816F
:101090007A81812F04C00E94F81969817A810F90AA
:1010A0000F900F900F900F90DF91CF911F910C94A4
:1010B000580AFC01408151816281738184810C94C2
:1010C00029080E94DF068FE39CE90197F1F700C031
:1010D00000000E94DF068DE00E944F0782FF04C0DF
:1010E0000E945D1B0C94341D08950E9461080E94AB
:1010F000631B811102C00E94031C0C949C070C947A
:10110000B00608950C9481080C94820808950E94FA
:10111000C5140E9486082FEF84E39CE02150804094
:101120009040E1F700C000000C94341D0F931F9312
:10113000CF93DF938C010E945908EC01B8010E9403
:101140002708882309F4A9C1B801CE010E94240E02
:10115000882309F4A2C1C631FCE5DF0739F50E94F6
:10116000781A282FF80182814091080150910901D5
:10117000882379F02A7A91E009F490E09093440171
:10118000911102C069E201C065E3CA010E943C1CE2
:101190000AC080914401811102C069E201C065E387
:1011A000CA010E943E1C0E94C41A77C1C7318CE557
:1011B000D80708F047C1C130ECE5DE07D1F4F801EB
:1011C000C281CC2309F46AC18091D201C82FC09595
:1011D000C170C0FB80F98093D201CC2329F089EE45
:1011E00092E00E944F0559C187ED92E00E944F05A1
:1011F00055C1C230FCE5DF0708F413C1F801828154
:10120000882309F411C10E94631B811102C00E944E
:10121000031C0E94761B9093E8018093E701C03184
:10122000FCE5DF0709F4BFC008F03FC0C830ECE5BB
:10123000DE0709F496C0F0F4C4308CE5D80709F451
:1012400083C068F4C230FCE5DF0709F473C0C33023
:10125000DC4509F0DDC08091E701826072C0C630D4
:10126000ECE5DE0709F46AC008F077C08091E70179
:10127000886067C0CC308CE5D80709F481C058F489
:10128000CA30FCE5DF0709F470C008F075C0809132
:10129000E701806856C0CE30ECE5DE0709F474C083
:1012A00008F07DC08091E70189C0CB3F8CE5D8076D
:1012B00009F44DC008F5C331FCE5DF0709F47BC034
:1012C00068F4C131ECE5DE0709F471C0C231DC45D8
:1012D00009F09EC08091E7018F7733C0C5318CE55E
:1012E000D80709F472C008F486C0CA3FDC4509F08B
:1012F0008FC08091E8013EC0CF3F8CE5D80709F44C
:101300005FC058F4CD3FFCE5DF0709F444C008F4A2
:101310003FC08091E80182602DC0C130EDE5DE075D
:1013200009F473C008F45DC0C230DD4509F070C037
:1013300080E06CC08091E701816003C08091E7018B
:1013400080618093E70164C08091E70111C08091C2
:10135000E80182608093E8015BC08091E7018062D0
:10136000F0CF8091E7018064ECCF8091E701886045
:101370008460E7CF8160EECF8091E7018E7FE1CF7F
:101380008091E7018D7FDDCF8091E701877FD9CF05
:101390008091E80118C08091E8018D7FDBCF8091BA
:1013A000E7018F7ECECF8091E7018F7DCACF8091FC
:1013B000E7018F7BC6CF8091E701877F8B7FC1CF0D
:1013C0008091E8018D7F8E7FC5CF8091E70182FB00
:1013D000222720F991E0922790FB82F990FB83F974
:1013E000B0CF8091E801982F909591708E7F892BD6
:1013F00090FB81F9AFCF8091E70187FB222720F98D
:1014000091E0922790FB87F99CCF81E00E94051C18
:101410008091E7019091E8010E94871B0E94C5140A
:101420003CC0C115DC4539F0C801DF91CF911F9157
:101430000F910C942308F801C281CC2379F10E940A
:1014400087082BC0CE3DECE5DE0739F4F801C281F8
:10145000CC2321F10E94031C20C0CF3DFCE5DF0717
:10146000A8F4CC3D8CE5D80731F4F801C281CC2337
:10147000A9F080E008C0CD3DDC45B1F6F801C2819D
:10148000CC2361F082E00E94562307C0CE018A5F20
:101490009C45099708F4B2CEC7CFC0E08C2FDF91EE
:1014A000CF911F910F91089580E090E008950895E5
:1014B000E72FF0E09EE0899FE00DF11D1124EE0F73
:1014C000FF1FEE0FFF1FE60FF11DEE0FFF1FE95785
:1014D000FE4F859194910895880F991FFC01E65065
:1014E000FD4F859194910895CF93DF930E94580A00
:1014F0000E94290CEC01811520E59207F0F5811579
:1015000030E4930708F024C1883E910500F5803E41
:10151000910508F09AC1883A910570F4853A9105D1
:1015200008F09FC08130910509F48FC108F440C1D3
:10153000049708F08AC13CC18F3B910508F49CC018
:10154000803C910508F434C1805C9109F4C0811598
:1015500040E2940758F4C11581E0D80708F075C13E
:10156000C03FD10508F424C1D0656FC1811520E3C7
:10157000920708F0E4C09F70DEC0811535E593073F
:1015800008F044C0811544E5940708F0F8C0C1157F
:1015900082E5D80708F5C11521E5D20708F0DBC0C0
:1015A0008C2F837021E030E002C0220F331F8A9518
:1015B000E2F73C68CE0174E0969587957A95E1F75D
:1015C0008370382BCF70C695C69580E2C89FE00126
:1015D0001124C22BD32B39C12C2F26952695CE0151
:1015E00083709927C115D34508F0BAC040E2249F03
:1015F00090011124C1E0D0E002C0CC0FDD1F8A951C
:10160000E2F72C2B3D2BE901DC681FC1811549E570
:101610009407A0F4C11588E5D80708F0B5C0C11536
:1016200026E5D20708F0C4C08C2F0E94BD0C8F7134
:10163000C82FD0E0DC2FCC27D06207C181153AE556
:10164000930708F4A6C090568115904208F0B0C0E8
:101650008D2F8F710E94BD0CDD27D0628F71D82B2A
:10166000F4C0853A910509F4A6C0863A910509F0BF
:10167000A5C0C2E8D0E4E9C0883A910509F4A1C048
:10168000893A910509F4A0C08A3A910509F49FC0EE
:101690008B3A910509F49EC08C3A910509F49DC0DE
:1016A0008B3B910509F49CC08C3B910509F49BC0D0
:1016B0008D3A910509F49AC0803B910509F499C0CF
:1016C0008E3A910509F498C08F3A910509F497C0B4
:1016D000813B910509F496C0823B910509F495C0C0
:1016E000833B910509F494C0843B910509F493C0B0
:1016F000853B910509F492C0863B910509F491C0A0
:10170000873B910509F490C0883B910509F48FC08F
:10171000893B910509F48EC08D3B910509F48DC07C
:101720008E3B910509F48CC08A3B910509F48BC06E
:10173000C0E0D4E48AC00E946C0AEC0186C09927FC
:10174000D3FF03C0EC01D86C80C0EC01D06C7DC02D
:10175000DF70D06A7AC0DC2FCC27C16FD06A75C029
:1017600040E2249F90011124C1E0D0E002C0CC0FE0
:10177000DD1F8A95E2F7C22BD32BDA6866C0D82F1B
:10178000CC27C46FD06A61C0DC2FCC27C06FD06A71
:101790005CC08F700E94BD0C94E0D695C7959A9559
:1017A000E1F7CF70D0E0DC2FCC27D069C82B4DC03B
:1017B000C0E0D0E04AC0C1E8D0E447C0C3E8D0E40C
:1017C00044C0C2EED4E441C0C9EED4E43EC0CAEE87
:1017D000D4E43BC0C5EBD4E438C0C6EBD4E435C098
:1017E000C3EBD4E432C0C4EBD4E42FC0C7EBD4E4E1
:1017F0002CC0CCECD4E429C0CDECD4E426C0C3E8A2
:10180000D5E423C0CAE8D5E420C0C2E9D5E41DC0B0
:10181000C4E9D5E41AC0C1E2D6E417C0C3E2D6E4F5
:1018200014C0C4E2D6E411C0C5E2D6E40EC0C6E2DC
:10183000D6E40BC0C7E2D6E408C0CFE6D4E405C0C6
:10184000C0E7D4E402C0CAE2D6E4CE01DF91CF9172
:1018500008958238910569F1B0F48133910509F456
:101860006DC048F48932910509F463C08A3291054C
:1018700009F469C008958533910509F455C0893389
:101880009105B9F00895833E910569F138F4803EE1
:101890009105B1F0823E910509F10895863E9105CA
:1018A000A9F1873E9105B9F1843E910509F064C024
:1018B00023C02091E70120FD4FC021FD4DC00895B8
:1018C0008091E70180FD44C08091E80180FF44C021
:1018D0008091E70184FD42C083EE4DC08091E70115
:1018E00082FF38C0F5CF8091E70182FD33C080913F
:1018F000E80180FD31C0ECCF8091E80181FF32C06A
:101900008091E70184FD2AC087EE35C08091E70110
:1019100083FF26C0F5CF8091E70183FD21C0809130
:10192000E80181FD1FC0ECCF8091E70185FD1CC05F
:101930001DC08091E70185FD19C016C08091E701A7
:1019400086FD16C017C08091E70186FD13C010C048
:1019500089E311C082EE0FC080EE0DC080E00BC0A5
:1019600086EE09C084EE07C089E205C085E303C0A6
:101970008AE201C081E390E008959091E70192FF2F
:101980000DC0282F2871283019F4877F846006C085
:10199000282F2471243011F48B7F886093FF0DC0B1
:1019A000282F2871283119F4877E846106C0282FDA
:1019B0002471243111F48B7E88612091E80120FF8D
:1019C0000DC0382F3871383019F4877F816006C018
:1019D000382F3171313011F48E7F886021FF0DC0B6
:1019E000282F2871283119F4877E816106C0282F9D
:1019F0002171213111F48E7E886194FD877E0895D6
:101A0000CF93C82F90E00E94442880934601909382
:101A10004701282FFC019BEF8E2F821B8C1710F49F
:101A20009193FACFCF9108950F931F93CF93DF93A4
:101A30001092450150914601E52FF091470140E099
:101A4000A62FB0E07BEFCAEFD0E09E2F951B981732
:101A5000D0F490819B3FA9F0292F30E0691728F03E
:101A60008D01021B130B980106C08E01021B130B84
:101A700098012A0F3B1F2530310514F0708301C0F7
:101A800041E03196E2CF40934501DF91CF911F9124
:101A90000F910895CF93DF93109248015091460122
:101AA00030914501DB01EC01E52FF091470190E019
:101AB0008E2F851B841778F489916C91681741F0FB
:101AC00060816B3F21F420838C9331E001C091E071
:101AD00031961196EDCF3093450190934801DF91F7
:101AE000CF910895DF92EF92FF920F931F93CF93C0
:101AF000DF9300D0CDB7DEB78C017B01D22E4A83B5
:101B00000E94CC1C6AEF70E00E942A28282F809146
:101B100045014A81882341F1622F842F29830E9445
:101B2000140D29814A81DD2069F0B701C8010F90A9
:101B30000F90DF91CF911F910F91FF90EF90DF9069
:101B40000C944A0D80914501882379F380914801D6
:101B50008111EBCF0F900F90DF91CF911F910F91DB
:101B6000FF90EF90DF900895DD2081F3DECF0F939B
:101B70001F93CF93DF93C62FD42F022FFC018281B6
:101B80008823C9F060934B010E94CC1C90934A01BA
:101B90008093490180E28C0F883008F050C0C770F4
:101BA00081E001C0880FCA95EAF7DF91CF911F91BC
:101BB0000F910C94621210914B01161330C080915A
:101BC000490190914A010E94E41C883C910538F536
:101BD000C0E2CD0F1D17B9F080E2810F883040F4CC
:101BE000177081E001C0880F1A95EAF70E94691208
:101BF000C83048F481E09D2F977001C0880F9A95F6
:101C0000EAF70E946212802F0E944F12C830B8F487
:101C1000D77081E001C0880FDA95EAF70AC080E248
:101C20008C0F883060F4C77081E001C0880FCA95BE
:101C3000EAF7DF91CF911F910F910C946912DF9118
:101C4000CF911F910F9108959C01CB01233F4CE54B
:101C50003407F9F078F4283DFCE53F07B9F0293D59
:101C60004CE5340711F1273D3C4531F526E241EEC4
:101C700061EE1EC0253FFCE53F0799F070F0263F5E
:101C80003C45D1F427E245EE66EE12C027E245EE70
:101C90000EC026E241EE60EE0BC027E245EE64EE98
:101CA00007C026E241EE62EE03C028E241E065EEA5
:101CB0000E94B70D80E00895FC018281882319F00D
:101CC00010924B01089581E008951092B9008CE0C4
:101CD0008093B8000895EF92FF920F931F93CF93D4
:101CE000DF93182FEB011092BC0084EA8093BC00B4
:101CF0000E94CC1C7C019091BC0097FD0EC0CF3F90
:101D00008FEFD807C1F30E94CC1C8E199F098C1746
:101D10009D0788F38EEF9FEF2EC09091B900987FBA
:101D2000983041F09091B900987F903119F08FEF81
:101D30009FEF21C01093BB0084E88093BC000E94F9
:101D4000CC1C8C019091BC0097FD0CC0CF3F8FEF55
:101D5000D807C1F30E94CC1C801B910B8C179D07E8
:101D600088F3D8CF8091B900887F883111F0803412
:101D7000F1F680E090E0DF91CF911F910F91FF90FD
:101D8000EF9008950F931F93CF93DF93EB01809310
:101D9000BB0084E88093BC000E94CC1C8C01909115
:101DA000BC0097FD0EC0CF3F8FEFD807C1F30E9454
:101DB000CC1C801B910B8C179D0788F38EEF9FEF37
:101DC0000CC02091B900287F81E090E0283211F406
:101DD00080E090E0919581959109DF91CF911F91DD
:101DE0000F9108950F931F93CF93DF93EC0184E835
:101DF0008093BC000E94CC1C8C019091BC0097FD8C
:101E00000EC0CF3F8FEFD807C1F30E94CC1C801BC0
:101E1000910B8C179D0788F38EEF9FEF03C0809185
:101E2000BB0090E0DF91CF911F910F91089584E95D
:101E30008093BC00089590935101809350010895C0
:101E4000E0915001F0915101309721F00190F08123
:101E5000E02D099480E00895EF92FF920F931F9375
:101E6000CF93DF93E0915001F09151013097B1F1A0
:101E70008C010280F381E02D09958091D20182FFCF
:101E80002DC080FF04C082E093E00E944F05E8016E
:101E900018E08CEFE82E82E0F82E8091D20180FFCE
:101EA0000BC088811F928F93FF92EF920E94E805EA
:101EB0000F900F900F900F90115021961111EDCFB0
:101EC0008091D20180FF0AC08AEF92E0DF91CF912A
:101ED0001F910F91FF90EF900C944F05DF91CF91E0
:101EE0001F910F91FF90EF90089520914E01309136
:101EF0004F018217930771F090934F0180934E0129
:101F0000E0915001F0915101309721F00680F78166
:101F1000E02D0994089520914C0130914D018217D4
:101F2000930771F090934D0180934C01E091500123
:101F3000F0915101309721F00084F185E02D099452
:101F4000089585B7806885BF85B7806885BF089587
:101F5000089508950C94A90F08950C94AC0F0E9455
:101F6000A10F0E94A80F0C94AA0F81E008950E946F
:101F7000C31C0E94B2060E94581D0C94AD0FCF9353
:101F8000C82F8091D20182FF1EC080FF04C08BE168
:101F900093E00E944F058091D20180FF0CC01F92F8
:101FA000CF9386E193E09F938F930E94E8050F9073
:101FB0000F900F900F908091D20180FF04C084E1B8
:101FC00093E00E944F058C2FCF910C948408CF9200
:101FD000DF92EF92FF920F931F93CF93DF93CDB7D2
:101FE000DEB72B970FB6F894DEBF0FBECDBF0E94B1
:101FF000DF060E94B50F811111C08FEF89838A839C
:102000001B820E94CC1C8160782F9D838C83498128
:102010005A816B818D810E948D1056C083E5C82E38
:1020200081E0D82E00E010E0E02E802F0E944F07C4
:10203000F60141916F01F42EF82631F40F5F1F4F26
:102040000E30110589F7D9CF9091D20191FF04C0CC
:102050008B870E9455078B8520E030E04F2D50E0A4
:10206000922FBA01022E02C0759567950A94E2F785
:1020700060FF24C02E83EF8221E030E0690102C0BE
:10208000CC0CDD1C9A95E2F790E08C219D21892BE8
:1020900009F420E028870E94CC1C8160782F9A8761
:1020A00089874E815F8168858A850E948D10F8013D
:1020B000ED5AFE4F8081C826C08206C02F5F3F4F79
:1020C0002430310569F6BACF109152010E94200FD9
:1020D0001817A1F00E94200F809352012B960FB683
:1020E000F894DEBF0FBECDBFDF91CF911F910F914E
:1020F000FF90EF90DF90CF900C94BF0F2B960FB610
:10210000F894DEBF0FBECDBFDF91CF911F910F912D
:10211000FF90EF90DF90CF900895CF93DF93CDB7EE
:10212000DEB72B970FB6F894DEBF0FBECDBF4F833F
:10213000588769877A878B87DE01119686E0FD01D3
:1021400011928A95E9F785E0FE01379601900D928C
:102150008A95E1F749815A816B817C818D819E81CD
:102160000E946F172B960FB6F894DEBF0FBECDBF3F
:10217000DF91CF910895FC01808191810E94391AED
:102180000895CF93DF931F92CDB7DEB7882309F46C
:1021900023C1682F8238C1F40E94200F81FD1CC129
:1021A00069E380910801909109010E943C1C0E9402
:1021B000C41A2FEF81EE94E0215080409040E1F767
:1021C00000C0000069E319C0833811F50E94200F98
:1021D00080FD02C163E580910801909109010E9490
:1021E0003C1C0E94C41A2FEF81EE94E021508040E5
:1021F0009040E1F700C0000063E5809108019091F4
:1022000009010E943E1C0F90DF91CF910C94C41ADB
:102210008438C1F40E94200F82FDDEC067E4809103
:102220000801909109010E943C1C0E94C41A2FEFE2
:1022300081EE94E0215080409040E1F700C0000022
:1022400067E4DBCF8CEF860F813A70F4862F6983C9
:102250000E941D2069818111BFC080910801909169
:1022600009010E943C1CCFCF80E2860F883048F4E1
:10227000677081E001C0880F6A95EAF70E947B1AB7
:10228000C2CF8BE5860F833088F4653A29F0663A31
:1022900031F083E890E005C081E890E002C082E878
:1022A00090E00F90DF91CF910C94750F88E5860F29
:1022B000873108F091C0683A09F445C0693A09F4D9
:1022C00045C06A3A09F445C06B3A09F445C06C3A16
:1022D00009F445C06B3B09F445C06C3B09F445C0AB
:1022E0006D3A09F445C0603B09F445C06E3A09F403
:1022F00045C06F3A09F445C0613B09F445C0623BF3
:1023000009F445C0633B09F445C0643B09F445C08A
:10231000653B09F445C0663B09F445C0673B09F4D9
:1023200045C0683B09F445C0693B09F445C06D3BB5
:1023300009F445C06E3B09F445C06A3B09F445C049
:1023400080E090E044C082EE90E041C089EE90E0F1
:102350003EC08AEE90E03BC085EB90E038C086EB53
:1023600090E035C083EB90E032C084EB90E02FC06A
:1023700087EB90E02CC08CEC90E029C08DEC90E0D5
:1023800026C083E891E023C08AE891E020C082E97A
:1023900091E01DC084E991E01AC081E292E017C08B
:1023A00083E292E014C084E292E011C085E292E000
:1023B0000EC086E292E00BC087E292E008C08FE692
:1023C00090E005C080E790E002C08AE292E00F90C2
:1023D000DF91CF910C948B0F0F90DF91CF910895E7
:1023E000882309F45BC0682F823879F40E94200F9B
:1023F00081FF54C069E380910801909109010E9416
:102400003C1C0E94C41A69E310C08338B1F40E94D6
:10241000200F80FF43C063E580910801909109017E
:102420000E943C1C0E94C41A63E5809108019091AF
:1024300009010E943E1C0C94C41A843879F40E944D
:10244000200F82FF2BC067E4809108019091090161
:102450000E943C1C0E94C41A67E4E7CF8CEF860FF1
:10246000813A18F380E2860F883048F4677081E083
:1024700001C0880F6A95EAF70E94811ADCCF8BE5CC
:10248000860F833020F480E090E00C94750F685A3A
:10249000673120F480E090E00C948B0F0895CF9387
:1024A000C82F0E94C110C93349F42FEF87EE93E083
:1024B000215080409040E1F700C000008C2FCF9168
:1024C0000C94F011882321F00E947B1A0C94C41AFA
:1024D0000895882321F00E94811A0C94C41A08954B
:1024E000BF92CF92DF92EF92FF920F931F93CF9301
:1024F000DF937C01062FC72FFC01158112951F70F9
:10250000D281D1110E94981A0E94711A882379F001
:10251000DD2369F080E2800F883048F082E00E947D
:102520000F1B0E94711A91E0B82EB92601C0B12C80
:10253000CC2EC2948FE0C822D12CF601E35AFF4F73
:102540000C943E288C2F807FCF70882311F0C29589
:10255000C07FDD2399F0CC2309F484C180E2800F91
:10256000883010F0011104C08C2F0E947B1A03C028
:102570008C2F0E948B1A0E94C41A74C1802F0E9453
:10258000F011CC2309F493C180E2800F883010F061
:10259000011104C08C2F0E94811A03C08C2F0E944D
:1025A000911A0E94C41A83C18C2F807FCF70803211
:1025B00011F0C295C07F002319F00130C9F024C08A
:1025C000DD2371F0112341F0113031F40E94AB1A78
:1025D0008C2B0E94B11A6BC10E94AB1A8C2B0EC0BF
:1025E000112319F0113009F462C10E94BA1A1EC0F9
:1025F000DD2339F0123008F05AC18C2F0E9462128C
:1026000056C1111154C112C0DD2319F01123A9F3D1
:1026100029C1112359F0093309F035C1FFEF27EE25
:1026200083E0F15020408040E1F72BC18C2F0E94C5
:1026300069123DC18C2F86958695837090E0009736
:1026400019F0019761F033C1DD2321F0802F9C2F19
:10265000937002C080E090E00E94750F33C1DD23CB
:1026600021F0802F9C2F937002C080E090E00E94A8
:102670008B0F28C18C2F837009F049C0D1111EC166
:10268000402F429546954770440F440F602F6F705E
:10269000862F90E0A0E0B0E0042E04C0880F991FC0
:1026A000AA1FBB1F0A94D2F704FF10C00FE010E06E
:1026B00020E030E004C0000F111F221F331F4A9595
:1026C000D2F7009510952095309503C000E010E0FA
:1026D0009801C695C695C370D0E0BC01CD01602BB2
:1026E000712B822B932BC230D10559F0C330D10509
:1026F00059F0219719F00E94B418E0C00E94A21866
:10270000DDC00E94C618DAC00E94A018D7C0DD2321
:1027100019F08C2F817001C08695882309F4CEC0F2
:10272000402F429546954770440F440F602F6F70BD
:10273000862F90E0A0E0B0E0042E04C0880F991F1F
:10274000AA1FBB1F0A94D2F704FF10C00FE010E0CD
:1027500020E030E004C0000F111F221F331F4A95F4
:10276000D2F7009510952095309503C000E010E059
:102770009801C695C695C370D0E0BC01CD01602B11
:10278000712B822B932BC230D10559F0C330D10568
:1027900059F0219719F00E947A1990C00E94681987
:1027A0008DC00E948C198AC00E94DB1887C0CF7030
:1027B000DD2339F08C2F0E940119802F0E946212B4
:1027C0007DC0802F0E9469128C2F0E94221976C032
:1027D000023FF9F028F4003F41F0013F99F03EC07C
:1027E000033FF1F0043F31F139C0DD2339F011111D
:1027F0005EC08C2F8F710E94471959C0123008F0AB
:1028000056C0F7CFDD2339F08C2F8F710E9401194C
:102810004EC0DD23C9F38C2F8F710E94221947C04F
:10282000DD2329F08C2F8F710E94EC1840C00E948C
:10283000E7183DC0DD2349F0CF718C2F0E940119AC
:1028400063E08C2F0E94FA1A32C081E00E940F1BB5
:10285000123068F182E00E940F1B29C0DD2331F0A5
:10286000112391F2802F0E94C11021C0112399F2EF
:10287000093349F49FEFE7EEF3E09150E040F04078
:10288000E1F700C00000802F0E94F01110C04C2F13
:102890004F70602FC7010E94540A0E94131812C083
:1028A0004C2F4F70602FC7010E94570A0BC028E0C1
:1028B000C21AD10884E0C816D10420F40E94200F67
:1028C0000E948408BB20D1F00E946D1A80FD16C0C2
:1028D000F70112820E94671A0E940119C7010E9423
:1028E00088140E94671ADF91CF911F910F91FF907A
:1028F000EF90DF90CF90BF900C942219DF91CF9191
:102900001F910F91FF90EF90DF90CF90BF900895AF
:102910000F931F93CF93DF93EC01888199812B81D3
:102920003C81232BB9F09F3F11F48F3F99F0CE01EA
:102930000E949608882371F0688179818A810E94BB
:10294000441A8C010E949E190E949F18B801CE0162
:102950000E947012DF91CF911F910F9108950E94F4
:10296000981A0E94A81A0E94C41A80E090E00E945F
:10297000750F80E090E00C948B0F8091080190918E
:1029800009010E94401C0C94AF140E94881A0C94F8
:10299000BD14E92FE295EF70F0E03297EE30F105CB
:1029A000B0F4E359FF4F0C943E28803F91F018F4A7
:1029B000883E68F40EC0843F51F40BC0883E48F056
:1029C000813F29F406C093FB882780F9089580E0B1
:1029D000089581E008950E94391A0E94C91408954B
:1029E000CF93DF9300D000D01F92CDB7DEB70F900A
:1029F0000F900F900F900F90DF91CF910895CF938C
:102A0000DF9300D000D000D0CDB7DEB726960FB64A
:102A1000F894DEBF0FBECDBFDF91CF9108951F9315
:102A2000CF93DF93C091620116E080916301C817D4
:102A300099F0D0E01C9FF0011D9FF00D1124EC597E
:102A4000FE4F4081518162817381848195810E9412
:102A5000FF142196C770E9CFDF91CF911F910895A0
:102A60004091940150919501609196017091970168
:102A700080919801909199010C94FF148091990193
:102A800082958F7009F054C080919601882309F4D3
:102A90004FC080916201A091630160919401709197
:102AA00095014091970150919801B6E08A1709F479
:102AB0003FC090E041155105C1F17F3F11F46F3FD8
:102AC000A1F1B89FF001B99FF00D1124EC59FE4F10
:102AD000218172132AC02081621327C02281211113
:102AE00024C0238134812417350710F42150310983
:102AF000241B350B283C3105C0F4209199012F701F
:102B000020612093990126E0289FF001299FF00D74
:102B10001124E759FE4F80818F708061808384E9A2
:102B200091E00E9488140C940F1501968770BECF17
:102B30000895CF92DF92EF92FF920F931F93CF935E
:102B4000DF93CDB7DEB762970FB6F894DEBF0FBE46
:102B5000CDBF8C0185E0F801DE011D9601900D923C
:102B60008A95E1F7D8014C9111965C9111971296D4
:102B70006C9112971396CD90DC901497309194013C
:102B8000709195018091970190919801009709F4B7
:102B90006BC17F3F19F43F3F09F466C1E090960195
:102BA000EE2009F4C0C020919901C816D90628F07A
:102BB000F601E81BF90BCF0104C0809590958C0DB0
:102BC0009D1DFF24F394883C910578F0F12C207F23
:102BD00009F0C6C07C2DD98AC88A89890E94F01460
:102BE00084E991E00E948814B1C0822F807F09F0AF
:102BF00046C0751314C0341312C0611110C02F7079
:102C00002061209399010E94301584E991E00E948F
:102C1000881480919901D80115968C932EC0CD28E7
:102C200019F15F3F11F44F3FF9F0F62E61111CC00E
:102C3000809162012091630136E0821709F45AC045
:102C400090E0389FF001399FF00D1124EC59FE4FB0
:102C50007181571306C07081471303C072817111CF
:102C600003C001968770E9CFF62E662309F427C1C9
:102C700080919901816080939901F12C20C1751395
:102C800008C0341306C0611104C080919901D801B5
:102C9000C3C04D875E878D859E856A8B0E94EB142D
:102CA0006A898823E1F16623D1F120919901822F6D
:102CB00082958F7090E0029774F0809194019091CA
:102CC000950198878F831986DB86CA862C87CE016B
:102CD00007960E94881486E0F801A4E9B1E001900B
:102CE0000D928A95E1F70E943E150E943015FF244F
:102CF000F394E5C04D875E878D859E850E94391AC5
:102D0000292F22952F7030E0223031050CF0CBC0F6
:102D10009F7009F0C5C0805E883008F4D0C0C8013B
:102D20000E948814E4CFC816D90608F453C0F601EF
:102D3000E81BF90BCF01883C910508F450C0F12C39
:102D40007C2DD98AC88A89890E94F014E4E9F1E0CF
:102D500086E0DF011D928A95E9F70E943015AFC029
:102D6000751314C0341312C0611110C08091990101
:102D7000F8018583C8010E94881486E0E4E9F1E047
:102D8000DF011D928A95E9F7FE2C99C04D875E8779
:102D90008D859E856A8B0E94EB146A89882309F4CD
:102DA000BECF662309F4BBCF20919901822F829573
:102DB0008F7090E002970CF48ECF809194019091E7
:102DC00095019A8389831B82DD82CC822E83CE017A
:102DD00001967FCF809590958C0D9D1DACCFF62EE2
:102DE000662309F49CCF75132EC034132CC0209198
:102DF000990120FD1FC0822F82958F70D9F0D801D4
:102E000015962C9315978F3049F08F5F982F9295D8
:102E1000907F822F8F70892B15968C93C8010E940A
:102E2000881486E0F801A4E9B1E001900D928A953A
:102E3000E1F793CF86E0F801A4E9B1E001900D92AB
:102E40008A95E1F73CC04D875E878D859E850E94FF
:102E5000EB14811140CF8091990181608093990199
:102E6000C8010E9488142BC0662309F458CF4D87EF
:102E70005E878D859E850E94EB14F82E882309F4C9
:102E80004ECF86E0F801A4E9B1E001900D928A9559
:102E9000E1F784E991E00E94BB100E943E155DCFEE
:102EA000811139CF0CC0243031050CF038CF9F7020
:102EB00009F431CFF8019581907F09F02CCF8F2D47
:102EC00062960FB6F894DEBF0FBECDBFDF91CF91F3
:102ED0001F910F91FF90EF90DF90CF9008951F9377
:102EE000CF93DF93CDB7DEB72C970FB6F894DEBF44
:102EF0000FBECDBF4F83588769877A878B879C87A2
:102F0000CE0107960E949915882369F08F819885D4
:102F10002A853B85232BF1F19F3F09F063C08F3F4A
:102F200009F060C037C086E0FE013796DE011196D9
:102F300001900D928A95E1F76F817885EA85FB858E
:102F4000309741F17F3F11F46F3F21F120916301F0
:102F500030E0C9010196877099274091620150E0E5
:102F60008417950709F447C069837A83FD83EC834E
:102F700096E0929FD001939FB00D1124AC59BE4FA3
:102F8000FE01319601900D929A95E1F780936301CD
:102F90000E940F1516E080916201909163018917DC
:102FA000C1F1189FC00111248C599E4F0E949915A0
:102FB000882379F1E09162011E9FF0011124EC5900
:102FC000FE4F4081518162817381848195810E948D
:102FD000FF148091620190E0019687709927809399
:102FE0006201D9CF4F81588569857A858B859C850B
:102FF0000E94FF14CFCF0E94C5141092630110925B
:103000006201E4E9F1E086E0DF011D928A95E9F7CB
:10301000C1CF2C960FB6F894DEBF0FBECDBFDF91A7
:10302000CF911F910895EF92FF920F931F93CF932B
:10303000DF938C01892B09F46CC0F12CEE24E3940E
:10304000E8012196F8018491843740F4843008F037
:1030500051C0813081F0823019F15BC0853709F4AD
:1030600044C0A8F19CE7980F903708F052C08F77C2
:103070000E94F01141C00E5F1F4FFE01C49180E21B
:103080008C0F883048F4C7708E2D01C0880FCA9508
:10309000EAF70E949B1A14C08C2F0E94C1102DC009
:1030A0000E5F1F4FFE01C49180E28C0F883058F4F0
:1030B000C7708E2D01C0880FCA95EAF70E94A11A29
:1030C0000E94C41A1AC08C2F0E94F01116C00E5F05
:1030D0001F4FFE01C491CC2381F08FE99FE001973F
:1030E000F1F700C00000C150F6CF0E5F1F4FFE0188
:1030F000F49003C00E94C1108E018F2D882309F423
:103100009FCFEFE9FFE03197F1F700C00000815059
:10311000F5CFDF91CF911F910F91FF90EF90089520
:1031200008950C9490180E9491186093C1017093B7
:10313000C2018093C3019093C4010C94AF1408950D
:103140000C9493180F931F930091C1011091C20129
:103150002091C3013091C401602B712B822B932BE2
:103160001F910F910C9493180F931F930091C1011D
:103170001091C2012091C3013091C40160237123D9
:10318000822393231F910F910C9493180F931F93F5
:103190000091C1011091C2012091C3013091C4017D
:1031A00060277127822793271F910F910C94931802
:1031B00008950C94D8180E94D9186093BD0170939B
:1031C000BE018093BF019093C0010C94AF1460E0E6
:1031D00070E0CB010C94DB180F931F9341E050E09B
:1031E00060E070E08A019B0104C0000F111F221FE4
:1031F000331F8A95D2F7C901B8011F910F910C9422
:10320000DB180F931F9341E050E060E070E004C0D2
:10321000440F551F661F771F8A95D2F78091BD0115
:103220009091BE01A091BF01B091C0018A019B01A4
:10323000082B192B2A2B3B2BC901B8011F910F9189
:103240000C94DB180F931F9341E050E060E070E0B6
:1032500004C0440F551F661F771F8A95D2F740950B
:103260005095609570958091BD019091BE01A0919F
:10327000BF01B091C0018A019B01082319232A23B1
:103280003B23C901B8011F910F910C94DB180F93D8
:103290001F9341E050E060E070E004C0440F551F10
:1032A000661F771F8A95D2F78091BD019091BE016C
:1032B000A091BF01B091C0018A019B010827192785
:1032C0002A273B27C901B8011F910F910C94DB18E5
:1032D0000F931F930091BD011091BE012091BF017A
:1032E0003091C001602B712B822B932B1F910F917A
:1032F0000C94DB180F931F930091BD011091BE0138
:103300002091BF013091C001602371238223932358
:103310001F910F910C94DB180F931F930091BD0127
:103320001091BE012091BF013091C001602771272B
:10333000822793271F910F910C94DB180895990F02
:10334000990F890FA82FA695A695A695877051E08D
:1033500001C0550F8A95EAF785E0A89FD001112496
:1033600020E030E070E0F901EA0FFB1FE656FE4F67
:103370004081CB01022E02C0969587950A94E2F710
:1033800081709927819584278523842780832F5FE7
:103390003F4F2530310539F70895990F990F890F5F
:1033A000682F669566956695982F977085E0689F5B
:1033B000B001112440E050E080E0FA01E60FF71F71
:1033C000E656FE4F208130E0092E02C03695279543
:1033D0000A94E2F721703327042E01C0220F0A94C9
:1033E000EAF7822B4F5F5F4F4530510531F7089563
:1033F000BF92CF92DF92EF92FF920F931F93CF93E2
:10340000DF938C01C090C101D090C201E090C30154
:10341000F090C4018091BD019091BE01A091BF01C7
:10342000B091C001C82AD92AEA2AFB2ACFE1D0E00C
:10343000D701C6010C2E04C0B695A7959795879520
:103440000A94D2F780FF07C0BC2EB8018C2F0E94CF
:10345000740A019719F4219758F7B12C8B2DDF913D
:10346000CF911F910F91FF90EF90DF90CF90BF9081
:103470000895CF93DF93EC010E94F819BE010E94DA
:10348000740ADF91CF9108951F93CF93DF93EB01DF
:1034900090916101992321F0CB010E94391A13C048
:1034A000882349F0CB010E94F819182F682FCE010C
:1034B0000E949F1904C0CB010E94CD19182FBE0194
:1034C000812F0E94740ADF91CF911F9108958091FE
:1034D000C50185958595859508958091C50187706D
:1034E00008959091C501977081E009F480E00895F6
:1034F0008091D10108959091D101892B8093D101C0
:10350000089580959091D10189238093D1010895E8
:103510001092D10108959091D001892B8093D00110
:10352000089580959091D00189238093D0010895CA
:103530001092D00108959091CF01892B8093CF01F3
:10354000089580959091CF0189238093CF010895AC
:103550001092CF0108958091C601089508950C94AA
:10356000AE1A9091C601981721F08093C6010C9471
:10357000AF1A08958091C601882329F01092C601E0
:1035800080E00C94AF1A0895E0910801F0910901D0
:103590008091D1018083E0910801F091090190812F
:1035A0008091D001892B8083E0910801F09109017D
:1035B00090818091CF01892B80838091C6018823DF
:1035C00081F0E0910801F09109019081892B8083BD
:1035D00080910801909109010E940A1C81110E94AA
:1035E000BA1A80910801909109010C942C0F08954A
:1035F0000C94F71A98E0899F90011124262B2093B0
:10360000C5010E9401198091C50185958595859513
:103610000C94F81A1092C50180E00C94F81A2091CD
:10362000C501809582238093C501982F977079F406
:1036300030E0482F082E000C550B2417350739F0C1
:103640008595859585950E9422190C940A1B0895ED
:10365000909325018093240108958295982F9C7C56
:10366000392F36953695282F237344E0249FC001C7
:103670001124932F982B292F2A7A2695892F857527
:10368000880F822B08951F93CF93DF931F92CDB79E
:10369000DEB799830E942D1B182F9981892F0E94D4
:1036A0002D1B212F30E0322F2227A901482BCA01E0
:1036B0000F90DF91CF911F9108956FEF7FEF80E022
:1036C00090E00C949D2980E090E00E94792921E00F
:1036D0008C3E9E4F09F020E0822F089582E090E01A
:1036E0000C94712983E090E00C947129CF9384E0CD
:1036F00090E00E947129C82F81E290E00E94712918
:103700002C2F30E0A901582BCA01CF910895CF93F7
:10371000C92F682F84E090E00E947F296C2F81E2FE
:1037200090E0CF910C947F29AB01BC018FE090E039
:103730000C949129AB01BC0183E190E00C94912998
:1037400060E070E0CB010C949A1B60E070E0CB016C
:103750000E94941B0C94A01B6CEE7EEF80E090E026
:103760000E949D2960E082E090E00E947F2960E055
:1037700083E090E00E947F291092C1011092C20163
:103780001092C3011092C40160E084E090E00E94B6
:103790007F2960E081E290E00E947F2960E085E07F
:1037A00090E00E947F2960E086E090E00E947F29FF
:1037B0006FEF87E090E00E947F2940E050E0BA017F
:1037C00088E090E00E94912960E08DE090E00E9406
:1037D0007F2940E050E0BA0188E190E00E94912901
:1037E00060E087E190E00E947F2940E050E0BA016C
:1037F0008CE190E00E94912960E080E290E00E94DC
:103800007F290C94A51B0C94AC1B682F8EE090E0D4
:103810000C947F29FC01329697E080E0915029F0CA
:1038200021912223D9F38F5FF9CF08959C01FC01E8
:1038300032969FEF80E04191461789F09F3F19F43F
:10384000411101C0982F8F5F8630A9F79F3F39F053
:10385000F901E90FF11D97FDFA9562830895089526
:10386000FC01329608962081261301C01082319601
:10387000E817F907C1F708950C94161C0C94301C36
:10388000029626E0FC0111922A95E9F70895089521
:103890000C94471C0E94481C8091ED01843049F132
:1038A0001092D30120E488E190E00FB6F894A89537
:1038B000809360000FBE2093600080E00E94840827
:1038C0000E94481C83B7817F846083BF83B7816077
:1038D00083BF7894889583B78E7F83BF0FB6F894A3
:1038E000A8958091600088618093600010926000CC
:1038F0000FBE08950895CF930E94CC060E94DF0664
:103900000E947A1CC0E08C2F0E944F07811104C0D6
:10391000CF5FCE30C1F701C081E0CF910895089507
:103920000C948F1C0E94C5140E94200F0E948408D2
:103930000C94901C1F920F920FB60F9211248F932C
:103940009F93AF93BF938091D301811113C0809156
:10395000E3019091E401A091E501B091E601419667
:10396000A11DB11D8093E3019093E401A093E501B3
:10397000B093E601BF91AF919F918F910F900FBED1
:103980000F901F90189582E084BD93E095BD9AEF4B
:1039900097BD80936E0008952FB7F8948091E3014E
:1039A0009091E401A091E501B091E6012FBF089547
:1039B0002FB7F8946091E3017091E4018091E501E3
:1039C0009091E6012FBF0895CF92DF92EF92FF9280
:1039D0000F931F932FB7F8944091E3015091E401A6
:1039E0006091E5017091E6012FBF6A017B01EE2431
:1039F000FF248C0120E030E0C016D106E206F30679
:103A000010F4415051099A01281B390BC9011F912B
:103A10000F91FF90EF90DF90CF90089578941F92D0
:103A20000F920FB60F9211248F939F93AF93BF9372
:103A30008091E3019091E401A091E501B091E6014C
:103A40000196A11DB11D8093E3019093E401A09321
:103A5000E501B093E601BF91AF919F918F910F90D7
:103A60000FBE0F901F90189581E08093E00080E2D8
:103A70008093D8001092C9008FE19EE40197F1F77E
:103A800000C0000087E090EBDC018093FA01909386
:103A9000FB01A093FC01B093FD019CE088E10FB60F
:103AA000F894A895809360000FBE90936000FFCFBC
:103AB0000E94631B811102C00E94031C0E946E1BA6
:103AC0008093D2010E94761B9093E8018093E701D6
:103AD0000E94721B682F70E080E090E00C94A018A8
:103AE000CF93C82F1F928F9384E393E09F938F937C
:103AF0000E94E80581E090E0A0E0B0E0BC01CD01CB
:103B000004C0660F771F881F991FCA95D2F70E94BD
:103B1000A0180F900F900F900F90CF910C94C51498
:103B2000CF93DF938B3109F4F9C108F08FC18B304B
:103B300009F4B2C108F065C1863009F4B0C120F4BF
:103B4000853009F4BEC16CC2873009F4CCC188301D
:103B500009F066C28AE798E00E944F058BEC97E077
:103B60000E944F050E94721B1F928F9388EC97E072
:103B70009F938F930E94E80586EC97E00E944F0583
:103B80000E946E1BC82F83EB97E00E944F051F9287
:103B9000CF938EEA97E09F938F930E94E8058CEA7B
:103BA00097E00E944F0582EA97E00E944F058C2F14
:103BB00081701F928F938FE997E09F938F930E945C
:103BC000E8058DE997E00E944F0583E997E00E94A0
:103BD0004F05C1FB882780F91F928F9380E997E0FA
:103BE0009F938F930E94E8058EE897E00E944F050F
:103BF00082E897E00E944F05C2FB882780F91F9258
:103C00008F938FE797E09F938F930E94E8058DE74E
:103C100097E00E944F0584E797E00E944F05C3FBA1
:103C2000CC27C0F91F92CF9381E797E09F938F93A2
:103C30000E94E8058FE697E00E944F050E94761BE0
:103C4000EC018BE597E00E944F05DF93CF9386E56B
:103C500097E09F938F930E94E80584E597E00E9488
:103C60004F058BE397E00E944F058C2F81701F92C8
:103C70008F9388E397E09F938F930E94E8058DB719
:103C80009EB780960FB6F8949EBF0FBE8DBF86E399
:103C900097E00E944F058FE197E00E944F05C1FB1E
:103CA000882780F91F928F938CE197E09F938F93E1
:103CB0000E94E8058AE197E00E944F0588E097E0BE
:103CC0000E944F058D2F81701F928F9385E097E0A2
:103CD0009F938F930E94E80583E097E00E944F0531
:103CE00081EF96E00E944F05D695D1701F92DF9329
:103CF0008EEE96E09F938F930E94E8058CEE96E0FF
:103D00000E944F058AED96E00E944F05C2FB88276E
:103D100080F91F928F9387ED96E09F938F930E9477
:103D2000E80585ED96E00E944F0583EC96E00E9441
:103D30004F05C3FB882780F91F928F9380EC96E094
:103D40009F938F930E94E8058EEB96E00E944F05AB
:103D500084EB96E00E944F05C4FB882780F91F92F0
:103D60008F9381EB96E09F938F930E94E8058FEAF3
:103D700096E00E944F058DE996E00E944F05C5FB35
:103D8000882780F91F928F938AE996E09F938F93FB
:103D90000E94E80588E996E00E944F058CE796E0CE
:103DA0000E944F05C6FB882780F91F928F9389E7F1
:103DB00096E09F938F930E94E8058DB79EB78096FB
:103DC0000FB6F8949EBF0FBE8DBF87E796E00E94A6
:103DD0004F058FE696E00E944F05C7FBCC27C0F940
:103DE0001F92CF938CE696E09F938F930E94E805F5
:103DF0008AE696E00E944F050F900F900F900F906B
:103E000049C0803109F4B4C020F48E3009F49AC05E
:103E100007C1863109F4C7C0893109F001C18DE9B4
:103E200094E00E944F0586E794E00E944F0586E3E8
:103E300094E00E944F058DEF93E00E944F0580EDC6
:103E400093E00E944F0582EA93E08FC08A32E1F04E
:103E500060F4873209F4E0C028F48E3108F4E0C041
:103E60008D51DBC0893269F1DBC0833448F48A3379
:103E700008F0D0C0853309F4CFC0883369F0D0C0D2
:103E8000833409F4C9C0CCC089E698E00E944F058C
:103E90000E94031CC1E0C9C087EC94E066C0809119
:103EA000D201817F8E7F8093D2018CEA94E00E94C0
:103EB0004F0585E698E00E944F0581E08093D4018C
:103EC000E9CF0E94C51489E498E00E944F059FEF56
:103ED00023ED80E3915020408040E1F700C00000D6
:103EE0000E94341DD7CF8091D201C82FC095C170D8
:103EF000C0FB80F98093D201CC2329F08DE398E0B8
:103F00000E944F0592C080E398E00E944F05809187
:103F1000D201897F877F8093D201BCCF9091D2015B
:103F200091FBCC27C0F981E0C827892FC0FB81F91C
:103F30008093D201CC2319F083E298E029C085E177
:103F400098E013C09091D20192FBCC27C0F981E098
:103F5000C827892FC0FB82F98093D201CC2319F0A6
:103F600086E098E015C086EF97E00E944F0592CF5B
:103F70009091D20193FBCC27C0F981E0C827892F0B
:103F8000C0FB83F98093D201CC2351F08AEE97E0F5
:103F90000E944F058091D20181608093D20145C07B
:103FA0008DED97E0E2CF84E993E00E944F050E94F7
:103FB000200F1F928F938AE793E09F938F930E9425
:103FC000E805809114011F928F9383E693E09F93FD
:103FD0008F930E94E8058091E1011F928F9380E505
:103FE00093E09F938F930E94E8050E94D81C9F93B3
:103FF0008F937F936F9389E393E09F938F930E94B6
:10400000E8058DB79EB742960FB6F8949EBF0FBED7
:104010008DBF40CF895301C080E00E94701D3ACF10
:104020008BED97E00E944F05C0E08C2FDF91CF9180
:10403000089580E0089580E00895CF93C82F80917F
:10404000D401882319F0813051F041C00E94781AC0
:10405000813149F00E94781A8232D9F504C00E9459
:10406000781A813149F48C2F0E941920811109C0DE
:104070008C2F0E94901D29C00E94781A823221F450
:10408000F2CF81E090E021C08C2F0E941B20811193
:104090001BC0C43189F018F4CB3029F010C0C932EC
:1040A00059F0C83361F48CEA94E00E944F0580E334
:1040B00093E00E944F0508C01092D4010CC08EE21C
:1040C00093E00E944F0507C081E0817006C0109206
:1040D000D40180E002C080E0F8CFCF9108958091B4
:1040E000E001089508959FB7F8941092D7019FBFFB
:1040F0009091ED01943009F057C09091E9009F70C4
:104100003091EC00232F217030FD20E8922B23E02A
:104110002093E9002091EB0020FF43C02091EE00A6
:1041200027FF3FC02091D501222321F02091E800F4
:1041300025FF37C01092D50126E03091E80035FD0B
:1041400015C03091ED01343061F53091EB0035FD53
:1041500028C0215021F481E08093D50122C0EFE9ED
:10416000FFE03197F1F700C00000E7CF8093F10046
:104170008091E80085FD0AC08091E80080FFFCCFB7
:104180008091E8008E778093E80006C08FB7F8949E
:1041900021E02093D7018FBF9F709093E90080E0CA
:1041A00008959F709093E9008FEF08950F931F93E8
:1041B000CF93DF9300D01F92CDB7DEB78C010E9462
:1041C0006623823011F0843021F584E089831B83DB
:1041D0000A8382E08093E9008FEF9091E80081509C
:1041E00095FD06C095ED9A95F1F700008111F5CF88
:1041F0008091E80085FF0DC040E050E063E070E092
:10420000CE0101960E9483238091E8008E778093EF
:10421000E8000F900F900F90DF91CF911F910F91B9
:104220000895CF93DF9300D01F92CDB7DEB72091D2
:10423000ED01243031F523E02983805891099B83D7
:104240008A8382E08093E9008FEF9091E8008150AB
:1042500095FD06C095ED9A95F1F700008111F5CF17
:104260008091E80085FF0DC040E050E063E070E021
:10427000CE0101960E9483238091E8008E7780937F
:10428000E8000F900F900F90DF91CF910895CF939A
:10429000DF93EC010E946623823011F0843039F5FF
:1042A00081E08093E9008FEF9091E800815095FDC7
:1042B00006C095ED9A95F1F700008111F5CF809138
:1042C000E80085FF14C040E050E068E070E0CE01F7
:1042D0000E9483238091E8008E778093E80088E035
:1042E000FE01A8EDB1E001900D928A95E1F7DF9112
:1042F000CF9108958AEA98E00E944F058091EC01E1
:10430000811109C00E9418250E9475258091E20044
:1043100084608093E200089586EA98E00E944F0549
:104320001092EC01089582EA98E00C944F058EE912
:1043300098E00C944F058AE998E00E944F050C9490
:10434000921C2091D6012F5F822F62E30E941E28CB
:10435000992319F02093D60108951092D6018091E7
:10436000D701882371F18091ED01843041F580916E
:10437000E9008F702091EC00922F917020FD90E861
:10438000892B93E09093E9009091EB0090FF14C08B
:104390009091EE0097FF10C09091E80095FF03C048
:1043A0001092F100F9CF9091E80090FF05C0909134
:1043B000E8009E779093E8008F708093E900109258
:1043C000D701089542E061EC81E00E94922442E22C
:1043D00061EC82E00E94922442E261EC83E00C9462
:1043E00092248091EF01833009F460C030F4813071
:1043F00071F0823009F499C008958A3009F485C0BB
:104400008B3009F46BC0893009F0A7C020C08091BF
:10441000EE01813A09F0A1C08091E800877F809386
:10442000E8008091F2019091F301892B21F468E07A
:1044300088ED91E003C060E080E090E070E00E94D1
:10444000CE238091E8008B778093E80008958091D7
:10445000EE01813209F081C08091F2019091F30167
:10446000029708F07AC08091E800877F8093E80087
:104470008091E80082FD05C08091ED018111F8CFA7
:104480006CC02091F3008091F20090E0922B029793
:1044900029F48091F1008B7F813021F48091F1002B
:1044A0008093E0018091E8008B7753C08091EE010A
:1044B000813A09F052C08091F2019091F301892B69
:1044C00009F04BC08091E800877F8093E8008091DD
:1044D000E80080FFFCCF8091140136C08091EE018E
:1044E0008132D9F58091F2019091F301892BA9F5E0
:1044F0008091E800877F8093E8000E94C724809124
:10450000F001809314010C94C5148091EE01813266
:1045100021F58091E800877F8093E8000E94C724FE
:104520008091F1018093E10108958091EE01813A3B
:10453000A1F48091E800877F8093E8008091E800F3
:1045400080FFFCCF8091E1018093F1008091E80031
:104550008E778093E8000C94C724089584B7877FF2
:1045600084BF0FB6F894A89580916000886180930D
:104570006000109260000FBE80E88093610010928E
:1045800061000E94AF0F0E9418250E94752580913E
:10459000E20084608093E20083E790E20E94281B9F
:1045A00078940E9403280E94B70F8AE091E00E944D
:1045B0001B0F89E898E00E944F058091ED0185303E
:1045C00089F485E898E00E944F050E944A1C80917A
:1045D000EB01882391F30E947B1C882371F30E94D6
:1045E0006D23EBCF0E94E70FE8CF0C94F722292F21
:1045F000332723303105C9F064F42130310581F0CF
:104600002230310509F049C08BE590E02EEE38E00C
:1046100048C02132310521F12232310571F13DC00E
:1046200082E190E029E439E03CC09927813091058E
:1046300071F02CF4892B89F5EAEEF8E00DC0823098
:10464000910541F0039749F5EEEAF8E005C0E2EC88
:10465000F8E002C0E4EBF8E0849190E09F0121C013
:1046600063307105D0F4660F771FFB01E25EFE4FE9
:104670002081318189E090E014C06330710568F4D5
:10468000FB01EE0FFF1FE85EFE4F20813181FB0131
:10469000EB5EFE4F808190E004C080E090E020E07F
:1046A00030E0FA013183208308950895CF93C82F15
:1046B0000E945523C093E201CF9108958091ED01AE
:1046C000843011F081E0089582E008958091E20144
:1046D000811102C00C945E23089580E189BD82E1BE
:1046E00089BD09B400FEFDCF8091D8008F7D8093F5
:1046F000D8008091E00082608093E0008091E0002B
:1047000081FDFCCF0895CF92DF92EF92FF920F933D
:104710001F93CF93DF93EC018B016A010E94E62483
:10472000811133C0C114D10439F0F6018081918127
:10473000081B190BC80FD91FE12CF12C011511050D
:1047400019F18091E80085FD16C08091E8008E7710
:104750008093E800C114D10449F0F6018081918171
:10476000E80EF91EF182E08285E00FC00E94E62487
:10477000882321F30AC089918093F1000150110927
:10478000FFEFEF1AFF0ADACF80E0DF91CF911F91A0
:104790000F91FF90EF90DF90CF9008952091F4015A
:1047A0003091F5012617370748F06115710539F486
:1047B0002091E8002E772093E80001C0B90140E085
:1047C00061157105A9F12091ED01222309F443C07F
:1047D000253009F442C02091E80023FD40C020911B
:1047E000E80022FD32C02091E80020FFE9CF40918F
:1047F000F3002091F20030E0342BFC01CF01611571
:10480000710559F02830310540F481918093F10011
:10481000615071092F5F3F4FF1CF41E028303105E2
:1048200009F040E02091E8002E772093E800C8CFFF
:104830004111C9CF0AC08091ED01882361F0853014
:1048400061F08091E80083FD0AC08091E80082FF5A
:10485000F2CF80E0089582E0089583E0089581E03A
:1048600008952091F4013091F5012617370748F09B
:104870006115710539F42091E8002E772093E80046
:1048800001C0B901FC0120E06115710591F1809131
:10489000ED01882309F440C0853009F43FC08091C0
:1048A000E80083FD3DC08091E80082FD2FC080912B
:1048B000E80080FFE9CF2091F3008091F20090E0C2
:1048C000922B6115710559F08830910540F42491BF
:1048D0002093F1003196615071090196F2CF21E0E9
:1048E000089709F020E08091E8008E778093E80037
:1048F000CBCF2111CCCF0AC08091ED01882361F08C
:10490000853061F08091E80083FD0AC08091E80065
:1049100082FFF2CF80E0089582E0089583E0089559
:1049200081E00895982F973058F59093E9009817F3
:1049300039F07091EC002091ED005091F00003C02F
:10494000242F762F50E021FF19C03091EB003E7FDD
:104950003093EB003091ED003D7F3093ED003091CE
:10496000EB0031603093EB007093EC002093ED008E
:104970005093F0002091EE0027FF07C09F5FD3CF38
:104980008F708093E90081E0089580E00895809120
:10499000EE0187FF11C08091E80082FD05C0809183
:1049A000ED018111F8CF11C08091E8008B770BC029
:1049B0008091ED01882349F08091E80080FFF8CFD5
:1049C0008091E8008E778093E80008952091E400BC
:1049D0003091E50095E64091EC00842F817040FF16
:1049E00022C08091E80080FD1CC08091ED018823E9
:1049F00091F0853091F08091EB0085FD10C04091E1
:104A0000E4005091E5004217530729F39A019150B1
:104A100011F784E0089582E0089583E0089581E02D
:104A2000089580E008954091E80042FFDECF0895A8
:104A30000E9486250E948E25E0EEF0E08081816054
:104A40008083E8EDF0E080818F77808319BCA7ED4B
:104A5000B0E08C918E7F8C9380818F7E80831092CA
:104A6000EC0108950F931F93CF93DF930E94862547
:104A70000E948E25C8EDD0E088818F778883888159
:104A80008068888388818F7D888319BC1092ED01AE
:104A90001092E9011092EB011092EA0100EE10E091
:104AA000F80180818B7F808388818160888342E0E8
:104AB00060E080E00E949224E1EEF0E080818E7F51
:104AC0008083E2EEF0E08081816080838081886075
:104AD0008083F80180818E7F8083888180618883D4
:104AE000DF91CF911F910F910895E8EDF0E0808163
:104AF0008F7E8083E7EDF0E080818160808384E0B9
:104B000082BF81E08093EC010C943225E8EDF0E067
:104B100080818E7F80831092E20008951092DA00E7
:104B20001092E10008951F920F920FB60F92112478
:104B30002F933F934F935F936F937F938F939F93A5
:104B4000AF93BF93EF93FF938091E10082FF0BC07F
:104B50008091E20082FF07C08091E1008B7F80930B
:104B6000E1000E94A1218091DA0080FF1FC08091A6
:104B7000D80080FF1BC08091DA008E7F8093DA001E
:104B80008091D90080FF0DC080E189BD82E189BD9F
:104B900009B400FEFDCF81E08093ED010E947A21EF
:104BA00005C019BC1092ED010E948C218091E1009A
:104BB00080FF19C08091E20080FF15C08091E20063
:104BC0008E7F8093E2008091E20080618093E2001A
:104BD0008091D80080628093D80019BC85E08093D2
:104BE000ED010E9497218091E10084FF30C0809107
:104BF000E20084FF2CC080E189BD82E189BD09B457
:104C000000FEFDCF8091D8008F7D8093D8008091E9
:104C1000E1008F7E8093E1008091E2008F7E80939F
:104C2000E2008091E20081608093E2008091E901DE
:104C3000882311F084E007C08091E30087FD02C063
:104C400081E001C083E08093ED010E949B2180916F
:104C5000E10083FF29C08091E20083FF25C080919D
:104C6000E100877F8093E10082E08093ED01109264
:104C7000E9018091E1008E7F8093E1008091E20064
:104C80008E7F8093E2008091E20080618093E20059
:104C900042E060E080E00E9492248091F000886011
:104CA0008093F0000E949321FF91EF91BF91AF910B
:104CB0009F918F917F916F915F914F913F912F9134
:104CC0000F900FBE0F901F9018951F920F920FB666
:104CD0000F9211242F933F934F935F936F937F9382
:104CE0008F939F93AF93BF93CF93DF93EF93FF93F4
:104CF000C091E900CF708091EC00D82FD17080FD79
:104D0000D0E81092E9008091F000877F8093F00056
:104D100078940E94A9261092E9008091F0008860A2
:104D20008093F000CD2BCF70C093E900FF91EF91FD
:104D3000DF91CF91BF91AF919F918F917F916F91B3
:104D40005F914F913F912F910F900FBE0F901F9049
:104D500018951F93CF93DF93CDB7DEB7AA970FB601
:104D6000F894DEBF0FBECDBFEEEEF1E088E08E0F0F
:104D70009091F10091938E13FBCF0E94F1218091CD
:104D8000E80083FF28C18091EE019091EF01492F47
:104D900050E04A30510508F01EC1FA01E558FF4FB6
:104DA0000C943E28803821F0823809F014C108C0E4
:104DB0008091EA019091EB01992389F082600FC004
:104DC0008091F2018F70873008F005C18093E9006F
:104DD0008091EB0085FB882780F91092E900909183
:104DE000E800977F9093E8008093F1001092F10023
:104DF000D0C0282F2D7F09F0EEC0882319F0823013
:104E000061F0E9C08091F001813009F0E4C0933095
:104E100009F080E08093EB012EC08091F0018111B8
:104E20002AC08091F2018F702FEF280F263008F0F2
:104E3000D2C08093E9002091EB0020FF1CC093308A
:104E400021F48091EB00806214C09091EB0090619E
:104E50009093EB0021E030E0A90102C0440F551F00
:104E60008A95E2F74093EA001092EA008091EB0005
:104E700088608093EB001092E9008091E800877FC2
:104E80008093E8000E94C724A6C08111A4C010919D
:104E9000F0011F778091E3008078812B8093E300FD
:104EA0008091E800877F8093E8000E94C72480916A
:104EB000E80080FFFCCF8091E30080688093E300EE
:104EC000111102C082E001C083E08093ED0183C034
:104ED0008058823008F07FC08091F0019091F101FC
:104EE0008C3D53E0950779F583E08A838AE28983D4
:104EF0004FB7F894DE01139620E03EE051E2E32F35
:104F0000F0E050935700E49120FF03C0E295EF706A
:104F10003F5FEF708E2F90E0EA3010F0C79601C02F
:104F2000C0968D939D932F5F243149F74FBF809199
:104F3000E800877F8093E8006AE270E0CE01019686
:104F40000E94CE2315C06091F2017091F301AE0171
:104F50004F5F5F4F0E94F522BC01892BE1F19091D8
:104F6000E800977F9093E80089819A810E9431241C
:104F70008091E8008B778093E8002DC0803859F548
:104F80008091E800877F8093E8008091E901809319
:104F9000F1008091E8008E7773CF81111CC0909151
:104FA000F0019230C0F48091E800877F8093E800A0
:104FB0009093E9010E94C7248091E901811106C004
:104FC0008091E30087FD02C081E001C084E080930E
:104FD000ED010E94E2218091E80083FF0AC08091E8
:104FE000E800877F8093E8008091EB0080628093E7
:104FF000EB00AA960FB6F894DEBF0FBECDBFDF91CF
:10500000CF911F910895CF938091ED018823A1F056
:10501000C091E900CF709091EC00892F817090FDD4
:1050200080E8C82B1092E9008091E80083FD0E947F
:10503000A926CF70C093E900CF910895991B79E01C
:1050400004C0991F961708F0961B881F7A95C9F718
:1050500080950895AA1BBB1B51E107C0AA1FBB1F67
:10506000A617B70710F0A61BB70B881F991F5A95F4
:10507000A9F780959095BC01CD010895EE0FFF1F13
:105080000590F491E02D0994CF93DF938230910540
:1050900010F482E090E0E091F801F091F90120E055
:1050A00030E0C0E0D0E0309711F1408151814817E5
:1050B0005907C0F04817590761F4828193812097FE
:1050C00019F09B838A832BC09093F9018093F80198
:1050D00026C02115310519F04217530718F49A011B
:1050E000BE01DF01EF010280F381E02DDCCF21154D
:1050F000310509F1281B390B2430310590F4129643
:105100008D919C9113976115710521F0FB0193839B
:10511000828304C09093F9018093F801FD013296D7
:1051200044C0FD01E20FF31F819391932250310996
:105130002D933C933AC02091F6013091F701232B37
:1051400041F420910201309103013093F701209343
:10515000F60120910001309101012115310541F442
:105160002DB73EB74091040150910501241B350B2A
:10517000E091F601F091F701E217F307A0F42E1B7E
:105180003F0B2817390778F0AC014E5F5F4F2417AB
:10519000350748F04E0F5F1F5093F7014093F6011B
:1051A0008193919302C0E0E0F0E0CF01DF91CF91D5
:1051B00008950F931F93CF93DF93009709F48CC04A
:1051C000FC013297138212820091F8011091F901CB
:1051D0000115110581F420813181820F931F2091E7
:1051E000F6013091F7012817390779F5F093F701A7
:1051F000E093F60171C0D80140E050E0AE17BF0760
:1052000050F412962D913C911397AD012115310563
:1052100009F1D901F3CF9D01DA0133832283608143
:105220007181860F971F8217930769F4EC0128811B
:105230003981260F371F2E5F3F4F318320838A81AC
:105240009B8193838283452B29F4F093F901E093AA
:10525000F80142C01396FC93EE931297ED01499129
:1052600059919E01240F351FE217F30771F48081D5
:105270009181840F951F029611969C938E93828143
:10528000938113969C938E931297E0E0F0E0D801FF
:1052900012968D919C911397009719F0F8018C014B
:1052A000F6CF8D919C9198012E5F3F4F820F931FF7
:1052B0002091F6013091F7012817390769F43097EA
:1052C00029F41092F9011092F80102C0138212829F
:1052D0001093F7010093F601DF91CF911F910F9189
:1052E0000895F999FECF92BD81BDF89A992780B5AE
:1052F0000895A8E1B0E042E050E00C94A529262FE3
:10530000F999FECF92BD81BDF89A019700B40216BB
:1053100039F01FBA20BD0FB6F894FA9AF99A0FBE69
:1053200008950396272F0E9480290E947F29252F08
:105330000E948029242F0C9480290196272F0E94F7
:1053400080290C947F29DC01CB01FC01F999FECF67
:1053500006C0F2BDE1BDF89A319600B40D924150FD
:0A5360005040B8F70895F894FFCF0D
:10536A000000FE0120002000C7016F2047217220A3
:10537A001121D62001403622B3097D095B090009B3
:04538A0019093209C2
:00000001FF
