:100000000C94B5020C94FC020C94FC020C94FC02BF
:100010000C94FC020C94FC020C94FC020C94FC0268
:100020000C94FC020C94FC020C94532D0C94252E81
:100030000C9497250C94FC020C94FC020C94FC028A
:100040000C94FC020C94FC020C94FC020C94FC0238
:100050000C94FC020C9437260C94FC020C94FC02C9
:100060000C94FC020C94FC020C94FC020C94FC0218
:100070000C94FC020C94FC020C94FC020C94FC0208
:100080000C94FC020C94FC020C94FC020C94FC02F8
:100090000C94FC020C94FC020C94FC020C94FC02E8
:1000A0000C94FC020C94FC020C94FC026612841268
:1000B00089128E12931298129D12A212A712AC12DC
:1000C000B112B612BB12C012C512CA12CF12D4128C
:1000D000D912DE12E312E812ED12F21233163616BE
:1000E0003B16421647164C16511656165B166016EE
:1000F00065166A16701670167016701670167016E1
:1001000070167016CD1BCD1BFF1BFF1B4C1C6C1CEF
:10011000BF1DBF1DAE1C4F1D601D601D411E411E39
:10012000531E531E4A1E531E531E531E411E411E74
:100130004F1E531E531E4F1E922EB92EAB2FB92E9B
:10014000AB2F052F282FAB2F7E2F8D2F29001E00C0
:100150001F0020002100220023002400250026008B
:1001600027002D002E002A002B0014001A00080082
:10017000150017001C0018000C00120013002F00BF
:1001800030003100354104001600070009000A0064
:100190000B000D000E000F0033003400000028009B
:1001A000E1001D001B0006001900050011001000F1
:1001B000360037003872520000004C42E000E30085
:1001C000E200000000002C0000000000E6001250D9
:1001D0005000510000004F0001003A003B003C007D
:1001E0003D003E003F00400041004200430044000B
:1001F00045000100010001000100010001000100B3
:1002000001000100010001000100010001000100E6
:100210000100010001000100010001005000510037
:1002200052004F0001000100000001000100010028
:1002300001000100010001000100010001000100B6
:1002400001000100000001000100010001000000A8
:100250000000010000000000010001000100010099
:10026000000001000000000000000000000000008D
:100270000000000000000000000000000000005C22
:10028000000000000000000000000000000000006E
:10029000000000000000000000000000000000005E
:1002A000000000000000000000000000000000004E
:1002B000000000000000000000000000000000003E
:1002C000000000000000000000000000000000002E
:1002D000000000000000000000000000000000001E
:1002E000000000000000000000000000000000000E
:1002F00000010101010101010101020202020202E9
:1003000002020203030303030303030404040404BB
:100310000404050505050506060606060707070782
:100320000708080808090909090A0A0A0B0B0B0C37
:100330000C0C0D0D0D0E0E0E0F0F0F1010111111D4
:100340001212131314141515161617171818191955
:100350001A1A1B1B1C1D1D1E1E1F202021222223BA
:100360002424252626272829292A2B2C2D2D2E2FFB
:1003700030313232333435363738393A3B3C3D3E12
:100380003F404142434445464748494A4C4D4E4F01
:1003900050515354555658595A5B5D5E5F616264C3
:1003A000656668696B6C6D6F7072737577787A7B50
:1003B0007D7E8082838587888A8C8E8F91939596A7
:1003C000989A9C9EA0A2A3A5A7A9ABADAFB1B3B5C7
:1003D000B7BABCBEC0C2C4C6C9CBCDCFD1D4D6D8A3
:1003E000DBDDDFE2E4E7E9EBEEF0F3F5F8FAFDFF41
:1003F000040330000000100344005A0036003000AF
:1004000052004700420000000E0344005A0054000E
:1004100045004300480000000403090409023B00B2
:10042000020100A0FA0904000001030101000921F2
:10043000110100012240000705810308000A090498
:100440000100010300000009211101000122C00088
:100450000705820320000A1201100100000008EDC8
:10046000FE191202000102030105010902A1018522
:10047000020901A1000509190129051500250195A9
:100480000575018102950175038101050109300996
:10049000311581257F95027508810609381581255A
:1004A0007F950175088106050C0A38021581257FA4
:1004B000950175088106C0C005010980A101850369
:1004C0001A81002A83001601002603009501751089
:1004D0008100C0050C0901A10185041A01002A9CB4
:1004E00002160100269C02950175108100C00501CD
:1004F0000906A1018505050719E029E71500250171
:100500009508750181020507190029EF15002501DD
:1005100095F07501810205081901290595057501F8
:100520009102950175039101C005010906A101051C
:100530000719E029E7150025019508750181029545
:1005400001750881010507190029FF150026FF0024
:10055000950675088100050819012905950575019D
:100560009102950175039101C00011241FBECFEFC8
:10057000DAE0DEBFCDBF04B603FE27C08091B5062A
:100580009091B606A091B706B091B8068730904B0F
:10059000A740B04BD1F41092B5061092B606109257
:1005A000B7061092B80614BE84B7877F84BF0FB613
:1005B000F894A89580916000886180936000109203
:1005C00060000FBEE0E0F8E3099513E0A0E0B1E0C1
:1005D000E2E5F2E602C005900D92A034B107D9F72A
:1005E00026E0A0E4B3E001C01D92A53BB207E1F70D
:1005F0000E947C2A0C9427310C94000081E00E9418
:100600006A130C94462580E00E946A130C948E2590
:100610000E94141981FF07C02FEF4FEF6FEF88E2A0
:1006200090E00C94760B089581E0089581E00895A0
:100630000C9416031F93CF93DF9300D000D01F922A
:10064000CDB7DEB749835A832091000489819A810E
:10065000211112C0662349F00E94E922182F682F49
:1006600089819A810E948E2203C00E94BD22182F88
:1006700069817A81812F04C00E94E92269817A818F
:100680000F900F900F900F900F90DF91CF911F91CF
:100690000C940704FC014081518162817381848143
:1006A0000C941A030E94ED068FEB9DE50197F1F77C
:1006B00000C000000E94ED0680E00E94980680FFC6
:1006C00004C00E940C240C945D2608950E945203DD
:1006D0000E941224811102C00E94B2240E943C1385
:1006E0000C9493060E94AC110C94960608950C94F9
:1006F000760381E008950C947903CF93C82F0E946C
:1007000077038C2F0E947B03CF91089508950E9458
:10071000311E0E9486032FEF84E39CE0215080402D
:100720009040E1F700C000000C945D260F931F93EA
:10073000CF93DF93EC010E944A038C01BE010E941B
:10074000FB10882309F45DC0BE01C8010E94180394
:10075000882309F456C0BE01C8010E94E31688230D
:1007600009F44FC0BE01C8010E942417882309F470
:1007700048C0BE01C8010E941C16882309F441C06C
:100780008A81882371F001158CE5180739F00E3D38
:100790008CE5180731F40E94B22433C00E9487030D
:1007A00030C006311C4531F50E946923282F8A810B
:1007B00040910D0250910E02882379F02A7A91E03F
:1007C00009F490E090934003911102C069E201C0E6
:1007D00065E3CA010E941E250AC080914003811171
:1007E00002C069E201C065E3CA010E9429250E9496
:1007F000A82307C0CE01DF91CF911F910F910C94D8
:10080000140380E0DF91CF911F910F9108959EE036
:10081000799FF001112496E4899FE00DF11D1124C8
:10082000E60FF11DEE0FFF1FE45BFE4F85919491E3
:100830000895CF93DF930E9407040E94BB05EC014B
:10084000811521E59207C8F5811560E5960708F046
:10085000E1C0883E9105D0F4803E910508F087C143
:10086000883A910570F4853A910508F069C08130A5
:10087000910509F47CC108F42DC1049708F077C1F3
:1008800029C18F3B910508F466C024C1C11580E2DF
:10089000D80758F4C11591E0D90708F068C1C03FE6
:1008A000D10508F417C1D06562C1C11520E4D20793
:1008B00008F410C1DF70D06A5AC1811565E596074A
:1008C000A0F4C11584E5D80708F0EBC0C11593E585
:1008D000D90708F0D0C0C11522E5D20708F0B5C08D
:1008E000DC2FCC27C16FD06A42C1811569E596071C
:1008F000A0F4C11588E5D80708F0D8C0C11596E561
:10090000D90708F0E7C08C2F0E944F068F71C82FBF
:10091000D0E0DC2FCC27D0622AC181152AE59207CE
:1009200008F4C9C090568115904208F0D3C08D2FAD
:100930008F710E944F06DD27D0628F71D82B17C1AF
:10094000853A910509F4C9C0863A910509F0C8C0F5
:10095000C2E8D0E40CC1883A910509F4C4C0893AD0
:10096000910509F4C3C08A3A910509F4C2C08B3AD3
:10097000910509F4C1C08C3A910509F4C0C08B3BC4
:10098000910509F4BFC08C3B910509F4BEC08D3AB6
:10099000910509F4BDC0803B910509F4BCC08E3AB5
:1009A000910509F4BBC08F3A910509F4BAC0813BA7
:1009B000910509F4B9C0823B910509F4B8C0833BA5
:1009C000910509F4B7C0843B910509F4B6C0853B95
:1009D000910509F4B5C0863B910509F4B4C0873B85
:1009E000910509F4B3C0883B910509F4B2C0893B75
:1009F000910509F4B1C08D3B910509F4B0C08E3B5F
:100A0000910509F4AFC08A3B910509F4AEC0C0E07E
:100A1000D4E4ADC0837021E030E002C0220F331F68
:100A20008A95E2F73C68CE0174E0969587957A95B1
:100A3000E1F78370382BCF70C695C69580E2C89FCA
:100A4000E0011124C22BD32B92C04C2F4695469522
:100A500090E2499FA0011124C370DD2721E030E01E
:100A6000C90102C0880F991FCA95E2F7EC01C42B97
:100A7000D52BDC687CC04C2F4695469580E2489F7C
:100A8000A0011124C370DD2721E030E0C90102C0BC
:100A9000880F991FCA95E2F7EC01C42BD52BDA68B1
:100AA00066C0DC2FCC27C46FD06A61C0DC2FCC2796
:100AB000C06FD06A5CC08F700E944F0694E0D695DC
:100AC000C7959A95E1F7CF70D0E0DC2FCC27D0699D
:100AD000C82B4DC0C0E0D0E04AC0C1E8D0E447C058
:100AE000C3E8D0E444C0C2EED4E441C0C9EED4E4CB
:100AF0003EC0CAEED4E43BC0C5EBD4E438C0C6EB7C
:100B0000D4E435C0C3EBD4E432C0C4EBD4E42FC08A
:100B1000C7EBD4E42CC0CCECD4E429C0CDECD4E4B5
:100B200026C0C3E8D5E423C0CAE8D5E420C0C2E9A2
:100B3000D5E41DC0C4E9D5E41AC0C1E2D6E417C0AB
:100B4000C3E2D6E414C0C4E2D6E411C0C5E2D6E4E0
:100B50000EC0C6E2D6E40BC0C7E2D6E408C0CFE6BA
:100B6000D4E405C0C0E7D4E402C0CAE2D6E4CE01B2
:100B7000DF91CF9108958238910569F1B0F4813306
:100B8000910509F46DC048F48932910509F463C0F8
:100B90008A32910509F469C008958533910509F4F5
:100BA00055C089339105B9F00895833E910569F1E7
:100BB00038F4803E9105B1F0823E910509F1089527
:100BC000863E9105A9F1873E9105B9F1843E9105D4
:100BD00009F064C023C02091A60620FD4FC021FD6E
:100BE0004DC008958091A60680FD44C08091A7065F
:100BF00080FF44C08091A60684FD42C083EE4DC0B4
:100C00008091A60682FF38C0F5CF8091A60682FDAE
:100C100033C08091A70680FD31C0ECCF8091A7063C
:100C200081FF32C08091A60684FD2AC087EE35C0C0
:100C30008091A60683FF26C0F5CF8091A60683FD8E
:100C400021C08091A70681FD1FC0ECCF8091A60630
:100C500085FD1CC01DC08091A60685FD19C016C06B
:100C60008091A60686FD16C017C08091A60686FD57
:100C700013C010C089E311C082EE0FC080EE0DC01A
:100C800080E00BC086EE09C084EE07C089E205C093
:100C900085E303C08AE201C081E390E0089590916A
:100CA000A60692FF0DC0282F2871283019F4877FDF
:100CB000846006C0282F2471243011F48B7F886053
:100CC00093FF0DC0282F2871283119F4877E846185
:100CD00006C0282F2471243111F48B7E8861209165
:100CE000A70620FF0DC0382F3871383019F4877FE0
:100CF000816006C0382F3171313011F48E7F8860E9
:100D000021FF0DC0282F2871283119F4877E8161B9
:100D100006C0282F2171213111F48E7E886194FD47
:100D2000877E089508950C94920608950C94950674
:100D3000E82FF0E0EE0FFF1FE453FB4F808191811D
:100D400008950895AAE2B3E041E050E025E02A0FBB
:100D50008D91E82FE295EF70F0E031A18F70BA012C
:100D600002C0660F771F8A95E2F7CB01962F909508
:100D7000932391A392A1892B82A32A13E9CFACE1FB
:100D8000B3E041E050E02EE02A0F8D91E82FE2958C
:100D9000EF70F0E031A18F70BA0102C0660F771FCB
:100DA0008A95E2F7CB01962F9095932391A392A178
:100DB000892B82A32A13E9CFE2ECF4E0ACECB4E097
:100DC000119211921D921D9274E0EC3CF707C1F74D
:100DD00085E00E9484070C9466035F926F927F9275
:100DE0008F929F92AF92BF92CF92DF92EF92FF923B
:100DF0000F931F93CF93DF930AE213E0A2ECB4E0CA
:100E0000612CEE24E394F12C5D018D909C90119760
:100E100011961C921E92E80189918E01E82FE295AD
:100E2000EF70F0E091A18F70A70101C0440F8A9587
:100E3000EAF7892F842B81A382A1542E5094852117
:100E400082A3D0EADA95F1F78CE1C82E83E0D82EA0
:100E500080E090E0E60179906E01272D22952F70B9
:100E600030E0E90168A12D913C91119770E0D72DF8
:100E7000DF7002C075956795DA95E2F760FD08C0EE
:100E8000B701082E02C0660F771F0A94E2F702C06E
:100E900060E070E0262B372B11963C932E93019641
:100EA0008E309105B9F681A1D52DD823D1A382A189
:100EB000482B42A3129681E0F501208131818216F0
:100EC000930609F480E0682AF4E0AC3CBF0709F01F
:100ED0009BCF262D45E06CEC74E082EC94E00E9400
:100EE00085070E947203862DDF91CF911F910F918C
:100EF000FF90EF90DF90CF90BF90AF909F908F903A
:100F00007F906F905F9008950895FF920F931F93C5
:100F1000CF93DF93F82E092F162FD72FC42F22231C
:100F200049F081E0809343030E94C92590934203D6
:100F300080934103809143038823D9F0809141033A
:100F4000909142030E94E125049798F0EF2DF02F35
:100F5000A12FBD2F80E090E04C2F50E08417950723
:100F600034F4219131912D933D930196F7CF109256
:100F70004303DF91CF911F910F91FF900895AF929E
:100F8000BF92CF92DF92FF920F931F93CF93DF9385
:100F9000D62E372FE82FF0E0711106C0E051FD4F3B
:100FA0006491762F862F75C0C72FD0E0E051FD4F9A
:100FB0002491F22E022F10E046E0649FC00111241C
:100FC000EFEFF0E0BF010E94DF2FAB016BEA64039B
:100FD000C001659F900D11248D0D911D8D0D911DEA
:100FE000982F990F890FDF01AC1BBD0B0A9FB00131
:100FF0000B9F700D1A9F700D1124972F839FD001A6
:101000001124AB2FBB276F01CA1ADB0A0C9DD0013C
:101010000D9DB00D1C9DB00D11245F01A81AB108E3
:10102000AC9E6001AD9ED00CBC9ED00C1124CD2D89
:10103000DD27EC1BFD0B0E9FE0010F9FD00D1E9FC7
:10104000D00D1124ED2F4230510591F04CF4411593
:101050005105E1F041305105B9F4E22F2B2F16C0B4
:101060004430510569F044F04630510579F00CC028
:10107000E22F272F9D2F0AC0272F9F2DEB2F06C071
:10108000E72F922F2D2F02C0E72F9B2F6E2F722F4D
:10109000892FDF91CF911F910F91FF90DF90CF901B
:1010A000BF90AF90089520E030E0A901869F412DC8
:1010B000969F400D511D1124CA010895BC01823034
:1010C000910508F40895613E8EE1780748F49B018C
:1010D00095E0369527959A95E1F748E0420F01C0D3
:1010E0004FEF91E0242F30E0290F311D35952795E2
:1010F000229FF001239FF00DF00D11246E177F0742
:1011000018F44FEF420F05C02F3F310539F091E041
:10111000920F491738F78FEF890F08958FEF0895D1
:10112000482F982F46FD9095E92FEF739F7046FD4D
:101130009F5FE295EF70EE0FF0E0E15DFC4F2181E3
:10114000299F802D212D112482958F702295207F3B
:10115000822B3081982F930F892F47FD81958058DE
:101160000895E42FF0E0EE0FFF1FE65BFE4F408195
:1011700034EE439F412D1124E82FF0E050E0445E0F
:101180005F4FDA01A21BB1099D01B7FF03C0319582
:101190002195310993E0220F331F9A95E1F7AF01B2
:1011A000421B530B9A0157FF02C020E030E0582F3A
:1011B000259F212D1124822F0895622F0895E42F59
:1011C000F0E0EE0FFF1FE65BFE4F6081621B0895AB
:1011D000E42FF0E0EE0FFF1FE55BFE4F6081621B26
:1011E000089550E0FA01EE0FFF1FE55BFE4F90817E
:1011F000905297FD9195440F551FFA01E65BFE4F03
:10120000408150E0FA01E21BF1099F01290F311DD5
:1012100097FD3A95620F0895EF920F931F9393E015
:10122000099F80011124159507956E2D600F1F9160
:101230000F91EF9008950F931F93CF93DF931F9219
:10124000CDB7DEB7182F47FD4195E8E3F0E0CF01B9
:10125000841B910947FD9395889FF001899FF00DAC
:10126000F00D1124229FC001239F900D900D112499
:101270008E0F9F1F79830E945E08982F880F980F0A
:10128000692F600F7981812F0F90DF91CF911F918E
:101290000F9108950F931F93522F10E0F801EE0F56
:1012A000FF1FE55BFE4FE081F0E0B0979F01520326
:1012B000D001539FB00D1124000F111FF801E65B00
:1012C000FE4F008110E00057110940039001419F3B
:1012D000300D11242A0F3B1F37FF02C021583F4F0A
:1012E000220F232F221F330B620F1F910F9108959E
:1012F0000F931F93522F10E0F801EE0FFF1FE55BD5
:10130000FE4FE081F0E0B097EE0FFF1F9F01520308
:10131000D001539FB00D1124000F111FF801E65B9F
:10132000FE4F008110E000571109000F111F40030C
:101330009001419F300D11242A0F3B1F37FF02C03F
:1013400021583F4F220F232F221F330B620F1F9173
:101350000F9108950F931F9310E0F801EE0FFF1FF8
:10136000E65BFE4F9081905797FD9195000F111FFE
:10137000F801E55BFE4FE081F0E0B097DF01AA0FD6
:10138000BB1F8D010E0F1F1F2003D001219FB00D29
:101390001124E8E3F0E0E91BF10997FDF3959F01C3
:1013A000220F331F89010E0F1F1F40039001419F21
:1013B000300D11242A0F3B1F37FF02C021583F4F29
:1013C000220F232F221F330B620F1F910F910895BD
:1013D0004095282F429F412D1124842F089522E803
:1013E000241B08F420E0620F0895FC01CB01309724
:1013F00021F477FF2CC080E808959F01F7FF04C017
:10140000222733272E1B3F0BBC01621B730B280FB7
:10141000391F97FD0DC0CB0145E0880F991F4A95F4
:10142000E1F7B9010E94F32F80E2861B682F09C003
:10143000C90125E0880F991F2A95E1F70E94F32F33
:10144000605A862FF7FF02C081950895089580E0C5
:101450000895FF920F931F93CF93DF93F62ED72F0C
:10146000182FC901C12FC01BBA010E94F509982F7E
:10147000880F980F2C2F291B219F212D11246F2DB0
:101480007D2F822FDF91CF911F910F91FF900895B3
:10149000EF920F931F93CF93DF93D62FC72F182F61
:1014A000C9010E19010FBA010E94F509081B019F1D
:1014B000012D11246D2F7C2F802FDF91CF911F9153
:1014C0000F91EF9008950F93CF93DF93D72FC82FED
:1014D000C901BA010E94F509682F600F7D2F8C2F7A
:1014E000DF91CF910F910895EF920F93CF93DF93F8
:1014F000D72FC82FC9010E19BA010E94F509602F14
:10150000681B7D2F8C2FDF91CF910F91EF90089565
:101510001F93CF93DF93FC01618130815FEF560F02
:10152000A1E0A60F2FEF230F41E0430FC62FD0E01D
:10153000231780F48EE08C9FF0018D9FF00D112415
:10154000E20FF11DE359FC4F708110E1710F08F4B7
:101550007FEF7083832F90E07EE07C9FF0017D9F82
:10156000F00D1124EF01C80FD91FC359DC4F78814A
:1015700010E2710F08F47FEF78834E3050F4E40FDF
:10158000F11DE359FC4F708110E1710F08F47FEFFA
:101590007083A53008F030C0B0E0231780F47EE0FF
:1015A0007A9FF0017B9FF00D1124E20FF11DE359AA
:1015B000FC4F70811DE0710F08F47FEF70837EE0B7
:1015C0007A9FF0017B9FF00D1124DF01A80FB91F56
:1015D000A359BC4F7C9110E1710F08F47FEF7C930D
:1015E0004E3050F4E40FF11DE359FC4F70811DE0C3
:1015F000710F08F47FEF7083561708F032C0652F23
:1016000070E0231780F43EE0369FF001379FF00D25
:101610001124E20FF11DE359FC4F20813DE0230F1F
:1016200008F42FEF20835EE0569F9001579F300D06
:101630001124820F931FFC01E359FC4F508160E19C
:10164000560F08F45FEF50834E3058F4F901E40F61
:10165000F11DE359FC4F20813DE0230F08F42FEFEB
:101660002083DF91CF911F91089545E050E06CE118
:1016700070E086ED94E00C94B33045E050E06CE10E
:1016800070E086ED94E00C94D130E6EDF4E085E274
:10169000808311828FEF828383838FE784830C940E
:1016A0003D0B80E008950F931F93CF93DF93C82FD6
:1016B000D62F8A010E94510B9EE0C99FF001112490
:1016C000ED0FF11DEC5FFE4F90819F3F29F0F80177
:1016D000E80FF11D90838F5FDF91CF911F910F91E4
:1016E0000895E0913D03F0913E030994E0913903A0
:1016F000F0913A0309944F925F926F927F928F928A
:101700009F92AF92BF92CF92DF92EF920F931F936F
:10171000CF93DF932C013B01FC01C0818DE0C89F7A
:10172000C02D1124DDE0DC0FD03408F0DFE3609140
:10173000DA04669580910405909105050E9453088E
:10174000182FCD1708F044C08C2E912CF401E853CB
:10175000FE4F9081F20181818923C1F1F401EE0FE6
:10176000FF1FE65BFE4FC080D12CF0E7CF1AD108F7
:10177000F401EE0FFF1FE55BFE4FA080B12C80E26D
:10178000A81AB108CC9C9001CD9C300D300D1124CD
:10179000AA9CC001AB9C900D900D1124820F931F49
:1017A0000E945E08082F6091D7047091D804809140
:1017B000D904E12E9501A601F30109950E94BF0706
:1017C000462F282F672FC4010E94760BCF5FB9CF19
:1017D00081E0DF3308F080E0DF91CF911F910F911E
:1017E000EF90DF90CF90BF90AF909F908F907F90C1
:1017F0006F905F904F90089568E47AE00C947B0BB3
:101800006CE079E00C947B0B64E77AE00C947B0B42
:10181000AF92BF92CF92DF92EF92FF920F931F93FE
:10182000CF93DF937C016B01FC01C0818DE0C89FE9
:10183000C02D1124DDE0DC0FD03408F0DFE360912F
:10184000DA04669580910405909105050E9453087D
:10185000182FCD1778F5AC2EB12CF501E853FE4FBB
:101860009081F7018181892319F1F501EE0FFF1FA6
:10187000E55BFE4F208130E020523109F501EE0F8B
:10188000FF1FE65BFE4F408150E0405751096091D9
:10189000D7047091D8048091D904012FF6010995DD
:1018A0000E94BF07462F282F672FC5010E94760B85
:1018B000CF5FCFCF81E0DF3308F080E0DF91CF91C1
:1018C0001F910F91FF90EF90DF90CF90BF90AF905E
:1018D000089569E27AE00C94080C6BE179E00C94CD
:1018E000080C63E67AE00C94080CBF92CF92DF926A
:1018F000EF92FF920F931F93CF93DF938C017B01A5
:10190000FC01C0818DE0C89FC02D1124DDE0DC0FFB
:10191000D03408F0DFE39091DA04692F669566957C
:1019200080910405909105050E945308B82ECD17AB
:10193000F0F4CC2ED12CF601E853FE4F8081F80153
:101940009181982391F06091D7047091D80480918F
:10195000D9042B2D4C2FF70109950E94BF07462F64
:10196000282F672FC6010E94760BCF5FE0CF81E062
:10197000DF3308F080E0DF91CF911F910F91FF904E
:10198000EF90DF90CF90BF90089561EB78E00C94DA
:10199000750C6DED78E00C94750C6FED78E00C949F
:1019A000750C68EE78E00C94750C61EF78E00C949F
:1019B000750C7F928F929F92AF92BF92CF92DF92DF
:1019C000EF92FF920F931F93CF93DF936C015B0114
:1019D000FC01C0818DE0C89FC02D1124DDE0DC0F2B
:1019E000D03408F0DFE36091DA0466956695809163
:1019F0000405909105050E945308182F80E4810F7B
:101A00000E94900890E8F92EF80E812F0E9490080D
:101A100020E8722E780ECD1700F58C2E912CF40153
:101A2000E853FE4F8081F60191819823A1F06091E7
:101A3000D7047091D8048091D904E12E0C2F272D62
:101A40004F2DF50109950E94BF07462F282F672FBC
:101A5000C4010E94760BCF5FDECF81E0DF3308F058
:101A600080E0DF91CF911F910F91FF90EF90DF9079
:101A7000CF90BF90AF909F908F907F9008956AE431
:101A800079E00C94D90C68E779E00C94D90C6AEAF7
:101A900079E00C94D90CAF92BF92CF92DF92EF9283
:101AA000FF920F931F93CF93DF937C015B01FC01A7
:101AB000C0818DE0C89FC02D1124DDE0DC0FD03443
:101AC00008F0DFE32091DA0430E040E050E06FEF0F
:101AD0007FEF80E090E00E9407308901CD17E8F5A4
:101AE000CC2ED12CF601E853FE4F9081F701818175
:101AF000892389F19091DB04915097FD15C0292F1E
:101B0000092E000C330BF901E552FB4F81898C1330
:101B1000F3CF220F331FF901E552FB4F218D328D98
:101B20002017310748F701C098016091DA04C90114
:101B30000E945308AC016091D7047091D804809141
:101B4000D904F50109950E94BF07462F282F672F5A
:101B5000C6010E94760BCF5FC1CF81E0DF3308F072
:101B600080E0DF91CF911F910F91FF90EF90DF9078
:101B7000CF90BF90AF90089568EE79E00C944B0D34
:101B80006FEE79E00C944B0DDF92EF92FF920F9382
:101B90001F93CF93DF9300D0CDB7DEB78C01DC016C
:101BA0009C918DE0989FD02C11243DE03D0D303468
:101BB00008F03FE36091D7047091D8048091D90474
:101BC0003A830E94BF07F62EE82E3A81D316B8F466
:101BD000ED2DF0E0DF01A853BE4F8C91D801119696
:101BE0009C91982351F02E2D4F2D672FCF013A83D2
:101BF00079830E94760B79813A81D394E7CF81E093
:101C00003F3308F080E00F900F90DF91CF911F914C
:101C10000F91FF90EF90DF900895AF92BF92CF9217
:101C2000DF92EF92FF920F931F93CF93DF938C017C
:101C3000DC01CC918DE0C89FC02D1124DDE0DC0FCC
:101C4000D03408F0DFE3E090D804F090D904D090CD
:101C5000D7046D2D7E2D8F2D0E94BF07C62EB72E67
:101C6000A82E9091DA046D2D690F7E2D8F2D0E9484
:101C7000BF07F62EE72ED82ECD17C8F4EC2FF0E0D4
:101C8000DF01A853BE4F3C91D80111969C9193233C
:101C900061F030FF04C02D2D4F2D6E2D03C02A2D75
:101CA0004C2D6B2DCF010E94760BCF5FE5CF81E0ED
:101CB000DF3308F080E0DF91CF911F910F91FF900B
:101CC000EF90DF90CF90BF90AF900895BF92CF92EA
:101CD000DF92EF92FF920F931F93CF93DF937C01DC
:101CE000FC01C0818DE0C89FC02D1124DDE0DC0F18
:101CF000D03408F0DFE30091D804B090D9042091EB
:101D0000DA0410E4129F112D1124CD1738F5CC2ED2
:101D1000D12CF601E853FE4F9081F7018181982381
:101D2000D9F0F601EE0FFF1FE65BFE4F6081169FB4
:101D3000B001112495E0759567959A95E1F780912A
:101D4000D704680F702F8B2D0E94BF07462F282FB6
:101D5000672FC6010E94760BCF5FD7CF81E0DF33BC
:101D600008F080E0DF91CF911F910F91FF90EF90ED
:101D7000DF90CF90BF900895DF92EF92FF920F9384
:101D80001F93CF93DF9300D0CDB7DEB78C01DC017A
:101D9000DC908DE0D89ED02C11245DE05D0D503498
:101DA00008F05FE3F090D7047091D804E090D90474
:101DB0008091DA04682F6695669566958091040592
:101DC000909105055A8379830E9453080E949008D8
:101DD0008058982F97FD9195990F292F3E2D239F7D
:101DE000212D11246F2D7981822F0E94BF07F62E9D
:101DF000E82E5A81D516B8F4ED2DF0E0DF01A85396
:101E0000BE4F8C91D80111969C91982351F02E2DA4
:101E10004F2D672FCF015A8379830E94760B7981EA
:101E20005A81D394E7CF81E05F3308F080E00F90D0
:101E30000F90DF91CF911F910F91FF90EF90DF9066
:101E40000895DF92EF92FF920F931F93CF93DF934A
:101E50009C01FC01E853FE4F90816923A1F17901B7
:101E6000D090D804D091D904C091D7040C2F10E0A1
:101E70000E949A30482F4370C8018C549F4F68E6E7
:101E800071E00E94F32F9C01201B310B37FF02C031
:101E90002D5F3F4F35952795359527956C2F429FA0
:101EA000600D11247D2D8D2F0E94BF07462F282FF6
:101EB000672FC701DF91CF911F910F91FF90EF9096
:101EC000DF900C94760BDF91CF911F910F91FF90D3
:101ED000EF90DF900895CF92DF92EF92FF921F93E1
:101EE000CF93DF937C01FC01C281C1111DC06091C1
:101EF000DA0420E1620F08F46FEF809104059091FD
:101F000005050E9453086AE070E00E94DF2F892BCC
:101F100039F50E949A306FE370E00E94F32FF701C9
:101F200061810E94210F1CC0FC019081CDE09C9F2B
:101F3000C02D11241DE01C0F103408F01FE3D0E069
:101F4000C12ED12CCC15DD053CF4F7016181CE0109
:101F50000E94210F2196F6CFC1E01F3308F0C0E0A8
:101F60008C2FDF91CF911F91FF90EF90DF90CF905A
:101F700008950F931F93CF93DF931F92CDB7DEB7D2
:101F8000FC01E853FE4F20816223B9F08C010E94CE
:101F90009A3089830E949A30782F69818091D90480
:101FA0000E94BF07462F282F672FC8010F90DF918F
:101FB000CF911F910F910C94760B0F90DF91CF91E1
:101FC0001F910F910895CF92DF92EF92FF921F938E
:101FD000CF93DF937C01FC01C281C1111DC06091D0
:101FE000DA0420E1620F08F46FEF8091040590910C
:101FF00005050E94530865E070E00E94DF2F892BE1
:1020000039F50E949A306FE370E00E94F32FF701D8
:1020100061810E94B90F1CC0FC019081CDE09C9FA2
:10202000C02D11241DE01C0F103408F01FE3D0E078
:10203000C12ED12CCC15DD053CF4F7016181CE0118
:102040000E94B90F2196F6CFC1E01F3308F0C0E01F
:102050008C2FDF91CF911F91FF90EF90DF90CF9069
:102060000895E0913B03F0913C0309942F923F9235
:102070004F925F926F927F928F929F92AF92BF9298
:10208000CF92DF92EF92FF920F931F93CF93DF9344
:10209000CDB7DEB72A970FB6F894DEBF0FBECDBF1F
:1020A0005C01DC018C910DE0809F002D11243DE04E
:1020B000300F3987373410F036E43987D50112965E
:1020C0008C91882361F040E060E080E00E94311054
:1020D00086E4EDE6F3E0DF011D928A95E9F710E072
:1020E0003985432E512C8EE0282ECE0101964C01CD
:1020F000041515050CF061C0C80165E070E00E9490
:10210000F32F7B013C01289EF001299EF00D112444
:10211000E60FF71FE359FC4F3080A4010E94530BD8
:10212000382F64018C2D8819831708F034C0D6012C
:10213000EC91F0E0E853FE4F9081F5018181892315
:1021400031F1232D45E5241B08F420E06AEA621BE7
:102150007091D8042AEA432D240F08F42FEF409100
:10216000D90482E0289F200D11242E5F249F212D69
:102170001124822F3A870E94BF07462FD6019C91D7
:10218000282F672F892F90E00E94760B3A85BFEFAA
:10219000CB1ADB0AC7CF232D31E0231B08F420E044
:1021A000269CF001279CF00D1124EE0DFF1DE35934
:1021B000FC4F20830F5F1F4F9BCF81E03985363462
:1021C00008F080E02A960FB6F894DEBF0FBECDBFB0
:1021D000DF91CF911F910F91FF90EF90DF90CF9003
:1021E000BF90AF909F908F907F906F905F904F9037
:1021F0003F902F9008958F929F92AF92BF92CF926F
:10220000DF92EF92FF920F931F93CF93DF93CDB79F
:10221000DEB728970FB6F894DEBF0FBECDBF8B0197
:10222000FB0182819E012F5F3F4F7901882379F066
:10223000A901608181810E94530BB82E109208057C
:102240001092090510920A0510920B0501C0B12CDD
:10225000A0904403CB2CD12CC6018A0D911D099767
:1022600064F188E090E04C018C189D08B6016B5B2E
:102270007C4FA40185E493E00E94AA30B601635B21
:102280007C4FA4018DE493E00E94AA30A401440F86
:10229000551FB601660F771F635A7C4F8DE593E09B
:1022A0000E94AA30B6016B5A7C4FA40185E593E0E9
:1022B0000E94AA30AA94A092440380914403D701BB
:1022C000982F9E19292F2A0F3A2F3E193B1500F5FA
:1022D00030E0DD904D2D50E0B9016C5B7C4FFA0190
:1022E000EE0FFF1FE65BFE4FC080FB01C182440F73
:1022F000551FFA01E55BFE4F4081FB014187D18A02
:10230000220F331FF901EC5BFC4F128E118EDACFD6
:10231000B80EB09244038091D6048C7F843519F4B2
:10232000C8010E94880A81E028960FB6F894DEBFA3
:102330000FBECDBFDF91CF911F910F91FF90EF9016
:10234000DF90CF90BF90AF909F908F9008950895A9
:102350000E94A7110C940803CF92DF92EF92FF9294
:102360000F931F93CF93DF936091B3037091B403E6
:102370008091B5039091B6030E940B266B017C01FE
:10238000EB010E94D525AB01BC014093B3035093F0
:10239000B4036093B5037093B603809108059091E0
:1023A0000905A0910A05B0910B058F3F2FEF920709
:1023B000A207B207E9F0EE24FF24970186010095F9
:1023C000109520953095081719072A073B0720F428
:1023D0008FEF9FEFDC0104C08C0D9D1DAE1DBF1D56
:1023E0008093080590930905A0930A05B0930B0507
:1023F000A0914403E4E4F3E02A2F30E07E01E0946E
:10240000F0943A1771F0818D928DE816F90610F468
:10241000215004C08C0F9D1F928F818F3F5F329699
:10242000F0CF20934403F090B703F11008C0C0919F
:10243000D6048C2F837019F0C695C69501C0C0E0F4
:10244000809107028130E9F038F0823009F4E1C070
:10245000833009F4EBC0FBC01092080240930405DE
:1024600050930505609306057093070589E2E4E43F
:10247000F3E0ABEDB4E001900D928A95E1F781E0D5
:10248000D2C080910B02C81310C08091D604837013
:1024900090E020910C0230E051E040E08217930779
:1024A00009F450E0252F342F02C021E030E0822FC4
:1024B000817080930A028C2F90E08831910508F09A
:1024C00096C0FC01EA5AFF4F0C9426308091080216
:1024D000232B09F48CC0DDE08D9FD02D11241DE04D
:1024E0001D0F103408F01FE3D11748F420E040E03E
:1024F00060E08D2F90E00E94760BDF5FF5CF81E0EA
:102500001F3308F475C073C088E092E00E94C40DC8
:102510006FC088E092E00E940D0E6AC088E092E0F1
:102520000E94660E65C088E092E00E94BC0E60C00A
:1025300088E092E00E94C50C5BC088E092E00E94B7
:10254000690C56C088E092E00E94FC0B51C088E004
:1025500092E00E94C90C4CC088E092E00E94CD0C31
:1025600047C088E092E00E94D10C42C088E092E02F
:102570000E94D50C3DC088E092E00E94000C38C05B
:1025800088E092E00E946D0C33C088E092E00E94E7
:10259000710C2EC088E092E00E94040C29C088E0F3
:1025A00092E00E943F0D24C088E092E00E94430D1B
:1025B0001FC088E092E00E94470D1AC088E092E0B8
:1025C0000E946B0F15C088E092E00E94E30F10C0DC
:1025D00088E092E00E9436100BC088E092E00E94F2
:1025E000BC0D06C088E092E00E94C00D01C080E0F2
:1025F000909108029F5F90930802811128C082E0A9
:102600008093070280910A02811121C0CC2351F0EE
:102610001EC0C0930B028091D604837080930C027D
:102620000E94710B83E08093070211C06091040542
:102630007091050580910605909107050E940B2673
:10264000603171058105910510F010920702F110BB
:102650000AC0DF91CF911F910F91FF90EF90DF9013
:10266000CF900C94A811DF91CF911F910F91FF9003
:10267000EF90DF90CF900895E0913703F091380309
:1026800009951092DB04E4EFF4E08FEF9FEF819364
:10269000919325E0E430F207D1F710924403EDE581
:1026A000F3E08FEF9FEF8193919323E0ED36F207F4
:1026B000D1F70E941224811104C00E94B2240E940A
:1026C000450B0E94350B8091D6048C7F11F40C943D
:1026D000450B0895CF93C82F882329F040E060E090
:1026E00080E00E943110C093B703CF910895E6EDCA
:1026F000F4E0908181E089278083109207020C9496
:102700003D0B9091D604892F869586958F5F8F73A8
:102710009370883120F4880F880F892B02C0892F8D
:1027200084608093D604109207020C943D0B909124
:10273000D604892F86958695815C8F739370882344
:1027400021F0880F880F892B02C0892F8C65809318
:10275000D604109207020C943D0BE6EDF4E0818163
:10276000885F81830C943D0BE6EDF4E08181885015
:1027700081830C943D0BE6EDF4E0228130E1230FE0
:1027800008F42FEF22830C943D0BE6EDF4E0228158
:1027900030E1231B08F420E022830C943D0BE6ED8E
:1027A000F4E0238130E1230F08F42FEF23830C940E
:1027B0003D0BE6EDF4E0238130E1231B08F420E03B
:1027C00023830C943D0BE6EDF4E0248130E1230FEC
:1027D00008F42FEF24830C943D0BE6EDF4E0248104
:1027E00030E1231B08F420E024830C943D0BE6ED3C
:1027F000F4E0880F880F90819370892B808310926A
:1028000007020C943D0B60E080E50E94A81561E092
:1028100080E50C94A815CF930E944F1860E080E5E6
:102820000E946D14C0E021E041E061E08C2F0E9425
:102830000015CF5FCF33B9F760E080E50E94DA156D
:1028400061E080E5CF910C94DA1560938C0640939B
:102850008D0624E630E042E050E06CE876E0880F38
:102860000E94DC1821E0892B09F020E0822F0895D6
:10287000EF92FF921F93CF93DF937B01182F110FDD
:10288000C0E0D0E0C0938C0620E030E0F901EC0F0E
:10289000FD1FEE0DFF1D8081F901E457F94F818383
:1028A0002F5F3F4F2031310589F724E630E041E1C9
:1028B00050E06CE876E0812F0E94DC18892B31F41F
:1028C0006096C03CD105F1F681E001C080E0DF9167
:1028D000CF911F91FF90EF9008951F93CF93DF93B7
:1028E000C82FD62F45EC6EEF0E94251440E06DEF07
:1028F0008C2F0E94251410E040E0612F8C2F0E9445
:1029000025141F5F1831C1F745EC6EEF8C2F0E9424
:10291000251441E06DEF8C2F0E94251410E040E05B
:10292000612F8C2F0E9425141F5F103CC1F745ECCE
:102930006EEF8C2F0E94251443E06DEF8C2F0E94C8
:1029400025144FEF61E08C2F0E94251480E4D89F5E
:10295000A0011124416060E08C2F0E9425148FE3B8
:102960009CE90197F1F700C00000DF91CF911F9122
:1029700008958F33910548F5880F991F880F991F87
:10298000FC01E05EFD4F5281338180818370718153
:10299000A82FB0E0E0EC8E9FC0011124FC01E70FEE
:1029A000F11DE45FFA4F6083FC01E50FF11DE45F68
:1029B000FA4F4083830F911DFC01E45FFA4F20839F
:1029C000FD01E651FC4F81E080830895FF920F9353
:1029D0001F93CF93DF93182F062FF42EC0E0D0E083
:1029E0002F2D402F612FCE010E94B9142196CF3395
:1029F000D105B1F7DF91CF911F910F91FF9008950D
:102A00000F931F93CF93DF9334E0839FC001112472
:102A1000FC01E05EFD4FA081A37051819281338162
:102A2000052F069506950695E92FE695E695E69518
:102A3000832F869586958695577097703770B0E08E
:102A400010E0662399F068E16A9FE0016B9FD00D6A
:102A50001124C00FD11FC654DC4F61E070E001C0EB
:102A6000660F5A95EAF75881652B13C068E16A9F93
:102A7000E0016B9FD00D1124C00FD11FC654DC4F55
:102A800061E070E001C0660F5A95EAF760955881E1
:102A9000652368836E2F70E0442399F048E14A9FD4
:102AA000F0014B9FF00D1124E60FF71FE654FC4F89
:102AB00041E050E001C0440F9A95EAF79081492B1C
:102AC00013C048E14A9FF0014B9FF00D1124E60F1F
:102AD000F71FE654FC4F41E050E001C0440F9A95C7
:102AE000EAF7409590814923408390E0222399F0B2
:102AF00028E12A9FF0012B9FF00D1124E80FF91F08
:102B0000E654FC4F81E090E001C0880F3A95EAF767
:102B10009081892B13C028E12A9FF0012B9FF00D93
:102B20001124E80FF91FE654FC4F81E090E001C04A
:102B3000880F3A95EAF78095908189238083A8547D
:102B4000BC4F81E08C93DF91CF911F910F9108953D
:102B5000EF92FF921F93CF93DF93C62FD0E09E0199
:102B600026513C4F7901F90190819923D9F0182F12
:102B700045EC6EEF0E94251441E06DEF812F0E941D
:102B8000251480EC8C9FB0018D9F700D1124645F23
:102B90007A4F812F0E943814811104C0C854DC4F31
:102BA00081E08883F7011082DF91CF911F91FF9020
:102BB000EF900895CF92DF92FF920F931F93CF93E0
:102BC000DF93262F30E0A90148545C4F6A01FA01D7
:102BD000908191110AC0F6011082DF91CF911F916F
:102BE0000F91FF90DF90CF900895C62FF82E45ECFF
:102BF0006EEF0E94251440E06DEF8F2D0E9425148A
:102C0000F8E1CF9FE001112400E010E0F801EC0FA3
:102C1000FD1FE654FC4F4081602F8F2D0E9425142C
:102C20000F5F1F4F0831110589F7D5CF882311F0A9
:102C3000FA0101C0FB0109940F931F93CF93FB018D
:102C4000C281CC2309F44AC08C010E94692382729C
:102C5000F801E25CFC45E431F10508F042C0E259BC
:102C6000FF4F0C9426300E9477133AC047E953E196
:102C700061E873E104C041E853E167E973E10E9450
:102C800016162EC044EB53E16DEA73E1F8CF4DEA1E
:102C900053E164EB73E1F3CF45EC53E16BEB73E18C
:102CA000EECF4BEB53E165EC73E1E9CF49ED53E136
:102CB0006FEC73E1E4CF4FEC53E169ED73E1DFCFEB
:102CC0004DEE53E163EE73E1DACF43EE53E16DEE87
:102CD00073E1D5CF81E00E94F71302C0C1E001C0CB
:102CE000C0E08C2FCF911F910F9108950F931F93E8
:102CF000CF93DF93C62FD42F022FFC01828188232C
:102D0000C9F06093EE030E94C9259093ED03809370
:102D1000EC0380E28C0F883008F050C0C77081E06F
:102D200001C0880FCA95EAF7DF91CF911F910F91EB
:102D30000C94881B1091EE03161330C08091EC03A5
:102D40009091ED030E94E125883C910538F5C0E2A1
:102D5000CD0F1D17B9F080E2810F883040F4177055
:102D600081E001C0880F1A95EAF70E948F1BC830D6
:102D700048F481E09D2F977001C0880F9A95EAF77B
:102D80000E94881B802F0E94751BC830B8F4D77032
:102D900081E001C0880FDA95EAF70AC080E28C0F63
:102DA000883060F4C77081E001C0880FCA95EAF7E7
:102DB000DF91CF911F910F910C948F1BDF91CF91D9
:102DC0001F910F9108959C01CB01233F4CE53407DF
:102DD000F9F078F4283DFCE53F07B9F0293D4CE5D2
:102DE000340711F1273D3C4531F526E241EE61EE15
:102DF0001EC0253FFCE53F0799F070F0263F3C459B
:102E0000D1F427E245EE66EE12C027E245EE0EC091
:102E100026E241EE60EE0BC027E245EE64EE07C00D
:102E200026E241EE62EE03C028E241E065EE0E9438
:102E3000761680E00895FC018281882319F01092B3
:102E4000EE03089581E00895CF93DF93EC01FB0139
:102E50008281882309F41FC1C230FCE5DF0708F432
:102E60001BC1C6319CE5D90738F09E012A5F3C455D
:102E70002930310508F010C10E9425249093A7063F
:102E80008093A606C031ECE5DE0709F4C3C008F064
:102E900041C0C8308CE5D80709F49AC0F0F4C430BA
:102EA000ECE5DE0709F487C068F4C2308CE5D8078A
:102EB00009F477C0C330DC4509F0E3C08091A60671
:102EC000826076C0C630ECE5DE0709F46EC008F01B
:102ED0007BC08091A60688606BC0CC308CE5D8079B
:102EE00009F485C068F4CA30ECE5DE0709F474C063
:102EF00008F079C00E94311E8091A606806858C0F3
:102F0000CE308CE5D80709F476C008F07FC08091F8
:102F1000A6068BC0CB3FECE5DE0709F44FC018F5E1
:102F2000C3318CE5D80709F47DC078F4C131ECE5F4
:102F3000DE0709F473C0C231DC4509F0A2C00E946B
:102F4000311E8091A6068F7733C0C5318CE5D80736
:102F500009F472C008F486C0CA3FDC4509F091C08C
:102F60008091A7063EC0CF3FFCE5DF0709F45FC0B4
:102F700058F4CD3F9CE5D90709F444C008F43FC09C
:102F80008091A70682602DC0C130FDE5DF0709F4FE
:102F900075C008F45DC0C230DD4509F072C080E044
:102FA0006EC08091A606816003C08091A6068061F4
:102FB0008093A60666C08091A60611C08091A706E0
:102FC00082608093A7065DC08091A6068062F0CFE4
:102FD0008091A6068064ECCF8091A606886084600C
:102FE000E7CF8160EECF8091A6068E7FE1CF809102
:102FF000A6068D7FDDCF8091A606877FD9CF8091F1
:10300000A70618C08091A7068D7FDBCF8091A6060A
:103010008F7ECECF8091A6068F7DCACF8091A606E7
:103020008F7BC6CF8091A606877F8B7FC1CF809193
:10303000A7068D7F8E7FC5CF8091A60682FB2227B3
:1030400020F991E0922790FB82F990FB83F9B0CFB1
:103050008091A706982F909591708E7F892B90FB79
:1030600081F9AFCF0E94311E8091A60687FB2227EF
:1030700020F991E0922790FB87F99ACF81E00E9496
:10308000B4248091A6069091A7060E9436240E943F
:10309000311E80E001C081E0DF91CF910895109250
:1030A000B9008CE08093B8000895EF92FF920F93DF
:1030B0001F93CF93DF93182FEB011092BC0084EA8B
:1030C0008093BC000E94C9257C019091BC0097FDB3
:1030D0000EC0CF3F8FEFD807C1F30E94C9258E19CC
:1030E0009F098C179D0788F38EEF9FEF2EC090915C
:1030F000B900987F983041F09091B900987F903155
:1031000019F08FEF9FEF21C01093BB0084E88093EC
:10311000BC000E94C9258C019091BC0097FD0CC099
:10312000CF3F8FEFD807C1F30E94C925801B910BB9
:103130008C179D0788F3D8CF8091B900887F88319C
:1031400011F08034F1F680E090E0DF91CF911F9193
:103150000F91FF90EF9008950F931F93CF93DF93FC
:10316000EB018093BB0084E88093BC000E94C925DA
:103170008C019091BC0097FD0EC0CF3F8FEFD80718
:10318000C1F30E94C925801B910B8C179D0788F302
:103190008EEF9FEF0CC02091B900287F81E090E076
:1031A000283211F480E090E0919581959109DF91AA
:1031B000CF911F910F910895CF92DF92EF92FF92DE
:1031C0000F931F93CF93DF936B018A017901B901AC
:1031D0000E945518E6010C0D1D1DC017D10761F4A2
:1031E00024E92093BC00DF91CF911F910F91FF90B4
:1031F000EF90DF90CF90089597FDF2CFB7018991BE
:103200000E94AC18EACF9093F4038093F3030895DF
:10321000E091F303F091F403309721F00190F081F5
:10322000E02D099480E00895E091F303F091F40318
:10323000309711F480E008950190F081E02D099518
:103240000895E091F303F091F403309799F0209101
:103250001F02222359F02091A60627FF07C0DC0198
:103260002C9111962C93119725E02C930280F381D9
:10327000E02D09940895E091F303F091F403309761
:1032800039F022E0DC012C930480F581E02D0994D3
:1032900008952091F1033091F2038217930771F0A2
:1032A0009093F2038093F103E091F303F091F40320
:1032B000309721F00680F781E02D09940895209140
:1032C000EF033091F0038217930771F09093F003AE
:1032D0008093EF03E091F303F091F403309721F032
:1032E0000084F185E02D0994089585B7806885BF35
:1032F00085B7806885BF0895089508950C947D1959
:1033000008950C9480190E9475190E947C190C94E0
:103310007E1981E008950E94C0250E94A2060E94A5
:1033200081260C9481197F928F929F92AF92BF92C7
:10333000CF92DF92EF92FF920F931F93CF93DF9381
:10334000CDB7DEB72A970FB6F894DEBF0FBECDBF5C
:103350000E94ED060E948919811111C08FEF8983A7
:103360008A831B820E94C9258160782F9D838C836C
:1033700049815A816B818D810E94431A4FC036EF7B
:10338000832E33E0932E00E010E0702E802F0E94F9
:1033900098066C01F401A190B1904F01A826B926BE
:1033A000A114B10431F40F5F1F4F0530110569F707
:1033B000D5CF8091930481FD0E94A10690E0EE2478
:1033C000E394F12C97012A213B21232B09F19E83C1
:1033D0007F82CE20DF2091E0CD2809F490E098870D
:1033E0000E94C9258160782F9A8789874E815F81E5
:1033F00068858A850E94431A000F111FF801EA5060
:10340000FC4F80819181E826F926F182E08206C096
:103410009F5FEE0CFF1C9E30A9F6C5CF0E941328BB
:103420001091F5030E9408191817C9F00E94081995
:103430008093F5032A960FB6F894DEBF0FBECDBF7A
:10344000DF91CF911F910F91FF90EF90DF90CF9080
:10345000BF90AF909F908F907F900C947D032A96A1
:103460000FB6F894DEBF0FBECDBFDF91CF911F9195
:103470000F91FF90EF90DF90CF90BF90AF909F9013
:103480008F907F900895CF93DF93CDB7DEB72B97C2
:103490000FB6F894DEBF0FBECDBF4F835887698744
:1034A0007A878B87DE01119686E0FD0111928A955D
:1034B000E9F785E0FE01379601900D928A95E1F7D4
:1034C00049815A816B817C818D819E810E94DB20A4
:1034D0002B960FB6F894DEBF0FBECDBFDF91CF9114
:1034E0000895FC01808191810E942A2308958823F8
:1034F00009F4C6C09CEF980F913A40F4682F809170
:103500000D0290910E020E941E250DC090E2980FB0
:10351000983058F4877091E001C0990F8A95EAF7C6
:10352000892F0E946C230C94A8239BE5980F93305D
:1035300070F4853A29F0863A31F083E890E005C0CE
:1035400081E890E002C082E890E00C94491998E587
:10355000980F973108F08EC0883A09F445C0893A2F
:1035600009F445C08A3A09F445C08B3A09F445C0CC
:103570008C3A09F445C08B3B09F445C08C3B09F4F7
:1035800045C08D3A09F445C0803B09F445C08E3AE8
:1035900009F445C08F3A09F445C0813B09F445C0A0
:1035A000823B09F445C0833B09F445C0843B09F4E0
:1035B00045C0853B09F445C0863B09F445C0873BBF
:1035C00009F445C0883B09F445C0893B09F445C06E
:1035D0008D3B09F445C08E3B09F445C08A3B09F494
:1035E00045C080E090E044C082EE90E041C089EEAA
:1035F00090E03EC08AEE90E03BC085EB90E038C0A2
:1036000086EB90E035C083EB90E032C084EB90E035
:103610002FC087EB90E02CC08CEC90E029C08DECA3
:1036200090E026C083E891E023C08AE891E020C0C2
:1036300082E991E01DC084E991E01AC081E292E044
:1036400017C083E292E014C084E292E011C085E2E8
:1036500092E00EC086E292E00BC087E292E008C0E2
:103660008FE690E005C080E790E002C08AE292E039
:103670000C945F19803F20F00E941B270C940828AF
:103680000895882389F19CEF980F913A40F4682FB0
:1036900080910D0290910E020E9429250DC090E2AA
:1036A000980F983058F4877091E001C0990F8A956F
:1036B000EAF7892F0E9472230C94A8239BE5980FA8
:1036C000933020F480E090E00C94491998E5980F2D
:1036D000973120F480E090E00C945F19803F20F057
:1036E0000E9483270C9408280895CF93C82F0E9426
:1036F000771AC93349F42FEF87EE93E021508040C9
:103700009040E1F700C000008C2FCF910C94411B3A
:10371000882321F00E946C230C94A8230895882309
:1037200021F00E9472230C94A8230895BF92CF9297
:10373000DF92EF92FF920F931F93CF93DF937C0161
:10374000062FC72FFC01158112951F70D281D11150
:103750000E9489230E946223882379F0DD2369F087
:1037600080E2800F883048F082E00E94F3230E94BC
:10377000622391E0B82EB92601C0B12CCC2EC294A0
:103780008FE0C822D12CFCE0CF16D10408F0F7C19D
:10379000F601EE57FF4F0C9426308C2F807FCF70B0
:1037A000882311F0C295C07FDD2399F0CC2309F462
:1037B000D2C180E2800F883010F0011104C08C2F3C
:1037C0000E946C2303C08C2F0E947C230E94A8239C
:1037D000C2C1802F0E94411BCC2309F4D0C180E2DA
:1037E000800F883010F0011104C08C2F0E947223CA
:1037F00003C08C2F0E9482230E94A823C0C18C2F5B
:10380000807FCF70803211F0C295C07F002319F005
:103810000130C9F022C0DD2371F0112341F01130D5
:1038200031F40E948F238C2B0E949523A8C10E9403
:103830008F238C2B1DC0112319F0113009F49FC167
:103840000E949E2325C0DD2321F0163008F097C189
:103850000EC0153008F093C11BC0DD2361F01123A9
:1038600031F0F701858180FF76C18F7085838C2FC1
:103870000E94881B84C1112359F0093309F07CC1CF
:10388000FFEF17EE23E0F15010402040E1F772C146
:103890008C2F0E948F1B73C18C2F86958695837009
:1038A00090E0009719F0019761F069C1DD2321F0E4
:1038B000802F9C2F937002C080E090E00E944919F5
:1038C00069C1DD2321F0802F9C2F937002C080E01E
:1038D00090E00E945F195EC1DD23F9F0053F51F0D1
:1038E000063F71F0043FA9F48091A0069091A106D3
:1038F00081600BC08091A0069091A106826005C0F6
:103900008091A0069091A10684609093A106809377
:10391000A006802F0E941B271EC0053F51F0063FC6
:1039200071F0043FA9F48091A0069091A1068E7FCA
:103930000BC08091A0069091A1068D7F05C080915B
:10394000A0069091A1068B7F9093A1068093A0067C
:10395000802F0E9483270E9408281CC18C2F83700F
:1039600009F04BC0D11112C1202F22952695277046
:10397000220F220F602F6F70862F90E0A0E0B0E042
:10398000022E04C0880F991FAA1FBB1F0A94D2F7EA
:1039900004FF10C04FE050E060E070E004C0440F4E
:1039A000551F661F771F2A95D2F740955095609551
:1039B000709503C040E050E0BA01C695C695C3704B
:1039C000D0E08A019B01082B192B2A2B3B2BC90124
:1039D000B801C230D10559F0C330D10559F0219753
:1039E00019F00E94A321D2C00E949121CFC00E9451
:1039F000B521CCC00E948F21C9C0DD2319F08C2FC6
:103A0000817001C08695882309F4C0C0202F2295BB
:103A100026952770220F220F602F6F70862F90E05F
:103A2000A0E0B0E0022E04C0880F991FAA1FBB1FA0
:103A30000A94D2F704FF10C04FE050E060E070E05D
:103A400004C0440F551F661F771F2A95D2F7409573
:103A500050956095709503C040E050E0BA01C6955E
:103A6000C695C370D0E08A019B01082B192B2A2B25
:103A70003B2BC901B801C230D10559F0C330D10583
:103A800059F0219719F00E94692280C00E945722A4
:103A90007DC00E947B227AC00E94CA2177C0CF706D
:103AA000DD2339F08C2F0E94F021802F0E94881B8B
:103AB0006DC0802F0E948F1B8C2F0E94112266C028
:103AC000023F01F128F4003F41F0013FA1F03FC067
:103AD000033FF9F0043F39F13AC0DD2341F01530DE
:103AE00008F04DC08C2F8F710E94362248C01630CE
:103AF00008F045C0F7CFDD2339F08C2F8F710E947D
:103B0000F0213DC0DD23C9F38C2F8F710E9411225B
:103B100036C0DD2329F08C2F8F710E94DB212FC04E
:103B20000E94D6212CC0DD2349F0CF718C2F0E943A
:103B3000F02163E08C2F0E94DE2321C081E00E94EF
:103B4000F3231230E0F082E00E94F32318C0DD235B
:103B500031F0112391F2802F0E94771A10C01123A7
:103B600099F2093349F41FEF27EE33E0115020405A
:103B70003040E1F700C00000802F0E94411B88E028
:103B8000C81AD10894E0C916D10420F40E9408197B
:103B90000E947D03BB20D1F00E945E2380FD16C0F1
:103BA000F70112820E9458230E94F021C7010E944F
:103BB000F01D0E945823DF91CF911F910F91FF902C
:103BC000EF90DF90CF90BF900C941122DF91CF91B6
:103BD0001F910F91FF90EF90DF90CF90BF900895CD
:103BE0000F931F93CF93DF93EC01888199812B81F1
:103BF0003C81232BB9F09F3F11F48F3F99F0CE0108
:103C00000E949603882371F0688179818A810E94DD
:103C100035238C010E948D220E948E21B801CE0195
:103C20000E94961BDF91CF911F910F9108950E94E2
:103C300089230E948C230E94A8230E94AE280E9400
:103C4000082880E090E00E94491980E090E00C9400
:103C50005F1980910D0290910E020E9434250C9400
:103C6000171E0E9479230C94291EE92FE295EF700C
:103C7000F0E03297EE30F105B0F4E257FF4F0C94CC
:103C80002630803F91F018F4883E68F40EC0843FDF
:103C900051F40BC0883E48F0813F29F406C093FBE5
:103CA000882780F9089580E0089581E008950E94B2
:103CB0002A230E94351E0895CF93DF9300D000D0B1
:103CC0001F92CDB7DEB70F900F900F900F900F900F
:103CD000DF91CF910895CF93DF9300D000D000D033
:103CE000CDB7DEB726960FB6F894DEBF0FBECDBFB8
:103CF000DF91CF9108951F93CF93DF93C09101047B
:103D000016E080910204C81799F0D0E01C9FF001E2
:103D10001D9FF00D1124ED5FFB4F408151816281A9
:103D20007381848195810E946B1E2196C770E9CFB3
:103D3000DF91CF911F910895409133045091340445
:103D40006091350470913604809137049091380465
:103D50000C946B1E8091380482958F7009F054C0CA
:103D600080913504882309F44FC080910104A0910B
:103D700002046091330470913404409136045091F0
:103D80003704B6E08A1709F43FC090E041155105A9
:103D9000C1F17F3F11F46F3FA1F1B89FF001B99FCE
:103DA000F00D1124ED5FFB4F218172132AC0208199
:103DB000621327C02281211124C02381348124175A
:103DC000350710F421503109241B350B283C3105EF
:103DD000C0F4209138042F7020612093380426E02D
:103DE000289FF001299FF00D1124E85FFB4F80818F
:103DF0008F708061808383E394E00E94F01D0C94B7
:103E00007B1E01968770BECF0895CF92DF92EF920E
:103E1000FF920F931F93CF93DF93CDB7DEB76297D7
:103E20000FB6F894DEBF0FBECDBF8C0185E0F80160
:103E3000DE011D9601900D928A95E1F7D8014C9113
:103E400011965C91119712966C9112971396CD90E2
:103E5000DC901497309133047091340480913604CF
:103E600090913704009709F46BC17F3F19F43F3FED
:103E700009F466C1E0903504EE2009F4C0C0209139
:103E80003804C816D90628F0F601E81BF90BCF0153
:103E900004C0809590958C0D9D1DFF24F394883C63
:103EA000910578F0F12C207F09F0C6C07C2DD98ACD
:103EB000C88A89890E945C1E83E394E00E94F01DF9
:103EC000B1C0822F807F09F046C0751314C034132F
:103ED00012C0611110C02F702061209338040E941D
:103EE0009C1E83E394E00E94F01D80913804D80169
:103EF00015968C932EC0CD2819F15F3F11F44F3FDA
:103F0000F9F0F62E61111CC0809101042091020489
:103F100036E0821709F45AC090E0389FF001399FCB
:103F2000F00D1124ED5FFB4F7181571306C07081B6
:103F3000471303C07281711103C001968770E9CFE6
:103F4000F62E662309F427C180913804816080939E
:103F50003804F12C20C1751308C0341306C0611158
:103F600004C080913804D801C3C04D875E878D8519
:103F70009E856A8B0E94571E6A898823E1F1662319
:103F8000D1F120913804822F82958F7090E00297B2
:103F900074F0809133049091340498878F8319864C
:103FA000DB86CA862C87CE0107960E94F01D86E02C
:103FB000F801A3E3B4E001900D928A95E1F70E9425
:103FC000AA1E0E949C1EFF24F394E5C04D875E87C5
:103FD0008D859E850E942A23292F22952F7030E0FF
:103FE000223031050CF0CBC09F7009F0C5C0805E57
:103FF000883008F4D0C0C8010E94F01DE4CFC81674
:10400000D90608F453C0F601E81BF90BCF01883C30
:10401000910508F450C0F12C7C2DD98AC88A898971
:104020000E945C1EE3E3F4E086E0DF011D928A95C6
:10403000E9F70E949C1EAFC0751314C0341312C060
:10404000611110C080913804F8018583C8010E9475
:10405000F01D86E0E3E3F4E0DF011D928A95E9F7C5
:10406000FE2C99C04D875E878D859E856A8B0E9448
:10407000571E6A89882309F4BECF662309F4BBCF93
:1040800020913804822F82958F7090E002970CF473
:104090008ECF80913304909134049A8389831B825C
:1040A000DD82CC822E83CE0101967FCF80959095C4
:1040B0008C0D9D1DACCFF62E662309F49CCF751395
:1040C0002EC034132CC02091380420FD1FC0822F35
:1040D00082958F70D9F0D80115962C9315978F3053
:1040E00049F08F5F982F9295907F822F8F70892B48
:1040F00015968C93C8010E94F01D86E0F801A3E399
:10410000B4E001900D928A95E1F793CF86E0F80133
:10411000A3E3B4E001900D928A95E1F73CC04D878E
:104120005E878D859E850E94571E811140CF8091AC
:104130003804816080933804C8010E94F01D2BC0B0
:10414000662309F458CF4D875E878D859E850E9432
:10415000571EF82E882309F44ECF86E0F801A3E31A
:10416000B4E001900D928A95E1F783E394E00E9418
:10417000711A0E94AA1E5DCF811139CF0CC0243064
:1041800031050CF038CF9F7009F431CFF8019581DB
:10419000907F09F02CCF8F2D62960FB6F894DEBF7A
:1041A0000FBECDBFDF91CF911F910F91FF90EF9088
:1041B000DF90CF9008951F93CF93DF93CDB7DEB7F5
:1041C0002C970FB6F894DEBF0FBECDBF4F83588734
:1041D00069877A878B879C87CE0107960E94051F87
:1041E000882369F08F8198852A853B85232BF1F1FF
:1041F0009F3F09F063C08F3F09F060C037C086E081
:10420000FE013796DE01119601900D928A95E1F735
:104210006F817885EA85FB85309741F17F3F11F406
:104220006F3F21F12091020430E0C90101968770AF
:1042300099274091010450E08417950709F447C07D
:1042400069837A83FD83EC8396E0929FD001939FEC
:10425000B00D1124AD5FBB4FFE01319601900D9260
:104260009A95E1F7809302040E947B1E16E08091EC
:104270000104909102048917C1F1189FC001112413
:104280008D5F9B4F0E94051F882379F1E091010407
:104290001E9FF0011124ED5FFB4F4081518162812F
:1042A0007381848195810E946B1E8091010490E04E
:1042B00001968770992780930104D9CF4F81588543
:1042C00069857A858B859C850E946B1ECFCF0E9465
:1042D000311E1092020410920104E3E3F4E086E040
:1042E000DF011D928A95E9F7C1CF2C960FB6F8949D
:1042F000DEBF0FBECDBFDF91CF911F91089508950E
:104300000C947F210E94802160936A0470936B0457
:1043100080936C0490936D040C94171E08950C9474
:1043200082210F931F9300916A0410916B042091D6
:104330006C0430916D04602B712B822B932B1F9199
:104340000F910C9482210F931F9300916A04109196
:104350006B0420916C0430916D04602371238223DF
:1043600093231F910F910C9482210F931F9300911F
:104370006A0410916B0420916C0430916D046027E5
:104380007127822793271F910F910C948221089502
:104390000C94C7210E94C82160936604709367043F
:1043A00080936804909369040C94171E60E070E099
:1043B000CB010C94CA210F931F9341E050E060E0C1
:1043C00070E08A019B0104C0000F111F221F331FE0
:1043D0008A95D2F7C901B8011F910F910C94CA2197
:1043E0000F931F9341E050E060E070E004C0440F81
:1043F000551F661F771F8A95D2F7809166049091AA
:104400006704A0916804B09169048A019B01082B9C
:10441000192B2A2B3B2BC901B8011F910F910C942A
:10442000CA210F931F9341E050E060E070E004C0A8
:10443000440F551F661F771F8A95D2F740955095F8
:10444000609570958091660490916704A0916804CE
:10445000B09169048A019B01082319232A233B2375
:10446000C901B8011F910F910C94CA210F931F939A
:1044700041E050E060E070E004C0440F551F661F4B
:10448000771F8A95D2F78091660490916704A09176
:104490006804B09169048A019B01082719272A271B
:1044A0003B27C901B8011F910F910C94CA210F93AA
:1044B0001F93009166041091670420916804309165
:1044C0006904602B712B822B932B1F910F910C94FD
:1044D000CA210F931F9300916604109167042091E5
:1044E00068043091690460237123822393231F9110
:1044F0000F910C94CA210F931F93009166041091A1
:10450000670420916804309169046027712782272D
:1045100093271F910F910C94CA2108952EE0929F2A
:10452000800D1124A82FA695A695A695877051E019
:1045300001C0550F8A95EAF785E0A89FD0011124A4
:1045400020E030E070E0F901EA0FFB1FE75CFB4F71
:104550004081CB01022E02C0969587950A94E2F71E
:1045600081709927819584278523842780832F5FF5
:104570003F4F2530310539F708952EE0929F800D89
:104580001124682F669566956695982F977085E03B
:10459000689FB001112440E050E080E0FA01E60F8E
:1045A000F71FE75CFB4F208130E0092E02C03695F3
:1045B00027950A94E2F721703327042E01C0220FB9
:1045C0000A94EAF7822B4F5F5F4F4530510531F770
:1045D0000895BF92CF92DF92EF92FF920F931F93B5
:1045E000CF93DF938C01C0906A04D0906B04E0906D
:1045F0006C04F0906D048091660490916704A09122
:104600006804B0916904C82AD92AEA2AFB2ACFE1B2
:10461000D0E0D701C6010C2E04C0B695A79597959A
:1046200087950A94D2F780FF07C0BC2EB8018C2F63
:104630000E941904019719F4219758F7B12C8B2D7A
:10464000DF91CF911F910F91FF90EF90DF90CF906E
:10465000BF900895CF93DF93EC010E94E922BE0141
:104660000E941904DF91CF9108951F93CF93DF9398
:10467000EB0190910004992321F0CB010E942A23A1
:1046800013C0882349F0CB010E94E922182F682F1C
:10469000CE010E948E2204C0CB010E94BD22182FA1
:1046A000BE01812F0E941904DF91CF911F910895BF
:1046B00080916E04859585958595089580916E0409
:1046C0008770089590916E04977081E009F480E0FE
:1046D000089580919204089590919204892B80937B
:1046E0009204089580959091920489238093920476
:1046F000089510929204089590919104892B8093CB
:104700009104089580959091910489238093910458
:104710000895109291040895109290040895809144
:104720006F04089508950C94922390916F04981744
:1047300021F080936F040C949323089580916F046B
:10474000882329F010926F0480E00C94932308953D
:10475000E0910D02F0910E02809192048083E0912D
:104760000D02F0910E02908180919104892B80833B
:10477000E0910D02F0910E02908180919004892BBE
:10478000808380916F04882381F0E0910D02F09185
:104790000E029081892B808380910D0290910E02F0
:1047A0000E94B92481110E949E2380910D02909154
:1047B0000E020C94211908950C94DB2398E0899F34
:1047C00090011124262B20936E040E94F0218091E9
:1047D0006E048595859585950C94DC2310926E0466
:1047E00080E00C94DC2320916E04809582238093DA
:1047F0006E04982F977079F430E0482F082E000C43
:10480000550B2417350739F08595859585950E94B8
:1048100011220C94EE2308956FEF7FEF80E090E07B
:104820000C94FF3080E090E00E94CB3021E08C3E81
:104830009E4F09F020E0822F089582E090E00C94D2
:10484000C33083E090E00C94C330CF9384E090E0D9
:104850000E94C330C82F81E290E00E94C3302C2F09
:1048600030E0A901582BCA01CF910895CF93C92FE9
:10487000682F84E090E00E94E1306C2F81E290E0AC
:10488000CF910C94E130AB01BC018FE090E00C942F
:10489000F330AB01BC0183E190E00C94F33060E0B5
:1048A00070E0CB010C94492460E070E0CB010E94E1
:1048B00043240C944F246CEE7EEF80E090E00E9445
:1048C000FF3060E082E090E00E94E13060E083E051
:1048D00090E00E94E13010926A0410926B041092F2
:1048E0006C0410926D0460E084E090E00E94E1307E
:1048F00060E081E290E00E94E13060E085E090E0DD
:104900000E94E13060E086E090E00E94E1306FEFCD
:1049100087E090E00E94E13040E050E0BA0188E09A
:1049200090E00E94F33060E08DE090E00E94E13082
:1049300040E050E0BA0188E190E00E94F33060E08E
:1049400087E190E00E94E13040E050E0BA018CE164
:1049500090E00E94F33060E080E290E00E94E1305D
:104960000C9454240C945B24682F8EE090E00C94FB
:10497000E130FC01329680911F02882331F0809152
:10498000A60687FF02C09EE101C096E080E091503C
:1049900028F021912223D9F38F5FF9CF08959C014C
:1049A000FC0132969FEF80E04191461789F09F3FCE
:1049B00019F4411101C0982F8F5F8630A9F79F3FEE
:1049C00039F0F901E90FF11D97FDFA956283089519
:1049D0000895FC01329608962081261301C01082AA
:1049E0003196E817F907C1F70895262F26952695E1
:1049F00026952E3168F4FC01E20FF11D677021E06D
:104A000030E001C0220F6A95EAF78281282B2283C9
:104A10000895262F2695269526952E3170F4FC01B3
:104A2000E20FF11D677021E030E001C0220F6A95AE
:104A3000EAF72095828128232283089520911F027E
:104A4000222329F02091A60627FD0C94F5240C942E
:104A5000CF2420911F02222329F02091A60627FDB2
:104A60000C9409250C94E92420911F02FC01329634
:104A7000222331F08091A60687FF02C08EE101C09B
:104A800086E0DF011D928A95E9F7089508950E9456
:104A9000FE028091AC06843049F11092940420E427
:104AA00088E190E00FB6F894A895809360000FBE5F
:104AB0002093600080E00E947D030E94FE0283B785
:104AC000817F846083BF83B7816083BF789488953A
:104AD00083B78E7F83BF0FB6F894A895809160004E
:104AE000886180936000109260000FBE0895089561
:104AF0000895CF930E9477250E94ED060E947825A5
:104B0000C0E08C2F0E949806892B29F4CF5FC53016
:104B1000C1F780E001C081E0CF91089508950E941F
:104B2000311E0E9408190E947D030C9403031F92FA
:104B30000F920FB60F9211248F939F93AF93BF9351
:104B400080919404811113C08091A2069091A306D4
:104B5000A091A406B091A5064196A11DB11D809318
:104B6000A2069093A306A093A406B093A506BF91B6
:104B7000AF919F918F910F900FBE0F901F9018953E
:104B800082E084BD93E095BD9AEF97BD80936E005F
:104B900008952FB7F8948091A2069091A306A09152
:104BA000A406B091A5062FBF08952FB7F894609181
:104BB000A2067091A3068091A4069091A5062FBF2E
:104BC0000895CF92DF92EF92FF920F931F932FB72A
:104BD000F8944091A2065091A3066091A4067091AA
:104BE000A5062FBF6A017B01EE24FF248C0120E083
:104BF00030E0C016D106E206F30610F44150510928
:104C00009A01281B390BC9011F910F91FF90EF905A
:104C1000DF90CF900895CF92DF92EF92FF920F93A3
:104C20001F932FB7F894C090A206D090A306E090EF
:104C3000A406F090A5062FBF97018601061B170B4F
:104C4000280B390BC616D706E806F90618F0C90175
:104C5000B80106C0C901B801615071098109910903
:104C60001F910F91FF90EF90DF90CF90089578946F
:104C70001F920F920FB60F9211248F939F93AF93B1
:104C8000BF938091A2069091A306A091A406B09133
:104C9000A5060196A11DB11D8093A2069093A306BF
:104CA000A093A406B093A506BF91AF919F918F9159
:104CB0000F900FBE0F901F90189581E08093E00039
:104CC00080E28093D8001092C9008FE19EE40197A2
:104CD000F1F700C0000087E090EBDC018093B5069F
:104CE0009093B606A093B706B093B8069CE088E10F
:104CF0000FB6F894A895809360000FBE9093600063
:104D0000FFCF0E941224811102C00E94B2240E948F
:104D10001D24809393040E9425249093A7068093DA
:104D2000A6060E942124682F70E080E090E00C9499
:104D30008F218091980480FF0BC06091120285E062
:104D4000689FB001112475956795759567952BC07F
:104D500081FF09C06091120285E0689FB0011124B3
:104D60007595679520C082FF07C06091120285E0AB
:104D7000689FB001112417C0909197049923D1F036
:104D800060911102961788F72091120285E0289F02
:104D900090011124929FA001939F500D112470E067
:104DA000CA010E94F32F6038710540F46115710546
:104DB00039F002C065E070E0862F08958FE708950E
:104DC00081E008958091980480FF08C060911002EE
:104DD00070E0759567957595679521C081FF06C050
:104DE0006091100270E07595679519C082FF04C04C
:104DF0006091100270E010C0909197049923C1F067
:104E000060910F029617A0F780911002899FC00150
:104E1000112470E00E94F32F6038710528F46115A9
:104E2000710521F0862F08958FE7089581E0089598
:104E300061E070E0F4CF803F21F40E9499268195D3
:104E400004C0813F29F40E94992680939C04089510
:104E5000823F21F40E949926819504C0833F29F462
:104E60000E94992680939B040895893F19F40E941B
:104E7000E22605C08A3F31F40E94E22681958093A4
:104E80009D0408958B3F21F40E94E226819504C081
:104E90008C3F29F40E94E22680939E040895843F6B
:104EA00021F480919A04816017C0853F21F480919C
:104EB0009A04826011C0863F21F480919A04846034
:104EC0000BC0873F21F480919A04886005C0883F19
:104ED00031F480919A04806180939A0408958D3F03
:104EE00021F48091980481600BC08E3F21F4809161
:104EF0009804826005C08F3F29F4809198048460F3
:104F0000809398040895803F39F480919C0487FF32
:104F10006CC010929C0469C0813F29F480919C046C
:104F20001816BCF362C090919B04823F29F497FF4E
:104F30005CC010929B0459C0833F19F41916CCF33E
:104F400054C0893F41F480919D0418160CF04DC067
:104F500010929D044AC08A3F29F480919D0487FFE6
:104F600044C0F6CF8B3F39F480919E0487FF3DC04B
:104F700010929E043AC08C3F29F480919E0418162A
:104F8000BCF333C0843F21F480919A048E7F17C014
:104F9000853F21F480919A048D7F11C0863F21F4D2
:104FA00080919A048B7F0BC0873F21F480919A04F3
:104FB000877F05C0883F31F480919A048F7E80936B
:104FC0009A0413C08D3F21F4809198048E7F0BC00A
:104FD0008E3F21F4809198048D7F05C08F3F29F486
:104FE000809198048B7F8093980480919B04811119
:104FF0000EC080919C0481110AC080919D04811192
:1050000006C080919E04811102C0109297040895F9
:1050100089E994E00E943B190E94C9259093960467
:105020008093950408951F93CF93DF938091950407
:10503000909196040E94E125AC01909197049923E8
:1050400021F02091130230E006C0209114028AE082
:10505000289F900111244217530708F47BC08091C8
:105060009B04C0919C04D0919D0410919E048111D9
:1050700007C0C1116BC0D11169C0111167C06AC0EE
:105080009F3F19F09F5F90939704181624F40E9495
:10509000992680939B0480919B0487FF05C00E9402
:1050A0009926819580939B041C1624F40E949926CE
:1050B00080939C0480919C0487FF05C00E949926E0
:1050C000819580939C0430919B043323E1F02091DF
:1050D0009C042223C1F045EB3403C0011124892F25
:1050E000990F990B009709F481E080939B0435EBAD
:1050F0002303C0011124892F990F990B009709F4FC
:1051000081E080939C041D1624F40E94E226809383
:105110009D0480919D0487FF05C00E94E226819531
:1051200080939D04111624F40E94E22680939E042D
:1051300080919E0487FF05C00E94E226819580939E
:105140009E04DF91CF911F910C9408289F3F09F096
:1051500099CFA1CFDF91CF911F910895E9E9F4E0B4
:1051600086E0DF011D928A95E9F71092970410926C
:10517000980408958091BF0408950F931F93CF93CF
:10518000DF9300D01F92CDB7DEB78C010E94262B93
:10519000823011F0843021F584E089831B830A83F7
:1051A00082E08093E9008FEF9091E800815095FDB7
:1051B00006C095ED9A95F1F700008111F5CF809129
:1051C000E80085FF0DC040E050E063E070E0CE01F4
:1051D00001960E94432B8091E8008E778093E8002F
:1051E0000F900F900F90DF91CF911F910F91089525
:1051F000CF93DF9300D01F92CDB7DEB72091AC06DE
:10520000243031F523E02983805891099B838A83D8
:1052100082E08093E9008FEF9091E800815095FD46
:1052200006C095ED9A95F1F700008111F5CF8091B8
:10523000E80085FF0DC040E050E063E070E0CE0183
:1052400001960E94432B8091E8008E778093E800BE
:105250000F900F900F90DF91CF910895CF93DF9330
:10526000EC010E94262B823011F08430F9F482E0A8
:105270008093E9009FEF8091E800915085FD06C082
:1052800085ED8A95F1F700009111F5CF8091E80046
:1052900085FF0CC040E050E066E070E0CE010E9467
:1052A000432B8091E8008E778093E800DF91CF91C7
:1052B0000895CF93DF93EC010E94262B823011F0EA
:1052C0008430D9F580911F02882339F08091A60699
:1052D00087FF03C060E282E002C068E081E0809363
:1052E000E9008FEF9091E800815095FD06C095EDA3
:1052F0009A95F1F700008111F5CF8091E80085FFC4
:105300001CC080911F02811105C040E050E068E0A0
:1053100070E003C070E040E050E0CE010E94432BFB
:105320008091E8008E778093E80080E2FE01AFE98B
:10533000B4E001900D928A95E1F7DF91CF91089545
:105340008091AB06811109C00E94D82C0E94352D96
:105350008091E20084608093E20008951092AB0691
:105360000895089508950C948F2542E061EC81E042
:105370000E94522C42E261EC82E00C94522C80910B
:10538000AE06833009F460C030F4813071F08230B1
:1053900009F499C008958A3009F485C08B3009F466
:1053A0006BC0893009F0A7C020C08091AD06813A5A
:1053B00009F0A1C08091E800877F8093E800809188
:1053C000B1069091B206892B21F460E28FE994E056
:1053D00003C060E080E090E070E00E948E2B80913E
:1053E000E8008B778093E80008958091AD068132C4
:1053F00009F081C08091B1069091B206029708F041
:105400007AC08091E800877F8093E8008091E8006F
:1054100082FD05C08091AC068111F8CF6CC020914F
:10542000F3008091F20090E0922B029729F4809192
:10543000F1008B7F813021F48091F1008093BF04D3
:105440008091E8008B7753C08091AD06813A09F0D6
:1054500052C08091B1069091B206892B09F04BC0E1
:105460008091E800877F8093E8008091E80080FFCA
:10547000FCCF80911F0236C08091AD068132D9F5F4
:105480008091B1069091B206892BA9F58091E80030
:10549000877F8093E8000E94872C8091AF068093DD
:1054A0001F020C94311E8091AD06813221F580914E
:1054B000E800877F8093E8000E94872C8091B006E7
:1054C0008093C00408958091AD06813AA1F4809143
:1054D000E800877F8093E8008091E80080FFFCCFA0
:1054E0008091C0048093F1008091E8008E778093D2
:1054F000E8000C94872C089584B7877F84BF0FB68B
:10550000F894A89580916000886180936000109263
:1055100060000FBE90E080E80FB6F89480936100C1
:10552000909361000FBE0E9483190E94D82C0E94A4
:10553000352D8091E20084608093E20078940E948F
:10554000C42F0E948B1985E192E00E94031980917B
:10555000AC06853069F40E9447258091AA0688230D
:10556000B1F30E947925882391F30E942D2BEFCF70
:105570000E949319ECCF0C94BD2A292F3327233096
:105580003105C9F064F42130310581F02230310554
:1055900009F04CC08BE390E02CE134E04BC02132A9
:1055A000310521F12232310589F140C082E190E0DC
:1055B00027E534E03FC099278130910571F02CF444
:1055C000892BA1F5E8E1F4E00DC08230910541F0AE
:1055D000039761F5E0EFF3E005C0E8E0F4E002C016
:1055E000E6EFF3E0849190E09F0124C0611571051E
:1055F00041F061307105D1F489E090E027E434E0B6
:1056000019C089E090E02EE234E014C06115710504
:1056100041F06130710551F480EC90E029E634E00E
:1056200009C080E490E029E235E004C080E090E029
:1056300020E030E0FA013183208308958091AC06A8
:10564000843011F081E0089582E008958091C104D2
:10565000811102C00C941E2B089580E189BD82E166
:1056600089BD09B400FEFDCF8091D8008F7D809365
:10567000D8008091E00082608093E0008091E0009B
:1056800081FDFCCF0895CF92DF92EF92FF920F93AE
:105690001F93CF93DF93EC018B016A010E94A62C2C
:1056A000811133C0C114D10439F0F6018081918198
:1056B000081B190BC80FD91FE12CF12C011511057E
:1056C00019F18091E80085FD16C08091E8008E7781
:1056D0008093E800C114D10449F0F60180819181E2
:1056E000E80EF91EF182E08285E00FC00E94A62C30
:1056F000882321F30AC089918093F1000150110998
:10570000FFEFEF1AFF0ADACF80E0DF91CF911F9110
:105710000F91FF90EF90DF90CF9008952091B30606
:105720003091B4062617370748F06115710539F432
:105730002091E8002E772093E80001C0B90140E0F5
:1057400061157105A9F12091AC06222309F443C02B
:10575000253009F442C02091E80023FD40C020918B
:10576000E80022FD32C02091E80020FFE9CF4091FF
:10577000F3002091F20030E0342BFC01CF016115E1
:10578000710559F02830310540F481918093F10082
:10579000615071092F5F3F4FF1CF41E02830310553
:1057A00009F040E02091E8002E772093E800C8CF70
:1057B0004111C9CF0AC08091AC06882361F08530C1
:1057C00061F08091E80083FD0AC08091E80082FFCB
:1057D000F2CF80E0089582E0089583E0089581E0AB
:1057E00008952091B3063091B4062617370748F084
:1057F0006115710539F42091E8002E772093E800B7
:1058000001C0B901FC0120E06115710591F18091A1
:10581000AC06882309F440C0853009F43FC080916C
:10582000E80083FD3DC08091E80082FD2FC080919B
:10583000E80080FFE9CF2091F3008091F20090E032
:10584000922B6115710559F08830910540F424912F
:105850002093F1003196615071090196F2CF21E059
:10586000089709F020E08091E8008E778093E800A7
:10587000CBCF2111CCCF0AC08091AC06882361F038
:10588000853061F08091E80083FD0AC08091E800D6
:1058900082FFF2CF80E0089582E0089583E00895CA
:1058A00081E00895982F973058F59093E900981764
:1058B00039F07091EC002091ED005091F00003C0A0
:1058C000242F762F50E021FF19C03091EB003E7F4E
:1058D0003093EB003091ED003D7F3093ED0030913F
:1058E000EB0031603093EB007093EC002093ED00FF
:1058F0005093F0002091EE0027FF07C09F5FD3CFA9
:105900008F708093E90081E0089580E00895809190
:10591000AD0687FF11C08091E80082FD05C080912F
:10592000AC068111F8CF11C08091E8008B770BC0D5
:105930008091AC06882349F08091E80080FFF8CF81
:105940008091E8008E778093E80008952091E4002C
:105950003091E50095E64091EC00842F817040FF86
:1059600022C08091E80080FD1CC08091AC06882395
:1059700091F0853091F08091EB0085FD10C0409151
:10598000E4005091E5004217530729F39A01915022
:1059900011F784E0089582E0089583E0089581E09E
:1059A000089580E008954091E80042FFDECF089519
:1059B0000E94462D0E944E2DE0EEF0E08081816035
:1059C0008083E8EDF0E080818F77808319BCA7EDBC
:1059D000B0E08C918E7F8C9380818F7E808310923B
:1059E000AB0608950F931F93CF93DF930E94462D2C
:1059F0000E944E2DC8EDD0E088818F778883888102
:105A00008068888388818F7D888319BC1092AC065A
:105A10001092A8061092AA061092A90600EE10E0B5
:105A2000F80180818B7F808388818160888342E058
:105A300060E080E00E94522CE1EEF0E080818E7FF9
:105A40008083E2EEF0E080818160808380818860E5
:105A50008083F80180818E7F808388818061888344
:105A6000DF91CF911F910F910895E8EDF0E08081D3
:105A70008F7E8083E7EDF0E080818160808384E029
:105A800082BF81E08093AB060C94F22CE8EDF0E04D
:105A900080818E7F80831092E20008951092DA0058
:105AA0001092E10008951F920F920FB60F921124E9
:105AB0002F933F934F935F936F937F938F939F9316
:105AC000AF93BF93EF93FF938091E10082FF0BC0F0
:105AD0008091E20082FF07C08091E1008B7F80937C
