:100000000C9403040C94D5150C944A040C944A04E3
:100010000C944A040C944A040C944A040C944A0428
:100020000C944A040C944A040C945F2A0C94312BCF
:100030000C9471240C944A040C944A040C944A04C1
:100040000C944A040C944A040C944A040C944A04F8
:100050000C944A040C94D9240C944A040C944A0439
:100060000C944A040C944A040C944A040C944A04D8
:100070000C944A040C944A040C944A040C944A04C8
:100080000C944A040C944A040C944A040C944A04B8
:100090000C944A040C944A040C944A040C944A04A8
:1000A0000C944A040C944A040C944A04591A591AA0
:1000B0008B1A8B1AD81A3B1C3B1C3B1CF81A951B3D
:1000C000A61BA61B071C101C3B1C341CB91CB91C0E
:1000D000CB1CCB1CC21CCB1CCB1CCB1CB91CB91C15
:1000E000C71CCB1CCB1CC71C9E2BC52BB72CC52BF0
:1000F000B72C112C342CB72C8A2C992C29001E00DB
:100100001F002000210022002B0014001A0008000C
:1001100015001700350004001600070009000A004A
:10012000E1001D611B640668190005000000000065
:100130002F6830412C002C002A00270026002500C3
:10014000240023003100130012000C0018001C00D2
:10015000340033000F000E000D000B00E500387175
:100160003774367810001100000000002E002D00BA
:1001700028002800CA5CC95C0000000000000000E4
:10018000C65CC55C00002F0230020000C35CC45C8A
:1001900000002602270200000000000000002F00DF
:1001A0003000000000000000000001002C002C00C6
:1001B0002A00000000000000000000000000000015
:1001C0000000000000000000000033024F00520059
:1001D000510050000000000000000000000000007E
:1001E000000000000000000028002800444542559F
:1001F000473A2064697361626C65642E0A00444565
:100200004255473A20656E61626C65642E0A000AA9
:100210000025303862003A200025303258000A723A
:100220002F632030313233343536370A007267623B
:100230006C696768742073657420687376205B4E00
:100240004F454550524F4D5D3A2025752C25752C54
:1002500025750A007267626C69676874207365743B
:1002600020687376205B454550524F4D5D3A2025FE
:10027000752C25752C25750A007267626C69676894
:10028000742064697361626C65205B4E4F45455014
:10029000524F4D5D3A207267626C696768745F63A4
:1002A0006F6E6669672E656E61626C65203D202504
:1002B000750A007267626C696768742064697361AB
:1002C000626C65205B454550524F4D5D3A20726728
:1002D000626C696768745F636F6E6669672E656ECE
:1002E00061626C65203D2025750A007267626C6949
:1002F00067687420656E61626C65205B454550528D
:100300004F4D5D3A207267626C696768745F636F16
:100310006E6669672E656E61626C65203D2025758D
:100320000A007267626C6967687420746F67676C33
:1003300065205B454550524F4D5D3A207267626CB7
:10034000696768745F636F6E6669672E656E616268
:100350006C65203D2025750A007267626C696768CC
:1003600074206D6F6465205B4E4F454550524F4D74
:100370005D3A2025750A007267626C6967687420AF
:100380006D6F6465205B454550524F4D5D3A2025A9
:10039000750A007267626C696768745F696E697478
:1003A000207267626C696768745F636F6E66696705
:1003B0002E6D6F6465203D20302E20577269746564
:1003C0002064656661756C742076616C7565732058
:1003D000746F20454550524F4D2E0A007267626C73
:1003E000696768745F696E6974206565636F6E66BE
:1003F0006967206973206E6F7420656E61626C6539
:10040000642E0A007267626C696768745F696E695E
:1004100074207374617274210A007267626C696778
:1004200068745F696E69742063616C6C65642E0A20
:10043000007267626C696768745F636F6E66696794
:100440002E7370656564203D2025640A0072676222
:100450006C696768745F636F6E6669672E76616C3E
:10046000203D2025640A007267626C696768745FCA
:10047000636F6E6669672E736174203D2025640A80
:10048000007267626C696768745F636F6E66696744
:100490002E687565203D2025640A007267686C69C6
:1004A0006768745F636F6E6669672E6D6F64652041
:1004B0003D2025640A007267626C696768745F6337
:1004C0006F6E6669672E656E61626C65203D2025E2
:1004D000640A007267626C696768745F636F6E6656
:1004E000696720454550524F4D3A0A006261636B7F
:1004F0006C6967687420737465703A2025750A000A
:100500006261636B6C696768742064697361626CB3
:10051000650A006261636B6C6967687420656E616F
:10052000626C650A006261636B6C69676874207451
:100530006F67676C653A2025750A006261636B6CB2
:10054000696768742064656372656173653A202524
:10055000750A006261636B6C6967687420696E6319
:1005600072656173653A2025750A00000101010179
:10057000010101010102020202020202020203035E
:10058000030303030303040404040404040505052E
:1005900005050606060606070707070708080808F0
:1005A000090909090A0A0A0B0B0B0C0C0C0D0D0D9D
:1005B0000E0E0E0F0F0F1010111111121213131433
:1005C00014151516161717181819191A1A1B1B1CAB
:1005D0001D1D1E1E1F202021222223242425262605
:1005E000272829292A2B2C2D2D2E2F30313232333A
:1005F0003435363738393A3B3C3D3E3F4041424343
:100600004445464748494A4C4D4E4F505153545526
:100610005658595A5B5D5E5F616264656668696BD6
:100620006C6D6F7072737577787A7B7D7E80828354
:100630008587888A8C8E8F91939596989A9C9EA098
:10064000A2A3A5A7A9ABADAFB1B3B5B7BABCBEC0A5
:10065000C2C4C6C9CBCDCFD1D4D6D8DBDDDFE2E46E
:10066000E7E9EBEEF0F3F5F8FAFDFF0A002530328A
:100670005820006B6579626F6172645F7265706F9C
:1006800072743A20000A0025303258006B65796296
:100690006F6172645F7365745F6C65643A20005BC0
:1006A000735D004B6579626F61726420737461726F
:1006B000742E0A005B575D005B535D005B525D006A
:1006C0005B445D005B435D000403300000001C03DD
:1006D000490072006900730020004B00650079003A
:1006E00062006F0061007200640000000E034B00A6
:1006F00065006500620069006F00000004030904E2
:1007000009025B00030100A0FA09040000010301D3
:1007100001000921110100012240000705810308A1
:10072000000A090401000103000000092111010071
:10073000012236000705820320000A090402000294
:100740000300000009211101000122220007058396
:10075000032000010705030320000112011001001E
:1007600000000810CB56120004010203010631FFFD
:100770000974A1010975150026FF009520750881EF
:10078000020976150026FF00952075089102C00524
:10079000010980A10185031A81002A830016010046
:1007A000260300950175108100C0050C0901A10107
:1007B00085041A01002A9C02160100269C0295015C
:1007C00075108100C005010906A101050719E0297E
:1007D000E7150025019508750181029501750881CD
:1007E000010507190029FF150026FF009506750869
:1007F00081000508190129059505750191029501EA
:1008000075039101C00011241FBECFEFDAE0DEBFF7
:10081000CDBF04B603FE27C08091690290916A02A1
:10082000A0916B02B0916C028730904BA740B04B07
:10083000D1F41092690210926A0210926B02109227
:100840006C0214BE84B7877F84BF0FB6F894A89556
:1008500080916000886180936000109260000FBEFC
:10086000E0E0F8E3099511E0A0E0B1E0ECE4FBE59D
:1008700002C005900D92AA35B107D9F722E0AAE58A
:10088000B1E001C01D92A936B207E1F70E947A27B4
:100890000C94A42D0C940000FF93EF93E0915A0167
:1008A000F0915B01309709F00995EF91FF91089560
:1008B000FC018591803011F0EFDFFBCF0895FF2719
:1008C000E0E230E247FF0CC0419597FF09C0EDE23E
:1008D0006095709580959095611D711D811D911D8C
:1008E00027FF02C0219530E350E2AA27660F771F49
:1008F000881F991FAA1FA41710F0A41B63955A956F
:10090000A9F7AA3008F0A95FA05DAF93F395611530
:1009100071058105910541F7ED3211F4EF93F395DF
:10092000F21718F43F93F395FBCF8F91B5DFFA954B
:10093000E1F70895E991F9918591803021F08532B0
:1009400019F0AADFF9CF089520E0E89455915532C7
:10095000C1F3503311F4689455915A3348F450530D
:1009600090F3220F022E220F220F200D250FF4CF1D
:100970000EF4219589919991533619F3533729F142
:10098000533559F1BC0188279927E8945C3621F446
:100990008991999168945591543639F446EF7EF0D7
:1009A00077FF0DC08FEF9FEF0AC055374AE039F04F
:1009B000583540E121F0523642E009F00895FF93A6
:1009C000EF937DDFEF91FF91B7CFFF93EF93FC01A2
:1009D00081918030B9F360DFFBCFFF93EF9368DF45
:1009E000F1CFDF93CF93CDB7DEB72596A3DFCF91BD
:1009F000DF91089581E0089581E008950C94FC044E
:100A00001F93CF93DF9300D000D01F92CDB7DEB7F6
:100A100049835A832091A40189819A81211112C0AE
:100A2000662349F00E94E021182F682F89819A815E
:100A30000E94832103C00E94B321182F69817A810B
:100A4000812F04C00E94E02169817A810F900F906C
:100A50000F900F900F90DF91CF911F910C94D407BE
:100A6000FC01408151816281738184810C94000575
:100A70000E942B23811102C00E94D4230E9459138B
:100A80000E94CE130C94B70A0E9458130E9430148F
:100A90000C94BA0A08950C944A050C944B050895D9
:100AA0000E94A91C0E944F052FEF84E39CE0215077
:100AB00080409040E1F700C000000C94FF240F93A9
:100AC0001F93CF93DF938C010E943005EC01B80196
:100AD0000E94FE04882309F45CC2B801CE010E9482
:100AE000DB14882309F455C2C83CFCE5DF0739F460
:100AF000F801C281C1114DC20E943F104BC2C93CD6
:100B00008CE5D80708F0D2C1C23CECE5DE0739F429
:100B1000F801C281C1113DC20E94D4103BC2C33C46
:100B2000FCE5DF0708F07DC1C6318CE5D80708F089
:100B30004EC1C230ECE5DE0708F419C1F80182812C
:100B4000882309F41BC10E942B23811102C00E943B
:100B5000D4230E943E2390935B0280935A02C031BB
:100B6000FCE5DF0709F4C3C008F041C0C830ECE57C
:100B7000DE0709F49AC0F0F4C4308CE5D80709F414
:100B800087C068F4C230FCE5DF0709F477C0C330E2
:100B9000DC4509F0E3C080915A02826076C0C6301D
:100BA000ECE5DE0709F46EC008F07BC080915A02C4
:100BB00088606BC0CC308CE5D80709F485C068F438
:100BC000CA30FCE5DF0709F474C008F079C00E9460
:100BD000A91C80915A02806858C0CE30ECE5DE072F
:100BE00009F476C008F07FC080915A028BC0CB3FD9
:100BF0008CE5D80709F44FC018F5C331FCE5DF07D1
:100C000009F47DC078F4C131ECE5DE0709F473C066
:100C1000C231DC4509F0A2C00E94A91C80915A0291
:100C20008F7733C0C5318CE5D80709F472C008F45A
:100C300086C0CA3FDC4509F091C080915B023EC08E
:100C4000CF3F8CE5D80709F45FC058F4CD3FFCE5F1
:100C5000DF0709F444C008F43FC080915B02826062
:100C60002DC0C130EDE5DE0709F475C008F45DC0A4
:100C7000C230DD4509F072C080E06EC080915A023A
:100C8000816003C080915A02806180935A0266C0DD
:100C900080915A0211C080915B02826080935B0256
:100CA0005DC080915A028062F0CF80915A028064C8
:100CB000ECCF80915A0288608460E7CF8160EECFEC
:100CC00080915A028E7FE1CF80915A028D7FDDCFD5
:100CD00080915A02877FD9CF80915B0218C08091A2
:100CE0005B028D7FDBCF80915A028F7ECECF8091C9
:100CF0005A028F7DCACF80915A028F7BC6CF8091D6
:100D00005A02877F8B7FC1CF80915B028D7F8E7F60
:100D1000C5CF80915A0282FB222720F991E09227C9
:100D200090FB82F990FB83F9B0CF80915B02982F02
:100D3000909591708E7F892B90FB81F9AFCF0E94A7
:100D4000A91C80915A0287FB222720F991E0922763
:100D500090FB87F99ACF81E00E94D62380915A02B6
:100D600090915B020E944F230E94A91C12C1C115E1
:100D7000FCE5DF0751F0C130DC4579F0C801DF91B7
:100D8000CF911F910F910C94FA04F801C281CC23EA
:100D900009F400C10E945005FCC0F801C281CC23B7
:100DA00009F4F8C080911A02C82FC095C170C0FB29
:100DB00080F980931A02CC2329F08EEF91E00E94F3
:100DC0005804E7C08CEE91E00E945804E3C0C6319D
:100DD000DC45A1F60E946022282FF8018281409113
:100DE000250150912601882379F02A7A91E009F4AF
:100DF00090E090935C01911102C069E201C065E34B
:100E0000CA010E940D240AC080915C01811102C0B8
:100E100069E201C065E3CA010E940F240E94AC226E
:100E2000B8C0C53CFCE5DF0739F4F801C281C11147
:100E3000B0C00E941410AEC0C63C8CE5D80700F5C7
:100E4000C33CECE5DE0761F4F801C281CC2309F470
:100E5000A1C00E946022827281F00E94B31099C0EA
:100E6000C43CDC4509F08ACFF801C281CC2309F4E7
:100E700091C00E946022827281F30E94A61089C0F4
:100E8000C63C8CE5D80739F4F801C281C11181C094
:100E90000E9421107FC0C73CDC4509F06FCFF801EC
:100EA000C281C11176C00E94301074C0C63DFCE5FD
:100EB000DF0708F042C0CE3C8CE5D80708F069C0D7
:100EC000CB3CECE5DE0741F4F801C281CC2309F408
:100ED00061C00E94D40E5DC0CC3CFCE5DF07B0F4DD
:100EE000C93C8CE5D80739F4F801C281C11151C061
:100EF0000E944E104FC0CA3CDC4509F03FCFF801BC
:100F0000C281C11146C00E945D1044C0CC3CFCE5CA
:100F1000DF0739F4F801C281CC23E1F10E94E50E2C
:100F200038C0CD3CDC4509F029CFF801C281CC2383
:100F300089F181E00E94B6102CC0CE3DECE5DE07C1
:100F400039F4F801C281CC2329F10E94D42321C0B5
:100F5000CF3DFCE5DF07B0F4CC3D8CE5D80731F49C
:100F6000F801C281CC23B1F080E009C0CD3DDC4561
:100F700009F004CFF801C281CC2361F082E00E9425
:100F8000222807C0CE018A5F9C45099708F4D6CD78
:100F9000F5CEC0E08C2FDF91CF911F910F91089576
:100FA00080E090E00895089596E0799FF001112483
:100FB0009CE3899FE00DF11D1124E60FF11DEE0F5A
:100FC000FF1FE450FF4F859194910895880F991F5A
:100FD000FC01E15FFD4F859194910895CF93DF93DC
:100FE0000E94D4070E94DF09EC01811521E59207D8
:100FF00008F042C0811560E5960708F02FC1883ED1
:10100000910500F5803E910508F0D5C1883A91051B
:1010100070F4853A910508F0A4C08130910509F477
:10102000CAC108F47BC1049708F0C5C177C18F3BE2
:10103000910508F4A1C0803C910508F46FC1805C63
:101040009109FBC0C11580E3D80780F4C11590E277
:10105000D90708F0F0C0C03FD10508F45FC1CF3F09
:10106000D10511F008F0A7C1D065A5C1C11520E4D4
:10107000D20708F0F0C0E5C0811569E5960760F574
:10108000C11588E5D80708F035C1C11594E5D90721
:1010900078F4C11523E5D20708F011C1C11562E546
:1010A000D60708F0F6C0DC2FCC27C16FD06A83C109
:1010B000C11585E5D80708F418C1C11596E5D9070B
:1010C00008F02CC18C2F0E94730A8F71C82FD0E0BA
:1010D000DC2FCC27D0626FC18D3B2CE5920709F441
:1010E00014C1E0F4CB3B8CE5D80709F408C108F043
:1010F00009C1C1152AE5D20708F010C18C2F8F70E5
:101100000E94730A94E0D695C7959A95E1F7CF703F
:10111000D0E0DC2FCC27D069C82B4DC1803C9C454A
:1011200009F4F9C0C13C8CE5D80760F4CE3B9CE5DE
:10113000D90709F4EDC0CF3BDC4509F0EFC0C0E0B2
:10114000D2ED39C1CE0190568115904208F0E6C02B
:101150008D2F8F710E94730ADD27D0628F71D82B7B
:101160002AC1853A910509F4DCC0863A910509F057
:10117000DBC0C2E8D0E41FC1883A910509F4D7C0AA
:10118000893A910509F4D6C08A3A910509F4D5C087
:101190008B3A910509F4D4C08C3A910509F4D3C077
:1011A0008B3B910509F4D2C08C3B910509F4D1C069
:1011B0008D3A910509F4D0C0803B910509F4CFC068
:1011C0008E3A910509F4CEC08F3A910509F4CDC04D
:1011D000813B910509F4CCC0823B910509F4CBC059
:1011E000833B910509F4CAC0843B910509F4C9C049
:1011F000853B910509F4C8C0863B910509F4C7C039
:10120000873B910509F4C6C0883B910509F4C5C028
:10121000893B910509F4C4C08D3B910509F4C3C015
:101220008E3B910509F4C2C08A3B910509F4C1C007
:10123000C0E0D4E4C0C0CE019F700E94E607EC017C
:10124000BAC0CE019927D3FF03C0EC01D86CB3C05C
:10125000EC01D06CB0C0DF70D06AADC0837021E00B
:1012600030E002C0220F331F8A95E2F73C68CE01BE
:1012700074E0969587957A95E1F78370382BCF7057
:10128000C695C69580E2C89FE0011124C22BD32BDE
:1012900092C04C2F4695469590E2499FA00111249B
:1012A000C370DD2721E030E0C90102C0880F991F1B
:1012B000CA95E2F7EC01C42BD52BDC687CC04C2F1F
:1012C0004695469580E2489FA0011124C370DD2712
:1012D00021E030E0C90102C0880F991FCA95E2F7EA
:1012E000EC01C42BD52BDA6866C0DC2FCC27C46F89
:1012F000D06A61C0DC2FCC27C06FD06A5CC0C0E070
:10130000D4ED59C0C0E0D5ED56C0C0E0D1ED53C01A
:10131000C0E0D0ED50C0C0E0D3ED4DC0C0E0D0E0A3
:101320004AC0C1E8D0E447C0C3E8D0E444C0C2EE3C
:10133000D4E441C0C9EED4E43EC0CAEED4E43BC01C
:10134000C5EBD4E438C0C6EBD4E435C0C3EBD4E479
:1013500032C0C4EBD4E42FC0C7EBD4E42CC0CCEC37
:10136000D4E429C0CDECD4E426C0C3E8D5E423C03E
:10137000CAE8D5E420C0C2E9D5E41DC0C4E9D5E47B
:101380001AC0C1E2D6E417C0C3E2D6E414C0C4E276
:10139000D6E411C0C5E2D6E40EC0C6E2D6E40BC066
:1013A000C7E2D6E408C0CFE6D4E405C0C0E7D4E481
:1013B00002C0CAE2D6E4CE01DF91CF91089582380F
:1013C000910569F1B0F48133910509F46DC048F4D9
:1013D0008932910509F463C08A32910509F469C024
:1013E00008958533910509F455C089339105B9F005
:1013F0000895833E910569F138F4803E9105B1F07E
:10140000823E910509F10895863E9105A9F1873E36
:101410009105B9F1843E910509F064C023C0209183
:101420005A0220FD4FC021FD4DC0089580915A02FF
:1014300080FD44C080915B0280FF44C080915A02CD
:1014400084FD42C083EE4DC080915A0282FF38C0B5
:10145000F5CF80915A0282FD33C080915B0280FDFE
:1014600031C0ECCF80915B0281FF32C080915A0283
:1014700084FD2AC087EE35C080915A0283FF26C0C2
:10148000F5CF80915A0283FD21C080915B0281FDDE
:101490001FC0ECCF80915A0285FD1CC01DC08091F9
:1014A0005A0285FD19C016C080915A0286FD16C0E9
:1014B00017C080915A0286FD13C010C089E311C085
:1014C00082EE0FC080EE0DC080E00BC086EE09C03A
:1014D00084EE07C089E205C085E303C08AE201C04B
:1014E00081E390E0089590915A0292FF0DC0282F59
:1014F0002871283019F4877F846006C0282F247152
:10150000243011F48B7F886093FF0DC0282F287141
:10151000283119F4877E846106C0282F2471243174
:1015200011F48B7E886120915B0220FF0DC0382F63
:101530003871383019F4877F816006C0382F3171D7
:10154000313011F48E7F886021FF0DC0282F287163
:10155000283119F4877E816106C0282F217121313D
:1015600011F48E7E886194FD877E089508950C9411
:10157000B60A08950C94B90A0895E82FF0E0ED59E1
:10158000FE4F80810895CF92DF92EF92FF920F93EA
:101590001F93CF93DF938EE192E00E94580483E67D
:1015A000E82E81E0F82EC0E0D0E099E1C92E92E06B
:1015B000D92E01E112E0DF93CF93DF92CF920E9408
:1015C000F10486E192E00E945804F70181917F01C5
:1015D0000E9415231F928F931F930F930E94F10473
:1015E0008FE092E00E94580421968DB79EB708962E
:1015F0000FB6F8949EBF0FBE8DBFCA30D105D9F685
:10160000DF91CF911F910F91FF90EF90DF90CF90DE
:101610000895CF93DF93CDB7DEB760970FB6F894F8
:10162000DEBF0FBECDBF0E94E10C80911001811181
:101630002CC0FE0131968AE0DF011D928A95E9F700
:1016400081E3898382E38A8382E98B8381EF8C83C0
:1016500084EF8D83A6E0B1E08AE08E0F91919D9397
:101660008E13FCCF86E0E2E3F1E0DE011B960190F1
:101670000D928A95E1F7A0E0B1E0FE013B9686E08D
:101680008E0F91919D938E13FCCF8091100181114B
:1016900002C095E001C090E090932B0285E0891B89
:1016A00080932A02A6E0B1E041E050E025E02A0F55
:1016B0008D91E82FE295EF70F0E031A18F70BA01C3
:1016C00002C0660F771F8A95E2F7CB01962F90959F
:1016D000932391A392A1892B82A32A13E9CFA0E09F
:1016E000B1E041E050E026E02A0F8D91E82FE2952D
:1016F000EF70F0E031A18F70BA0102C0660F771F62
:101700008A95E2F7CB01962F9095932391A392A10E
:10171000892B82A32A13E9CFE3E6F1E08AE08E0F5A
:1017200011928E13FDCF85E00E94870C60960FB654
:10173000F894DEBF0FBECDBFDF91CF910C9438057A
:10174000CF92DF92EF92FF920F931F93CF93DF938D
:10175000A6E0B1E0EEE5F1E0D12C41E050E085E01B
:10176000C82ECE0ECF01F08010826C91262F2295CC
:101770002F7030E0E90119A16F70EA0102C0CC0FAF
:10178000DD1F6A95E2F7BE01612BE90169A33C9177
:10179000632F62956F7070E0EB011AA13F70EA0150
:1017A00002C0CC0FDD1F3A95E2F79E012095212360
:1017B000EB012AA3D0EADA95F1F700E011E020E08E
:1017C00030E0E801E9908E016E2D62956F7070E057
:1017D000EB0168A170E0DE2DDF7002C075956795A2
:1017E000DA95E2F760FD07C0BA01022E01C0660F6C
:1017F0000A94EAF702C060E070E07081672B6083B2
:101800002F5F3F4F26303105E1F67C91272F22953F
:101810002F7030E0E90119A17F70EA0102C0CC0FFE
:10182000DD1F7A95E2F7BE0160956123E90169A3A6
:101830006D91262F22952F7030E0E9011AA16F706B
:10184000EA0102C0CC0FDD1F6A95E2F7BE01612BF1
:10185000E9016AA3319621E0EC018881F81201C008
:1018600020E0D22ACE127ECF60912B0270E06D591B
:101870007E4F2D2D45E08EE591E00E94880C8D2D48
:10188000DF91CF911F910F91FF90EF90DF90CF905C
:101890000895CF930E94A00BC82F0E94C40C8823E8
:1018A00039F120912A02822F90E08D599E4F0E949B
:1018B0001F0D811118C090915D019F5F90935D0194
:1018C000963098F040912A0220E030E050E0F90193
:1018D000E40FF51FED59FE4F10822F5F3F4F25306B
:1018E0003105A9F702C010925D010E9444050CC0A9
:1018F00020912B02822F90E08D599E4F0E944C0D1B
:101900000E9430140E94BC0A8C2FCF910895089534
:10191000FF920F931F93CF93DF938C01F62ED72F57
:10192000C42F222349F081E080936F010E94A324F9
:1019300090936E0180936D0180916F018823C1F0B7
:1019400080916D0190916E010E94AF24069780F006
:10195000EF2DFD2FD8014C2F50E0CD01801B910BB6
:10196000841795071CF48D918193F7CF10926F0126
:10197000DF91CF911F910F91FF900895559889B1F4
:1019800085FB882780F9089580917001811112C02C
:101990008091D80080618093D8008AE18A95F1F720
:1019A00000C08091D90080FD02C082E001C081E0CA
:1019B0008093700181E090917001913009F080E096
:1019C00008950E94BE0C809310018091100166E082
:1019D000882311F080E001C086E00E94040E0E947E
:1019E000C40C81110C94F60C0C94FC0C62E070E0B9
:1019F00081E191E00C947A1562E070E081E191E080
:101A00000C9483150E945B11882361F08AE791E0B2
:101A10000E94611181E090E00E946516892B11F40B
:101A20000C945E11089580917901883039F460E05A
:101A30008AE791E00E947411109279010895CF9382
:101A4000DF93D82FC92F0E94020D80E090E00E9402
:101A50006516892BE9F4ED2FFC2F80E090E0DC0186
:101A6000AD58BE4F2C912193019685309105B9F761
:101A70000E948412882319F00E94E51201C080E0C0
:101A80008093720188E791E00E94681481E001C0B0
:101A900080E0DF91CF910895CF93DF9300D0CDB751
:101AA000DEB789839A830E94130D8981E82F9A817A
:101AB000F92F80E090E02191DC01AD58BE4F2C93CE
:101AC000019685309105B9F7809172010E94FC1250
:101AD00088E791E00F900F90DF91CF910C94631401
:101AE000AF92BF92CF92DF92FF920F931F93CF934B
:101AF000DF93D62E372FE82FF0E0711106C0E5599D
:101B0000FA4F6491762F862F75C0C72FD0E0E55924
:101B1000FA4F2491F22E022F10E046E0649FC0019C
:101B20001124EFEFF0E0BF010E94062DAB016BEA3C
:101B30006403C001659F900D11248D0D911D8D0DC5
:101B4000911D982F990F890FDF01AC1BBD0B0A9FC8
:101B5000B0010B9F700D1A9F700D1124972F839F5A
:101B6000D0011124AB2FBB276F01CA1ADB0A0C9DD1
:101B7000D0010D9DB00D1C9DB00D11245F01A81A60
:101B8000B108AC9E6001AD9ED00CBC9ED00C11245F
:101B9000CD2DDD27EC1BFD0B0E9FE0010F9FD00D1F
:101BA0001E9FD00D1124ED2F4230510591F04CF4C1
:101BB00041155105E1F041305105B9F4E22F2B2FC9
:101BC00016C04430510569F044F04630510579F0B3
:101BD0000CC0E22F272F9D2F0AC0272F9F2DEB2F00
:101BE00006C0E72F922F2D2F02C0E72F9B2F6E2FBD
:101BF000722F892FDF91CF911F910F91FF90DF906E
:101C0000CF90BF90AF90089580938301609322019D
:101C10000895CF93DF93762FE901682F842F0E94D8
:101C2000700D798368838A83DF91CF9108958091C5
:101C30002C02982F9695913021F0817082608093CC
:101C40002C02089588E090E00C94642DCF93DF93EC
:101C500000D000D0CDB7DEB7AB01BC0149835A83B9
:101C60006B837C830E94170E49815A816B817C8132
:101C700088E090E00F900F900F900F90DF91CF9140
:101C80000C94822DECE2F2E083E0808311828FEFEE
:101C9000828383831482A5E8B1E012968C91129717
:101CA000836012968C9360817181828193810C9400
:101CB000260E80911A0280FF08C083ED94E09F9366
:101CC0008F930E94F1040F900F9080911A0280FF71
:101CD0000FC080912C0281701F928F9386EB94E04D
:101CE0009F938F930E94F1040F900F900F900F908D
:101CF00080911A0280FF0FC080912C0286951F925E
:101D00008F938BE994E09F938F930E94F1040F903F
:101D10000F900F900F9080911A0280FF0EC080915B
:101D20002D021F928F9381E894E09F938F930E94DE
:101D3000F1040F900F900F900F9080911A0280FF86
:101D40000EC080912E021F928F9387E694E09F939E
:101D50008F930E94F1040F900F900F900F9080913D
:101D60001A0280FF0EC080912F021F928F938DE484
:101D700094E09F938F930E94F1040F900F900F9027
:101D80000F9080911A0280FF0EC0809130021F9246
:101D90008F9381E394E09F938F930E94F1040F90BF
:101DA0000F900F900F90089580913002833018F4B7
:101DB0008F5F8093300260912C0270912D02809190
:101DC0002E0290912F020C94260E809130028823CF
:101DD00019F081508093300260912C0270912D0295
:101DE00080912E0290912F020C94260E6091220178
:101DF00070E080912C0280FF0AC08091830123E073
:101E0000829FC00111248F5C9D4F0C949D13809183
:101E1000820190912101891780F7E82FF0E09F015E
:101E2000220F331FE20FF31FEF5CFD4F1182108270
:101E300012828F5FF0CF80912C028E7F80932C02D4
:101E400060912C0270912D0280912E0290912F02B0
:101E50000E94260E80911A0280FF0FC080912C02F2
:101E600081701F928F9383EB92E09F938F930E94D8
:101E7000F1040F900F900F900F9080918701816077
:101E8000809387012FEF80E792E0215080409040BF
:101E9000E1F700C000000C94F60E80912C028E7FBA
:101EA00080932C0280911A0280FF0CC01F921F9217
:101EB00089E792E09F938F930E94F1040F900F9017
:101EC0000F900F90809187018160809387012FEFA1
:101ED00080E792E0215080409040E1F700C0000090
:101EE0000C94F60E90912C0290FF16C090918201F6
:101EF00020912101921770F4E92FF0E0DF01AA0F81
:101F0000BB1FEA0FFB1FEF5CFD4F818360834283A1
:101F10009F5FF0CF0C94F60E0895EF92FF920F930F
:101F20001F93CF93DF9300D01F92CDB7DEB7909170
:101F30002C0290FF65C0E22EF42E062F182FE92FF9
:101F4000E695F0E0E85CFE4F8081809385019E7FFE
:101F5000923059F49E012F5F3F4F812F0E94090E4E
:101F60004B8169818A810E94720F80912D028113B9
:101F700008C080912E02801304C080912F028F151B
:101F800029F08091870182608093870110932D0250
:101F900000932E02F0922F02EE20E9F060912C02C5
:101FA00070912D0280912E0290912F020E94260E98
:101FB00080911A0280FF24C080912F021F928F937C
:101FC00080912E021F928F9380912D021F928F93EA
:101FD00084E592E00CC080911A0280FF11C01F922C
:101FE000FF921F920F931F921F938DE292E09F9397
:101FF0008F930E94F1040FB6F894DEBF0FBECDBFE1
:102000000F900F900F90DF91CF911F910F91FF9044
:10201000EF900895ECE2F2E09181282F43816281F4
:1020200088E0890F0C948D0F81E00C940A10ECE28B
:10203000F2E09181282F4381628188EF890F0C940F
:102040008D0F81E00C941710ECE2F2E0628121E147
:10205000620F08F46FEF282F438181810C948D0F5C
:1020600081E00C942410ECE2F2E0628121E1621B39
:1020700008F460E0282F438181810C948D0F81E06A
:102080000C943310ECE2F2E0438121E1420F08F4BA
:102090004FEF282F628181810C948D0F81E00C9489
:1020A0004210ECE2F2E0438121E1421B08F440E0FF
:1020B000282F628181810C948D0F81E00C94511046
:1020C00020E00C948D0F80912C0280FF3AC081702B
:1020D000826080932C0280918701816080938701C8
:1020E0006623B1F060912C0270912D0280912E0236
:1020F00090912F020E94260E80911A0280FF19C033
:1021000080912C0286951F928F9387E793E009C0F8
:1021100080911A0280FF0DC01F9281E08F9389E5A4
:1021200093E09F938F930E94F1040F900F900F9074
:102130000F9040912F0260912E0280912D020C94FD
:1021400060100895682F81E00C94631081E00C9476
:10215000A210682F90912C0296958FEF890F09F4A9
:1021600081E00C94631081E00C94A91061E00C9460
:10217000631080912C02816080932C0280911A025E
:1021800080FF0DC01F9281E08F938BEE92E09F93B2
:102190008F930E94F1040F900F900F900F908091F9
:1021A0002C0286950C94B61080911A0280FF10C004
:1021B00080912C02809581701F928F9382E293E030
:1021C0009F938F930E94F1040F900F900F900F90A8
:1021D00080912C0280FD0C941B0F0C94B91060E0D0
:1021E0000C94631080918401811164C080911A0263
:1021F000816080931A028AE194E09F938F930E94FA
:10220000F10480911A020F900F9080FF08C084E0C3
:1022100094E09F938F930E94F1040F900F900E947F
:102220002B23811110C080911A0280FF08C08CED11
:1022300093E09F938F930E94F1040F900F900E9460
:10224000D4230E94420E0E94220E60932C027093AF
:102250002D0280932E0290932F028091870183603C
:10226000809387016E7FC1F480911A0280FF08C0BD
:1022700083E993E09F938F930E94F1040F900F9056
:102280000E94420E0E94220E60932C0270932D0237
:1022900080932E0290932F020E94170E0E94590ED7
:1022A00080912C0280FF03C086950E94EF1081E090
:1022B0008093840108958091870108951092870189
:1022C000089525E0ECE2F2E0DC0101900D922A9500
:1022D000E1F7209185013091860140918701FC0151
:1022E00025833683478308951F93CF93DF93EC01B3
:1022F000162F8F8180FF0FC0888180FF0AC08091D8
:102300002C02816080932C02888186950E94631044
:1023100002C00E944D0F8F8181FF09C0212F4B8188
:102320006A818981DF91CF911F910C948D0FDF918C
:10233000CF911F9108950E942B23811102C00E940A
:10234000D4230E945C2380935502282F269526953E
:10235000269530E02630310524F08770886280931E
:1023600055028091550280FF04C08695869586951A
:1023700001C080E00C94FC1220915502822F8695BA
:1023800086958695482F50E04530510554F48F5F6F
:10239000982F990F990F990F822F8770892B80930F
:1023A0005502809155028160809355020E946023FE
:1023B00080911A0280FF11C0809155028695869502
:1023C00086951F928F9383E595E09F938F930E944C
:1023D000F1040F900F900F900F9080915502869509
:1023E000869586950C94FC1280915502982F9695AF
:1023F00096959695A1F0915E990F990F990F877018
:10240000892B80935502887F91E009F490E08091B8
:10241000550290FB80F9809355020E9460238091C1
:102420001A0280FF11C08091550286958695869587
:102430001F928F938BE395E09F938F930E94F104FB
:102440000F900F900F900F90809155028695869572
:1024500086950C94FC128091550280FD1FC081600E
:1024600080935502813019F489E080935502809160
:1024700055020E94602380911A0280FF08C083E108
:1024800095E09F938F930E94F1040F900F9080919D
:1024900055028695869586950C94FC120895809138
:1024A000550280FF14C08E7F809355020E946023E6
:1024B00080911A0280FF08C080E095E09F938F937F
:1024C0000E94F1040F900F9080E00C94FC1208958C
:1024D000CF93C0915502C17080911A0280FF0CC049
:1024E0001F92CF9385E295E09F938F930E94F10412
:1024F0000F900F900F900F90CC2319F0CF910C9468
:102500004F12CF910C942B12809155028170089537
:1025100090915502892F8695869586958F5F8F714C
:102520009770863038F4880F880F880F892B809336
:10253000550202C09093550280915502887F91E028
:1025400009F490E08091550290FB80F98093550248
:102550000E94602380911A0280FF11C08091550271
:102560008695869586951F928F938CEE94E09F9327
:102570008F930E94F1040F900F900F900F90809115
:1025800055028695869586950C94FC12863008F047
:1025900085E0880F880F880F909155029770892BDE
:1025A00080935502887F91E009F490E08091550274
:1025B00090FB80F9809355020E9460238091550220
:1025C0008695869586950C94FC1280915502869589
:1025D000869586950895E82FE295EF70F0E032A198
:1025E000282F2F7081E090E001C0880F2A95EAF72C
:1025F0008095832382A30895CF92DF92EF92FF927A
:10260000863030F4811105C0909180009F7704C01E
:1026100085E090918000906890938000282F30E0B2
:10262000AFEFBFEF0E94422D25E030E040E050E0E8
:102630000E941A2D2C3784E138074105510530F4EA
:10264000C90169E070E00E94062D29C0DA01C901C4
:102650008A50974DAF4FBF4F6627782F892F9A2FFB
:1026600025EF38E241E050E00E941A2D69017A011D
:10267000CA01B9010E94EA2C9B01AC01C701B60155
:102680000E94EA2CBB27A92F982F872F009721E0C3
:10269000A207B10511F0BC0102C06FEF7FEF70938C
:1026A000890060938800FF90EF90DF90CF900895AD
:1026B0000895259A85E30E94EB1282E880938000BA
:1026C00089E1809381008FEF9FEF90938700809343
:1026D00086000C949B112BB1342F309523233BB1F2
:1026E000432B3FB7F894FC01680F791FE617F707F3
:1026F00089F0819198E04BB9000000C087FF2BB9A9
:10270000880F000000C000C000C02BB900C09A951F
:1027100091F7ECCF3FBF08952AB1242B2AB99B0132
:10272000220F331F620F731F0E946B1387EC90E020
:102730000197F1F700C00000089540E40C948C1359
:1027400008950C94A0131F93CF93DF93182FC82FD5
:10275000880FDD0BC657DE4F6F70E62FF0E0E65CAA
:10276000FE4F88819081980F9883943024F060E028
:10277000812F0E94A11388818D3F24F461E0812F75
:102780000E94A1138881837887FF03C081508C6FDA
:102790008F5F8883DF91CF911F9108958091100101
:1027A000882309F448C020912401A22FA295AF707C
:1027B000B0E091966C9191972F7081E090E0AC0120
:1027C000022E01C0440F0A94EAF7342F30953623C5
:1027D00091963C93919792963C919297432B929627
:1027E0004C93929740912301E42FE295EF70F0E033
:1027F00031A14F70042E01C0880F0A94EAF7982F78
:102800009095932391A392A1892B82A390968C916A
:1028100090E002C0959587952A95E2F781709927F7
:1028200020A130E002C0359527954A95E2F720FDBA
:1028300009C020E008C087EF8093240186EF8093D1
:102840002301B1CF22E0822B80938C019091100163
:1028500081E0982790938901891B809388010895CE
:1028600060918C01562F550F550F20912401E22FB6
:10287000E295EF70F0E080A190E02F7002C0959596
:1028800087952A95E2F78170992740912301E42FDB
:10289000E295EF70F0E020A130E04F7002C0359576
:1028A00027954A95E2F7B9016170772720FF02C0AA
:1028B00062E070E0682B792B652B60938C0180912E
:1028C00089010C94A31320918C01FC0120830895AD
:1028D000FC016081809188010C94A3130F931F93D6
:1028E000CF93DF93C62FD42F022FFC018281882340
:1028F000C9F060938F010E94A32490938E0180936E
:102900008D0180E28C0F883008F050C0C77081E0E4
:1029100001C0880FCA95EAF7DF91CF911F910F91FF
:102920000C94191A10918F01161330C080918D01EB
:1029300090918E010E94AF24883C910538F5C0E249
:10294000CD0F1D17B9F080E2810F883040F4177069
:1029500081E001C0880F1A95EAF70E94201AC8305A
:1029600048F481E09D2F977001C0880F9A95EAF78F
:102970000E94191A802F0E94061AC830B8F4D77026
:1029800081E001C0880FDA95EAF70AC080E28C0F77
:10299000883060F4C77081E001C0880FCA95EAF7FB
:1029A000DF91CF911F910F910C94201ADF91CF915D
:1029B0001F910F9108959C01CB01233F4CE53407F3
:1029C000F9F078F4283DFCE53F07B9F0293D4CE5E6
:1029D000340711F1273D3C4531F526E241EE61EE29
:1029E0001EC0253FFCE53F0799F070F0263F3C45AF
:1029F000D1F427E245EE66EE12C027E245EE0EC0A6
:102A000026E241EE60EE0BC027E245EE64EE07C021
:102A100026E241EE62EE03C028E241E065EE0E944C
:102A20006E1480E00895FC018281882319F01092D1
:102A30008F01089581E008958EE1489B02C0815086
:102A4000E1F7489BFECF0895589880E28A95F1F708
:102A5000589A0895FC013AE03A95F1F720E090E0A9
:102A600080E031E0961779F040E14A95F1F7880F60
:102A7000489B02C08160232700C0000040E14A95C6
:102A8000F1F79F5FEFCF90E19A95F1F799B100C010
:102A9000000030E13A95F1F7917092272081920F72
:102AA00090830895EF92FF920F931F93CF93DF933C
:102AB0001F92CDB7DEB7F62E1982E82E8C01802F3B
:102AC0008E198F1558F40E941C1568E0CE010196EE
:102AD0000E942A15F80181938F01F1CF81E099813D
:102AE000911180E00F90DF91CF911F910F91FF9096
:102AF000EF900895909392018093910160939001DB
:102B0000509A589A089590939201809391016093FE
:102B100090015098589AE89AE9E6F0E080818C7F1D
:102B200080830895615091E001C0990F6A95EAF79A
:102B300020E031E0992361F0492F482319F0589A99
:102B4000232701C0589840E24A95F1F79695F2CFB5
:102B5000222311F0589A01C0589880E28A95F1F723
:102B600058980895EF92FF920F931F93CF93DF939E
:102B70001F92CDB7DEB7162F082F7C018E2D801B3C
:102B8000811758F4F70181917F0189830E942415F0
:102B900068E089810E949215F1CF0F90DF91CF916B
:102BA0001F910F91FF90EF9008951F920F920FB613
:102BB0000F9211240F931F932F933F934F935F9383
:102BC0006F937F938F939F93AF93BF93EF93FF93F5
:102BD000CF93DF931F92CDB7DEB719820E941C15E9
:102BE00067E0CE0101960E942A15382F369536955A
:102BF0003695932F96959570232F2570920F292F38
:102C00002370969596958770920F891348C0898195
:102C1000811145C080919001831708F440C080E184
:102C20008A95F1F7589A509AA2E0AA95F1F700C058
:102C30000091910110919201B8E03B9F000D111D90
:102C400011245898F8016581662321F086819781C7
:102C50000E94B2150E942415F0E1FA95F1F75898F8
:102C60005098589A80E18A95F1F7D80112966C91A4
:102C70001297662369F013968D919C9114970E9488
:102C80005215D801ED91FC91811105C082E004C07C
:102C9000D801ED91FC9188E080830E941C150F9073
:102CA000DF91CF91FF91EF91BF91AF919F918F9164
:102CB0007F916F915F914F913F912F911F910F9154
:102CC0000F900FBE0F901F9018950F931F93CF93E7
:102CD000DF932091900130E0281739070CF471C080
:102CE0009C0193E0220F331F9A95E1F7C091910167
:102CF000D0919201C20FD31FF894509A589845E092
:102D00004A95F1F70000982F969595708570890F78
:102D1000982F937086958695890F8901082B0E94BC
:102D2000241584E08A95F1F700C067E0802F0E94A7
:102D3000921540E14A95F1F75098589A489902C087
:102D400000C0FCCF87E090E0489B0EC0019751F493
:102D5000509A589AE881F98181E08083789481E0E3
:102D600090E031C000C0F0CF6D81662381F08E818C
:102D70009F810E94521581110AC0509A589AE88189
:102D8000F98182E08083789482E090E01CC00E9408
:102D90001C1580E28A95F1F75898509A40E14A95BF
:102DA000F1F76A81662321F08B819C810E94B21524
:102DB0000E942415E881F9811082789480E090E0E7
:102DC00002C084E090E0DF91CF911F910F910895B0
:102DD00090939801809397010895E0919701F09165
:102DE0009801309721F00190F081E02D099480E066
:102DF0000895EF92FF920F931F93CF93DF93E0918B
:102E00009701F09198013097B1F18C010280F38124
:102E1000E02D099580911A0282FF2DC080FF04C029
:102E200083E796E00E945804E80118E08DE6E82E5A
:102E300086E0F82E80911A0280FF0BC088811F92D5
:102E40008F93FF92EF920E94F1040F900F900F90DA
:102E50000F90115021961111EDCF80911A0280FF31
:102E60000AC08BE696E0DF91CF911F910F91FF9002
:102E7000EF900C945804DF91CF911F910F91FF9028
:102E8000EF90089520919501309196018217930754
:102E900071F09093960180939501E0919701F091E4
:102EA0009801309721F00680F781E02D099408956C
:102EB00020919301309194018217930771F09093C0
:102EC000940180939301E0919701F09198013097DC
:102ED00021F00084F185E02D0994089585B780687C
:102EE00085BF85B7806885BF0895089508950C94BF
:102EF000761708950C9479170E946E170E94751723
:102F00000C9477170E949A240E94090B0E94232593
:102F10000E949B110E94F2100C947A17CF93C82F35
:102F200080911A0282FF1EC080FF04C08CE896E0E8
:102F30000E94580480911A0280FF0CC01F92CF9308
:102F400087E896E09F938F930E94F1040F900F9073
:102F50000F900F9080911A0280FF04C085E896E0E0
:102F60000E9458048C2FCF910C944D05CF92DF9284
:102F7000EF92FF920F931F93CF93DF93CDB7DEB7FE
:102F80002B970FB6F894DEBF0FBECDBF0E94490C41
:102F90000E94C40C811111C08FEF89838A831B8228
:102FA0000E94A3248160782F9D838C8349815A815C
:102FB0006B818D810E945C1856C08AE9C82E81E021
:102FC000D82E00E010E0E02E802F0E94BD0AF6010E
:102FD00041916F01F42EF82631F40F5F1F4F0A3034
:102FE000110589F7D9CF90911A0291FF04C08B8700
:102FF0000E94C30A8B8520E030E04F2D50E0922FD5
:10300000BA01022E02C0759567950A94E2F760FF37
:1030100024C02E83EF8221E030E0690102C0CC0C95
:10302000DD1C9A95E2F790E08C219D21892B09F413
:1030300020E028870E94A3248160782F9A878987BF
:103040004E815F8168858A850E945C18F801E6568A
:10305000FE4F8081C826C08206C02F5F3F4F2630BA
:10306000310569F6BACF109199010E94ED16181733
:10307000A1F00E94ED16809399012B960FB6F8945B
:10308000DEBF0FBECDBFDF91CF911F910F91FF909B
:10309000EF90DF90CF900C948E172B960FB6F8948C
:1030A000DEBF0FBECDBFDF91CF911F910F91FF907B
:1030B000EF90DF90CF900895CF93DF93CDB7DEB739
:1030C0002B970FB6F894DEBF0FBECDBF4F83588746
:1030D00069877A878B87DE01119686E0FD01119260
:1030E0008A95E9F785E0FE01379601900D928A9561
:1030F000E1F749815A816B817C818D819E810E949B
:10310000531F2B960FB6F894DEBF0FBECDBFDF91D5
:10311000CF910895FC01808191810E942122089520
:10312000882309F413C1682F8238C1F40E94ED1678
:1031300081FD0CC169E380912501909126010E94D7
:103140000D240E94AC222FEF81EE94E021508040AC
:103150009040E1F700C0000069E319C08338F9F43A
:103160000E94ED1680FDF2C063E5809125019091EB
:1031700026010E940D240E94AC222FEF81EE94E0E4
:10318000215080409040E1F700C0000063E580914D
:103190002501909126010E940F240C94AC228438C2
:1031A000C1F40E94ED1682FDD1C067E48091250133
:1031B000909126010E940D240E94AC222FEF81EEF7
:1031C00094E0215080409040E1F700C0000067E4A7
:1031D000DECF8CEF860F813A38F4809125019091F3
:1031E00026010E940D24D9CF80E2860F883048F452
:1031F000677081E001C0880F6A95EAF70E94632238
:10320000CCCF8BE5860F833070F4653A29F0663AAF
:1032100031F083E890E005C081E890E002C082E8E8
:1032200090E00C94421788E5860F873108F08EC035
:10323000683A09F445C0693A09F445C06A3A09F4A4
:1032400045C06B3A09F445C06C3A09F445C06B3B84
:1032500009F445C06C3B09F445C06D3A09F445C01A
:10326000603B09F445C06E3A09F445C06F3A09F471
:1032700045C0613B09F445C0623B09F445C0633B6E
:1032800009F445C0643B09F445C0653B09F445C0F9
:10329000663B09F445C0673B09F445C0683B09F447
:1032A00045C0693B09F445C06D3B09F445C06E3B20
:1032B00009F445C06A3B09F445C080E090E044C091
:1032C00082EE90E041C089EE90E03EC08AEE90E050
:1032D0003BC085EB90E038C086EB90E035C083EBD7
:1032E00090E032C084EB90E02FC087EB90E02CC0E0
:1032F0008CEC90E029C08DEC90E026C083E891E052
:1033000023C08AE891E020C082E991E01DC084E9F1
:1033100091E01AC081E292E017C083E292E014C00B
:1033200084E292E011C085E292E00EC086E292E073
:103330000BC087E292E008C08FE690E005C080E70E
:1033400090E002C08AE292E00C9458170895882316
:1033500009F45BC0682F823879F40E94ED1681FF72
:1033600054C069E380912501909126010E940D24AB
:103370000E94AC2269E310C08338B1F40E94ED16BC
:1033800080FF43C063E580912501909126010E9452
:103390000D240E94AC2263E58091250190912601C5
:1033A0000E940F240C94AC22843879F40E94ED160C
:1033B00082FF2BC067E480912501909126010E9435
:1033C0000D240E94AC2267E4E7CF8CEF860F813A90
:1033D00018F380E2860F883048F4677081E001C0FE
:1033E000880F6A95EAF70E946922DCCF8BE5860F89
:1033F000833020F480E090E00C944217685A6731E3
:1034000020F480E090E00C9458170895CF93C82FD3
:103410000E949018C93349F42FEF87EE93E02150B2
:1034200080409040E1F700C000008C2FCF910C94B9
:10343000A719882321F00E9463220C94AC220895DE
:10344000882321F00E9469220C94AC220895BF9237
:10345000CF92DF92EF92FF920F931F93CF93DF9360
:103460007C01062FC72FFC01158112951F70D28198
:10347000D1110E9480220E945922882379F0DD23F5
:1034800069F080E2800F883048F082E00E94F722E5
:103490000E94592291E0B82EB92601C0B12CCC2E41
:1034A000C2948FE0C822D12CF601EA5AFF4F0C9447
:1034B0003C2D8C2F807FCF70882311F0C295C07F68
:1034C000DD2399F0CC2309F48DC180E2800F883090
:1034D00010F0011104C08C2F0E94632203C08C2FB6
:1034E0000E9473220E94AC227DC1802F0E94A719E6
:1034F000CC2309F4C0C180E2800F883010F00111A4
:1035000004C08C2F0E94692203C08C2F0E94792254
:103510000E94AC22B0C18C2F807FCF70803211F01E
:10352000C295C07F002319F00130C9F022C0DD230D
:1035300071F0112341F0113031F40E9493228C2B51
:103540000E94992298C10E9493228C2B1DC01123A6
:1035500019F0113009F48FC10E94A22225C0DD2389
:1035600021F0163008F087C10EC0153008F083C175
:103570001BC0DD2361F0112331F0F701858180FF4D
:1035800031C18F7085838C2F0E94191A74C1112349
:1035900059F0093309F037C1FFEF27EE83E0F1500E
:1035A00020408040E1F72DC18C2F0E94201A63C17A
:1035B0008C2F86958695837090E0009719F001977F
:1035C00061F059C1DD2321F0802F9C2F937002C040
:1035D00080E090E00E94421759C1DD2321F0802F46
:1035E0009C2F937002C080E090E00E9458174EC15B
:1035F0008C2F837009F049C0D11144C1402F4295EE
:1036000046954770440F440F602F6F70862F90E0EF
:10361000A0E0B0E0042E04C0880F991FAA1FBB1FB2
:103620000A94D2F704FF10C00FE010E020E030E071
:1036300004C0000F111F221F331F4A95D2F70095B7
:1036400010952095309503C000E010E09801C695D4
:10365000C695C370D0E0BC01CD01602B712B822BCD
:10366000932BC230D10559F0C330D10559F02197C1
:1036700019F00E94982006C10E94862003C10E9472
:10368000AA2000C10E948420FDC0DD2319F08C2FE8
:10369000817001C08695882309F4F4C0402F4295BB
:1036A00046954770440F440F602F6F70862F90E04F
:1036B000A0E0B0E0042E04C0880F991FAA1FBB1F12
:1036C0000A94D2F704FF10C00FE010E020E030E0D1
:1036D00004C0000F111F221F331F4A95D2F7009517
:1036E00010952095309503C000E010E09801C69534
:1036F000C695C370D0E0BC01CD01602B712B822B2D
:10370000932BC230D10559F0C330D10559F0219720
:1037100019F00E945E21B6C00E944C21B3C00E94E5
:103720007021B0C00E94BF20ADC0CF70DD2339F042
:103730008C2F0E94E520802F0E94191AA3C0802F91
:103740000E94201A8C2F0E9406219CC0023F01F18A
:1037500028F4003F41F0013FA1F040C0033FF9F0E1
:10376000043F39F13BC0DD2341F0153008F083C040
:103770008C2F8F710E942B217EC0163008F07BC0E9
:10378000F7CFDD2339F08C2F8F710E94E52073C0B5
:10379000DD23C9F38C2F8F710E9406216CC0DD23BD
:1037A00029F08C2F8F710E94D02065C00E94CB2001
:1037B00062C0DD2349F0CF718C2F0E94E52063E0C9
:1037C0008C2F0E94E22257C081E00E94F722123023
:1037D00008F451C082E00E94F7224DC0DD2331F091
:1037E000112389F2802F0E94901845C0112391F275
:1037F000093349F49FEFE7EEF3E09150E040F040E9
:10380000E1F700C00000802F0E94A71934C04C2FA0
:103810004F70602FC7010E94D0070E94F71F36C06B
:10382000D11134C0CF70D0E0C230D10599F03CF452
:10383000209769F02197F9F40E94F41127C0C43051
:10384000D10571F054F02597B1F480E00AC00E94D0
:10385000BC111CC00E94681219C00E94881216C0B8
:1038600085E00E94C61212C04C2F4F70602FC70116
:103870000E94D3070BC028E0C21AD10884E0C81602
:10388000D10420F40E94ED160E944D05BB20D1F01A
:103890000E94552280FD16C0F70112820E944F221D
:1038A0000E94E520C7010E946C1C0E944F22DF91FC
:1038B000CF911F910F91FF90EF90DF90CF90BF902D
:1038C0000C940621DF91CF911F910F91FF90EF9003
:1038D000DF90CF90BF9008950F931F93CF93DF9306
:1038E000EC01888199812B813C81232BB9F09F3F8A
:1038F00011F48F3F99F0CE010E945F05882371F08B
:10390000688179818A810E942C228C010E94822107
:103910000E948320B801CE010E94271ADF91CF9127
:103920001F910F9108950E9480220E9490220E9470
:10393000AC2280E090E00E94421780E090E00C947E
:10394000581780912501909126010E9411240C9412
:10395000931C0E9470220C94A11CE92FE295EF7039
:10396000F0E03297EE30F105B0F4EA59FF4F0C94D5
:103970003C2D803F91F018F4883E68F40EC0843FDF
:1039800051F40BC0883E48F0813F29F406C093FBF8
:10399000882780F9089580E0089581E008950E94C5
:1039A00021220E94AD1C0895CF93DF9300D000D058
:1039B0001F92CDB7DEB70F900F900F900F900F9022
:1039C000DF91CF910895CF93DF9300D000D000D046
:1039D000CDB7DEB726960FB6F894DEBF0FBECDBFCB
:1039E000DF91CF9108951F93CF93DF93C091A501ED
:1039F00016E08091A601C81799F0D0E01C9FF00155
:103A00001D9FF00D1124E955FE4F408151816281C7
:103A10007381848195810E94E31C2196C770E9CF50
:103A2000DF91CF911F9108954091D7015091D80116
:103A30006091D9017091DA018091DB019091DC01F4
:103A40000C94E31C8091DC0182958F7009F054C0C6
:103A50008091D901882309F44FC08091A501A091DC
:103A6000A6016091D7017091D8014091DA0150917F
:103A7000DB01B6E08A1709F43FC090E0411551051B
:103A8000C1F17F3F11F46F3FA1F1B89FF001B99FE1
:103A9000F00D1124E955FE4F218172132AC02081B7
:103AA000621327C02281211124C02381348124176D
:103AB000350710F421503109241B350B283C310502
:103AC000C0F42091DC012F7020612093DC0126E0FE
:103AD000289FF001299FF00D1124E455FE4F8081AD
:103AE0008F708061808387ED91E00E946C1C0C9444
:103AF000F31C01968770BECF0895CF92DF92EF92AC
:103B0000FF920F931F93CF93DF93CDB7DEB76297EA
:103B10000FB6F894DEBF0FBECDBF8C0185E0F80173
:103B2000DE011D9601900D928A95E1F7D8014C9126
:103B300011965C91119712966C9112971396CD90F5
:103B4000DC9014973091D7017091D8018091DA01FF
:103B50009091DB01009709F46BC17F3F19F43F3F5F
:103B600009F466C1E090D901EE2009F4C0C02091AB
:103B7000DC01C816D90628F0F601E81BF90BCF01C5
:103B800004C0809590958C0D9D1DFF24F394883C76
:103B9000910578F0F12C207F09F0C6C07C2DD98AE0
:103BA000C88A89890E94D41C87ED91E00E946C1C10
:103BB000B1C0822F807F09F046C0751314C0341342
:103BC00012C0611110C02F7020612093DC010E948F
:103BD000141D87ED91E00E946C1C8091DC01D801DE
:103BE00015968C932EC0CD2819F15F3F11F44F3FED
:103BF000F9F0F62E61111CC08091A5012091A6015B
:103C000036E0821709F45AC090E0389FF001399FDE
:103C1000F00D1124E955FE4F7181571306C07081D4
:103C2000471303C07281711103C001968770E9CFF9
:103C3000F62E662309F427C18091DC018160809310
:103C4000DC01F12C20C1751308C0341306C06111CA
:103C500004C08091DC01D801C3C04D875E878D858B
:103C60009E856A8B0E94CF1C6A898823E1F16623B6
:103C7000D1F12091DC01822F82958F7090E0029724
:103C800074F08091D7019091D80198878F8319861D
:103C9000DB86CA862C87CE0107960E946C1C86E0C4
:103CA000F801A7EDB1E001900D928A95E1F70E942D
:103CB000221D0E94141DFF24F394E5C04D875E87EA
:103CC0008D859E850E942122292F22952F7030E01C
:103CD000223031050CF0CBC09F7009F0C5C0805E6A
:103CE000883008F4D0C0C8010E946C1CE4CFC8160C
:103CF000D90608F453C0F601E81BF90BCF01883C44
:103D0000910508F450C0F12C7C2DD98AC88A898984
:103D10000E94D41CE7EDF1E086E0DF011D928A9558
:103D2000E9F70E94141DAFC0751314C0341312C0FC
:103D3000611110C08091DC01F8018583C8010E94E7
:103D40006C1C86E0E7EDF1E0DF011D928A95E9F752
:103D5000FE2C99C04D875E878D859E856A8B0E945B
:103D6000CF1C6A89882309F4BECF662309F4BBCF30
:103D70002091DC01822F82958F7090E002970CF4E5
:103D80008ECF8091D7019091D8019A8389831B822D
:103D9000DD82CC822E83CE0101967FCF80959095D7
:103DA0008C0D9D1DACCFF62E662309F49CCF7513A8
:103DB0002EC034132CC02091DC0120FD1FC0822FA7
:103DC00082958F70D9F0D80115962C9315978F3066
:103DD00049F08F5F982F9295907F822F8F70892B5B
:103DE00015968C93C8010E946C1C86E0F801A7ED23
:103DF000B1E001900D928A95E1F793CF86E0F8014A
:103E0000A7EDB1E001900D928A95E1F73CC04D8796
:103E10005E878D859E850E94CF1C811140CF809149
:103E2000DC0181608093DC01C8010E946C1C2BC006
:103E3000662309F458CF4D875E878D859E850E9445
:103E4000CF1CF82E882309F44ECF86E0F801A7EDA9
:103E5000B1E001900D928A95E1F787ED91E00E9423
:103E60008A180E94221D5DCF811139CF0CC02430E9
:103E700031050CF038CF9F7009F431CFF8019581EE
:103E8000907F09F02CCF8F2D62960FB6F894DEBF8D
:103E90000FBECDBFDF91CF911F910F91FF90EF909B
:103EA000DF90CF9008951F93CF93DF93CDB7DEB708
:103EB0002C970FB6F894DEBF0FBECDBF4F83588747
:103EC00069877A878B879C87CE0107960E947D1D24
:103ED000882369F08F8198852A853B85232BF1F112
:103EE0009F3F09F063C08F3F09F060C037C086E094
:103EF000FE013796DE01119601900D928A95E1F749
:103F00006F817885EA85FB85309741F17F3F11F419
:103F10006F3F21F12091A60130E0C9010196877021
:103F200099274091A50150E08417950709F447C0EF
:103F300069837A83FD83EC8396E0929FD001939FFF
:103F4000B00D1124A955BE4FFE01319601900D927E
:103F50009A95E1F78093A6010E94F31C16E08091E8
:103F6000A5019091A6018917C1F1189FC0011124E4
:103F700089559E4F0E947D1D882379F1E091A5010E
:103F80001E9FF0011124E955FE4F4081518162814D
:103F90007381848195810E94E31C8091A50190E04A
:103FA0000196877099278093A501D9CF4F815885B5
:103FB00069857A858B859C850E94E31CCFCF0E9402
:103FC000A91C1092A6011092A501E7EDF1E086E090
:103FD000DF011D928A95E9F7C1CF2C960FB6F894B0
:103FE000DEBF0FBECDBFDF91CF911F910895EF923D
:103FF000FF920F931F93CF93DF938C01892B09F4CA
:104000006CC0F12CEE24E394E8012196F801849130
:10401000843740F4843008F051C0813081F0823020
:1040200019F15BC0853709F444C0A8F19CE7980FEB
:10403000903708F052C08F770E94A71941C00E5FD9
:104040001F4FFE01C49180E28C0F883048F4C77086
:104050008E2D01C0880FCA95EAF70E94832214C0F2
:104060008C2F0E9490182DC00E5F1F4FFE01C4912F
:1040700080E28C0F883058F4C7708E2D01C0880FF5
:10408000CA95EAF70E9489220E94AC221AC08C2F9E
:104090000E94A71916C00E5F1F4FFE01C491CC23CA
:1040A00081F08FE99FE00197F1F700C00000C15057
:1040B000F6CF0E5F1F4FFE01F49003C00E949018D0
:1040C0008E018F2D882309F49FCFEFE9FFE0319710
:1040D000F1F700C000008150F5CFDF91CF911F9123
:1040E0000F91FF90EF90089508950C9474200E9412
:1040F00075206093090270930A0280930B029093DB
:104100000C020C94931C08950C9477200F931F932A
:104110000091090210910A0220910B0230910C02C9
:10412000602B712B822B932B1F910F910C94772076
:104130000F931F930091090210910A0220910B0224
:1041400030910C0260237123822393231F910F91DE
:104150000C9477200F931F930091090210910A028B
:1041600020910B0230910C02602771278227932740
:104170001F910F910C94772008950C94BC200E94FD
:10418000BD2060930502709306028093070290930E
:1041900008020C94931C60E070E0CB010C94BF20EB
:1041A0000F931F9341E050E060E070E08A019B01B3
:1041B00004C0000F111F221F331F8A95D2F7C901B7
:1041C000B8011F910F910C94BF200F931F9341E0F2
:1041D00050E060E070E004C0440F551F661F771F79
:1041E0008A95D2F78091050290910602A09107026C
:1041F000B09108028A019B01082B192B2A2B3B2B1B
:10420000C901B8011F910F910C94BF200F931F9308
:1042100041E050E060E070E004C0440F551F661FAD
:10422000771F8A95D2F7409550956095709580914B
:10423000050290910602A0910702B09108028A013E
:104240009B01082319232A233B23C901B8011F918D
:104250000F910C94BF200F931F9341E050E060E05A
:1042600070E004C0440F551F661F771F8A95D2F770
:104270008091050290910602A0910702B091080278
:104280008A019B01082719272A273B27C901B80162
:104290001F910F910C94BF200F931F930091050263
:1042A000109106022091070230910802602B712BB9
:1042B000822B932B1F910F910C94BF200F931F9370
:1042C0000091050210910602209107023091080228
:1042D00060237123822393231F910F910C94BF209D
:1042E0000F931F930091050210910602209107027F
:1042F0003091080260277127822793271F910F9121
:104300000C94BF200895292F220F920F990F890F27
:10431000A82FA695A695A695877051E001C0550FC8
:104320008A95EAF785E0A89FD001112420E030E0CB
:1043300070E0F901EA0FFB1FE352FE4F4081CB0111
:10434000022E02C0969587950A94E2F7817099270C
:10435000819584278523842780832F5F3F4F2530D5
:10436000310539F70895292F220F920F990F890FE0
:10437000682F669566956695982F977085E0689F7B
:10438000B001112440E050E080E0FA01E60FF71F91
:10439000E352FE4F208130E0092E02C0369527956A
:1043A0000A94E2F721703327042E01C0220F0A94E9
:1043B000EAF7822B4F5F5F4F4530510531F7089583
:1043C000BF92CF92DF92EF92FF920F931F93CF9302
:1043D000DF938C01C0900902D0900A02E0900B029A
:1043E000F0900C028091050290910602A0910702C4
:1043F000B0910802C82AD92AEA2AFB2ACFE1D0E0E4
:10440000D701C6010C2E04C0B695A7959795879540
:104410000A94D2F780FF07C0BC2EB8018C2F0E94EF
:10442000EE07019719F4219758F7B12C8B2DDF91E6
:10443000CF911F910F91FF90EF90DF90CF90BF90A1
:104440000895CF93DF93EC010E94E021BE010E940A
:10445000EE07DF91CF9108951F93CF93DF93EB0188
:104460009091A401992321F0CB010E94212213C035
:10447000882349F0CB010E94E021182F682FCE013C
:104480000E94832104C0CB010E94B321182FBE01DA
:10449000812F0E94EE07DF91CF911F9108958091A7
:1044A0000D02859585958595089580910D028770FB
:1044B000089590910D02977081E009F480E00895CD
:1044C00080911902089590911902892B8093190205
:1044D0000895809590911902892380931902089577
:1044E00010921902089590911802892B8093180256
:1044F0000895809590911802892380931802089559
:1045000010921802089590911702892B8093170238
:10451000089580959091170289238093170208953A
:1045200010921702089580910E02089508950C9438
:10453000962290910E02981721F080930E020C940F
:104540009722089580910E02882329F010920E027E
:1045500080E00C9497220895E0912501F0912601C6
:10456000809119028083E0912501F09126019081CC
:1045700080911802892B8083E0912501F09126011A
:10458000908180911702892B808380910E0288236D
:1045900081F0E0912501F09126019081892B8083A3
:1045A00080912501909126010E94DB2381110E94B8
:1045B000A22280912501909126010C94F91608956C
:1045C0000C94DF2298E0899F90011124262B2093E0
:1045D0000D020E94E52080910D02859585958595B7
:1045E0000C94E02210920D0280E00C94E0222091C5
:1045F0000D028095822380930D02982F977079F495
:1046000030E0482F082E000C550B2417350739F0E1
:104610008595859585950E9406210C94F222089532
:1046200090935B0180935A0108958295982F9C7C0A
:10463000392F36953695282F237344E0249FC001E7
:104640001124932F982B292F2A7A2695892F857547
:10465000880F822B089580E090E00E946A2D21E06F
:104660008C3E9E4F09F020E0822F089582E090E07A
:104670000C945C2D83E090E00C945C2DCF9384E04F
:1046800090E00E945C2DC82F81E290E00E945C2D9A
:104690002C2F30E0A901582BCA01CF910895CF9358
:1046A000C92F682F84E090E00E94702D6C2F81E26A
:1046B00090E0CF910C94702D86E090E00C945C2DEE
:1046C000682F86E090E00C94702DAB01BC018FE068
:1046D00090E00C94822DAB01BC0183E190E00C943E
:1046E000822D60E070E0CB010C946B2360E070E001
:1046F000CB010E9465230C9471236CEE7EEF80E069
:1047000090E00E948E2D60E082E090E00E94702D8B
:1047100060E083E090E00E94702D109209021092F8
:104720000A0210920B0210920C0260E084E090E00A
:104730000E94702D60E081E290E00E94702D60E0A8
:1047400085E090E00E94702D60E086E090E00E949D
:10475000702D6FEF87E090E00E94702D40E050E0F8
:10476000BA0188E090E00E94822D60E08DE090E048
:104770000E94702D40E050E0BA0188E190E00E9474
:10478000822D60E087E190E00E94702D40E050E0D3
:10479000BA018CE190E00E94822D60E080E290E01E
:1047A0000E94702D0C9476230C947D23682F8EE04C
:1047B00090E00C94702DFC01329697E080E09150CF
:1047C00029F021912223D9F38F5FF9CF08959C011D
:1047D000FC0132969FEF80E04191461789F09F3FA0
:1047E00019F4411101C0982F8F5F8630A9F79F3FC0
:1047F00039F0F901E90FF11D97FDFA9562830895EB
:104800000895FC01329608962081261301C010827B
:104810003196E817F907C1F708950C94E7230C9433
:104820000124029626E0FC0111922A95E9F70895E9
:1048300008950C9418240E941924809160028430F9
:1048400061F110921B0220E488E190E00FB6F89429
:10485000A895809360000FBE2093600080E00E94C6
:10486000FC1280E00E944D050E94192483B7817FCD
:10487000846083BF83B7816083BF7894889583B752
:104880008E7F83BF0FB6F894A895809160008861F1
:1048900080936000109260000FBE089508950895FF
:1048A000CF930E944E240E94490C0E944F24C0E0E6
:1048B0008C2F0E94BD0A811104C0CF5FCA30C1F79E
:1048C00001C081E0CF91089508950C9464240E9462
:1048D000A91C0E949B110E94ED160E944D050C948C
:1048E00065241F920F920FB60F9211248F939F93FE
:1048F000AF93BF9380911B02811113C08091560228
:1049000090915702A0915802B09159024196A11D71
:10491000B11D8093560290935702A0935802B09312
:104920005902BF91AF919F918F910F900FBE0F9041
:104930001F90189582E084BD93E095BD9AEF97BDD6
:1049400080936E0008952FB7F8948091560290914D
:104950005702A0915802B09159022FBF0895CF92EB
:10496000DF92EF92FF920F931F932FB7F89440912D
:1049700056025091570260915802709159022FBF10
:104980006A017B01EE24FF248C0120E030E0C01698
:10499000D106E206F30610F4415051099A01281B92
:1049A000390BC9011F910F91FF90EF90DF90CF90CD
:1049B000089578941F920F920FB60F9211248F933F
:1049C0009F93AF93BF938091560290915702A0910D
:1049D0005802B09159020196A11DB11D8093560253
:1049E00090935702A0935802B0935902BF91AF9190
:1049F0009F918F910F900FBE0F901F90189581E09F
:104A00008093E00080E28093D8001092C9008FE18B
:104A10009EE40197F1F700C0000087E090EBDC0115
:104A20008093690290936A02A0936B02B0936C0228
:104A30009CE088E10FB6F894A895809360000FBEC3
:104A400090936000FFCF0E942B23811102C00E942F
:104A5000D4230E94362380931A020E943E2390930F
:104A60005B0280935A020E943A23682F70E080E034
:104A700090E00C94842080912702089508959FB7B8
:104A8000F89410921E029FBF90916002943009F03A
:104A900057C09091E9009F703091EC00232F217056
:104AA00030FD20E8922B23E02093E9002091EB00D9
:104AB00020FF43C02091EE0027FF3FC020911C0241
:104AC000222321F02091E80025FF37C010921C021C
:104AD00026E03091E80035FD15C030916002343099
:104AE00061F53091EB0035FD28C0215021F481E0C3
:104AF00080931C0222C0EFE9FFE03197F1F700C07C
:104B00000000E7CF8093F1008091E80085FD0AC0A6
:104B10008091E80080FFFCCF8091E8008E77809341
:104B2000E80006C08FB7F89421E020931E028FBFE3
:104B30009F709093E90080E008959F709093E90042
:104B40008FEF08950F931F93CF93DF9300D01F92A1
:104B5000CDB7DEB78C010E943228823011F084304C
:104B600021F584E089831B830A8382E08093E90036
:104B70008FEF9091E800815095FD06C095ED9A95D4
:104B8000F1F700008111F5CF8091E80085FF0DC09D
:104B900040E050E063E070E0CE0101960E944F28B3
:104BA0008091E8008E778093E8000F900F900F902F
:104BB000DF91CF911F910F910895CF93DF9300D094
:104BC0001F92CDB7DEB720916002243031F523E08B
:104BD0002983805891099B838A8382E08093E9002E
:104BE0008FEF9091E800815095FD06C095ED9A9564
:104BF000F1F700008111F5CF8091E80085FF0DC02D
:104C000040E050E063E070E0CE0101960E944F2842
:104C10008091E8008E778093E8000F900F900F90BE
:104C2000DF91CF910895CF93DF93EC010E9432285A
:104C3000823011F0843039F581E08093E9008FEF04
:104C40009091E800815095FD06C095ED9A95F1F799
:104C500000008111F5CF8091E80085FF14C040E08D
:104C600050E068E070E0CE010E944F288091E8009B
:104C70008E778093E80088E0FE01AFE1B2E001901A
:104C80000D928A95E1F7DF91CF91089584EC96E03B
:104C90000E94580480915F02811109C00E94E4299A
:104CA0000E94412A8091E20084608093E20008958E
:104CB00080EC96E00E94580410925F0208958CEBFD
:104CC00096E00C94580488EB96E00C94580484EB1E
:104CD00096E00E9458040C94672420911D022F5FD7
:104CE000822F62E30E94FA2C992319F020931D026F
:104CF000089510921D0280911E02882371F1809107
:104D00006002843041F58091E9008F702091EC00C1
:104D1000922F917020FD90E8892B93E09093E90009
:104D20009091EB0090FF14C09091EE0097FF10C09F
:104D30009091E80095FF03C01092F100F9CF909197
:104D4000E80090FF05C09091E8009E779093E800FE
:104D50008F708093E90010921E02089542E061EC8A
:104D600081E00E945E2942E261EC82E00E945E29BD
:104D700042E261EC83E00C945E2980916202833010
:104D800009F460C030F4813071F0823009F499C0C8
:104D900008958A3009F485C08B3009F46BC08930DE
:104DA00009F0A7C020C080916102813A09F0A1C03A
:104DB0008091E800877F8093E80080916502909160
:104DC0006602892B21F468E08FE192E003C060E085
:104DD00080E090E070E00E949A288091E8008B7754
:104DE0008093E800089580916102813209F081C0CA
:104DF0008091650290916602029708F07AC08091D6
:104E0000E800877F8093E8008091E80082FD05C07C
:104E1000809160028111F8CF6CC02091F3008091E5
:104E2000F20090E0922B029729F48091F1008B7FA1
:104E3000813021F48091F100809327028091E80075
:104E40008B7753C080916102813A09F052C0809102
:104E5000650290916602892B09F04BC08091E800B1
:104E6000877F8093E8008091E80080FFFCCF8091ED
:104E7000310136C0809161028132D9F5809165029D
:104E800090916602892BA9F58091E800877F809335
:104E9000E8000E94932980916302809331010C9471
:104EA000A91C80916102813221F58091E800877F01
:104EB0008093E8000E9493298091640280932802E5
:104EC000089580916102813AA1F48091E800877F82
:104ED0008093E8008091E80080FFFCCF8091280259
:104EE0008093F1008091E8008E778093E8000C9425
:104EF0009329089584B7877F84BF0FB6F894A89547
:104F000080916000886180936000109260000FBE05
:104F100080E880936100109261000E947C170E94DB
:104F2000E4290E94412A8091E20084608093E2009B
:104F30008FE395E20E94102378940E94CF2C0E9468
:104F4000821787E291E00E94E81683EA96E00E94C9
:104F5000580480916002853089F48FE996E00E94C0
:104F600058040E941B2480915E02882391F30E94C2
:104F70005024882371F30E943928EBCF0E94B61782
:104F8000E8CF0C94C327292F332723303105C9F0EC
:104F900064F42130310581F02230310509F049C037
:104FA0008BE590E020E037E048C02132310521F167
:104FB0002232310571F13DC082E190E02BE537E00E
:104FC0003CC099278130910571F02CF4892B89F52B
:104FD000ECEFF6E00DC08230910541F0039749F502
:104FE000E8ECF6E005C0ECEEF6E002C0EEECF6E030
:104FF000849190E09F0121C063307105D0F4660F69
:10500000771FFB01ED5AFE4F2081318189E090E04E
:1050100014C06330710568F4FB01EE0FFF1FE35B02
:10502000FE4F20813181FB01E65BFE4F808190E0E5
:1050300004C080E090E020E030E0FA01318320837A
:1050400008950895CF93C82F0E942128C093290264
:10505000CF91089580916002843011F081E008952D
:1050600082E0089580912902811102C00C942A28BF
:10507000089580E189BD82E189BD09B400FEFDCFBC
:105080008091D8008F7D8093D8008091E00082606D
:105090008093E0008091E00081FDFCCF0895CF92E5
:1050A000DF92EF92FF920F931F93CF93DF93EC0168
:1050B0008B016A010E94B229811133C0C114D1044D
:1050C00039F0F60180819181081B190BC80FD91F97
:1050D000E12CF12C0115110519F18091E80085FDF5
:1050E00016C08091E8008E778093E800C114D10447
:1050F00049F0F60180819181E80EF91EF182E0828B
:1051000085E00FC00E94B229882321F30AC089914B
:105110008093F10001501109FFEFEF1AFF0ADACF77
:1051200080E0DF91CF911F910F91FF90EF90DF9082
:10513000CF900895209167023091680226173707B3
:1051400048F06115710539F42091E8002E7720931D
:10515000E80001C0B90140E061157105A9F1209195
:105160006002222309F443C0253009F442C0209193
:10517000E80023FD40C02091E80022FD32C02091CC
:10518000E80020FFE9CF4091F3002091F20030E0E9
:10519000342BFC01CF016115710559F02830310520
:1051A00040F481918093F100615071092F5F3F4F6E
:1051B000F1CF41E02830310509F040E02091E800CE
:1051C0002E772093E800C8CF4111C9CF0AC0809143
:1051D0006002882361F0853061F08091E80083FDF2
:1051E0000AC08091E80082FFF2CF80E0089582E05B
:1051F000089583E0089581E0089520916702309139
:1052000068022617370748F06115710539F42091B7
:10521000E8002E772093E80001C0B901FC0120E0EE
:105220006115710591F180916002882309F440C0F5
:10523000853009F43FC08091E80083FD3DC0809136
:10524000E80082FD2FC08091E80080FFE9CF209127
:10525000F3008091F20090E0922B6115710559F0F6
:105260008830910540F424912093F10031966150EB
:1052700071090196F2CF21E0089709F020E08091B2
:10528000E8008E778093E800CBCF2111CCCF0AC005
:1052900080916002882361F0853061F08091E800A0
:1052A00083FD0AC08091E80082FFF2CF80E008957C
:1052B00082E0089583E0089581E00895982F973063
:1052C00058F59093E900981739F07091EC0020910F
:1052D000ED005091F00003C0242F762F50E021FF05
:1052E00019C03091EB003E7F3093EB003091ED0020
:1052F0003D7F3093ED003091EB0031603093EB0057
:105300007093EC002093ED005093F0002091EE009C
:1053100027FF07C09F5FD3CF8F708093E90081E0A4
:10532000089580E008958091610287FF11C0809107
:10533000E80082FD05C0809160028111F8CF11C0A4
:105340008091E8008B770BC080916002882349F040
:105350008091E80080FFF8CF8091E8008E778093FD
:10536000E80008952091E4003091E50095E6409131
:10537000EC00842F817040FF22C08091E80080FD06
:105380001CC080916002882391F0853091F080915B
:10539000EB0085FD10C04091E4005091E5004217FC
:1053A000530729F39A01915011F784E0089582E0A0
:1053B000089583E0089581E0089580E00895409184
:1053C000E80042FFDECF08950E94522A0E945A2A26
:1053D000E0EEF0E0808181608083E8EDF0E08081A4
:1053E0008F77808319BCA7EDB0E08C918E7F8C9372
:1053F00080818F7E808310925F0208950F931F93A8
:10540000CF93DF930E94522A0E945A2AC8EDD0E01F
:1054100088818F77888388818068888388818F7D61
:10542000888319BC1092600210925C0210925E0296
:1054300010925D0200EE10E0F80180818B7F808386
:1054400088818160888342E060E080E00E945E297C
:10545000E1EEF0E080818E7F8083E2EEF0E08081FB
:1054600081608083808188608083F80180818E7F65
:105470008083888180618883DF91CF911F910F9114
:105480000895E8EDF0E080818F7E8083E7EDF0E025
:1054900080818160808384E082BF81E080935F02AD
:1054A0000C94FE29E8EDF0E080818E7F80831092DD
:1054B000E20008951092DA001092E10008951F9220
:1054C0000F920FB60F9211242F933F934F935F9338
:1054D0006F937F938F939F93AF93BF93EF93FF93BC
:1054E0008091E10082FF0BC08091E20082FF07C043
:1054F0008091E1008B7F8093E1000E946D26809176
:10550000DA0080FF1FC08091D80080FF1BC080910F
:10551000DA008E7F8093DA008091D90080FF0DC081
:1055200080E189BD82E189BD09B400FEFDCF81E043
:10553000809360020E94462605C019BC109260024A
:105540000E9458268091E10080FF19C08091E200FE
:1055500080FF15C08091E2008E7F8093E2008091F1
:10556000E20080618093E2008091D80080628093A5
:10557000D80019BC85E0809360020E946326809168
:10558000E10084FF30C08091E20084FF2CC080E104
:1055900089BD82E189BD09B400FEFDCF8091D800AC
:1055A0008F7D8093D8008091E1008F7E8093E10011
:1055B0008091E2008F7E8093E2008091E200816022
:1055C0008093E20080915C02882311F084E007C0A0
:1055D0008091E30087FD02C081E001C083E08093F9
:1055E00060020E9467268091E10083FF29C08091BC
:1055F000E20083FF25C08091E100877F8093E10076
:1056000082E08093600210925C028091E1008E7FC4
:105610008093E1008091E2008E7F8093E200809190
:10562000E20080618093E20042E060E080E00E945E
:105630005E298091F00088608093F0000E945F26D0
:10564000FF91EF91BF91AF919F918F917F916F915A
:105650005F914F913F912F910F900FBE0F901F9030
:1056600018951F920F920FB60F9211242F933F930C
:105670004F935F936F937F938F939F93AF93BF935A
:10568000CF93DF93EF93FF93C091E900CF708091A8
:10569000EC00D82FD17080FDD0E81092E900809105
:1056A000F000877F8093F00078940E94752B109211
:1056B000E9008091F00088608093F000CD2BCF70DE
:1056C000C093E900FF91EF91DF91CF91BF91AF912E
:1056D0009F918F917F916F915F914F913F912F910A
:1056E0000F900FBE0F901F9018951F93CF93DF93CD
:1056F000CDB7DEB7AA970FB6F894DEBF0FBECDBF09
:10570000E1E6F2E088E08E0F9091F10091938E1324
:10571000FBCF0E94BD268091E80083FF28C18091C5
:10572000610290916202492F50E04A30510508F021
:105730001EC1FA01EC58FF4F0C943C2D803821F02B
:10574000823809F014C108C080915D0290915E0218
:10575000992389F082600FC0809165028F70873035
:1057600008F005C18093E9008091EB0085FB882754
:1057700080F91092E9009091E800977F9093E800FB
:105780008093F1001092F100D0C0282F2D7F09F0F6
:10579000EEC0882319F0823061F0E9C08091630285
:1057A000813009F0E4C0933009F080E080935E021C
:1057B0002EC08091630281112AC0809165028F7092
:1057C0002FEF280F263008F0D2C08093E9002091F7
:1057D000EB0020FF1CC0933021F48091EB0080622D
:1057E00014C09091EB0090619093EB0021E030E0C9
:1057F000A90102C0440F551F8A95E2F74093EA00C1
:105800001092EA008091EB0088608093EB00109288
:10581000E9008091E800877F8093E8000E94932947
:10582000A6C08111A4C0109163021F778091E3008C
:105830008078812B8093E3008091E800877F8093BC
:10584000E8000E9493298091E80080FFFCCF8091BE
:10585000E30080688093E300111102C082E001C080
:1058600083E08093600283C08058823008F07FC05C
:1058700080916302909164028C3D53E0950779F525
:1058800083E08A838AE289834FB7F894DE01139616
:1058900020E03EE051E2E32FF0E050935700E49126
:1058A00020FF03C0E295EF703F5FEF708E2F90E016
:1058B000EA3010F0C79601C0C0968D939D932F5F7C
:1058C000243149F74FBF8091E800877F8093E8003B
:1058D0006AE270E0CE0101960E949A2815C060919C
:1058E000650270916602AE014F5F5F4F0E94C12753
:1058F000BC01892BE1F19091E800977F9093E8003B
:1059000089819A810E94FD288091E8008B7780939D
:10591000E8002DC0803859F58091E800877F80939A
:10592000E80080915C028093F1008091E8008E771E
:1059300073CF81111CC0909163029230C0F48091AA
:10594000E800877F8093E80090935C020E9493298F
:1059500080915C02811106C08091E30087FD02C046
:1059600081E001C084E0809360020E94AE268091B5
:10597000E80083FF0AC08091E800877F8093E800F9
:105980008091EB0080628093EB00AA960FB6F894AA
:10599000DEBF0FBECDBFDF91CF911F910895CF9392
:1059A000809160028823A1F0C091E900CF709091AE
:1059B000EC00892F817090FD80E8C82B1092E900DF
:1059C0008091E80083FD0E94752BCF70C093E900A1
:1059D000CF910895DB018F939F930E94512DBF912A
:1059E000AF91A29F800D911DA39F900DB29F900D2E
:1059F00011240895991B79E004C0991F961708F0A7
:105A0000961B881F7A95C9F780950895AA1BBB1B22
:105A100051E107C0AA1FBB1FA617B70710F0A61BAE
:105A2000B70B881F991F5A95A9F780959095BC01CF
:105A3000CD010895A1E21A2EAA1BBB1BFD010DC0CA
:105A4000AA1FBB1FEE1FFF1FA217B307E407F5072E
:105A500020F0A21BB30BE40BF50B661F771F881F0A
:105A6000991F1A9469F760957095809590959B01A0
:105A7000AC01BD01CF010895EE0FFF1F0590F49119
:105A8000E02D0994A29FB001B39FC001A39F700DA8
:105A9000811D1124911DB29F700D811D1124911D36
:105AA00008950E94422DA59F900DB49F900DA49F34
:105AB000800D911D11240895F999FECF92BD81BDED
:105AC000F89A992780B50895A6E1B0E044E050E047
:105AD0000C94962DA8E1B0E042E050E00C94962D95
